:1000000080C10000AFC10000ADC10000ABC1000065
:10001000A9C10000A7C10000A5C10000A3C1000044
:10002000A1C100009FC100009DC100009BC1000054
:1000300099C1000097C1000095C1000093C1000064
:1000400091C100008FC100008DC100008BC1000074
:1000500089C1000087C1000085C100000C94421ACC
:1000600081C100000C94181A0C94EE197BC1000099
:1000700079C1000077C1000075C1000073C10000A4
:1000800071C100006FC100006DC100000C94A01A86
:100090000C94C4190C949A1965C1000063C1000046
:1000A00061C100005FC100005DC100005BC10000D4
:1000B00059C100000C948C1A55C1000053C10000B6
:1000C00051C100004FC100004DC100000C947019D7
:1000D0000C94461947C100000C941C190C94F2189A
:1000E00041C1000000407A10F35A00A0724E180976
:1000F0000010A5D4E80000E87648170000E40B548F
:10010000020000CA9A3B000000E1F505000080965D
:100110009800000040420F000000A086010000008F
:10012000102700000000E803000000006400000049
:1001300000000A00000000000100000000002C7612
:10014000D888DC674F0823DFC1DFAE59E1B1B7962D
:10015000E5E3E453C63AE651997696E8E6C284268A
:10016000EB898C9B62ED407C6FFCEFBC9C9F40F266
:10017000BAA56FA5F490055A2AF75C936B6CF967E2
:100180006DC11BFCE0E40D47FEF520E6B500D0EDA7
:10019000902E0300943577050080841E080000200F
:1001A0004E0A000000C80C333333330F986E1283AD
:1001B0001141EF8D2114893BE65516CFFEE6DB1881
:1001C000D1844B381BF77C1D901DA4BBE424203246
:1001D00084725E228100C9F124ECA1E53D27000074
:1001E0002100240027002A002D00300033000101E7
:1001F0000000040107010A0100002000230026007E
:1002000029002C002F00320000010000030106012C
:10021000090100000A0B02090C0D0E080703040176
:1002200000000000000000000000000000000000CE
:10023000000000000000000000000000000012119B
:10024000100000000000000000000000000000009E
:10025000000000000000000001021020200808102B
:100260002040102040800201020108040201010226
:1002700004081020408080402010080402018004FF
:10028000020180402010080402010804020101025A
:100290000408102040800102040810204080000063
:1002A0002200250028002B002E003100340002011E
:1002B0000000050108010B010505050507050808F3
:1002C0000808020202020A0A0808040404040101E0
:1002D00001010101010103030303030303030407F5
:1002E00007070C0C0C0C0C0C0C0C0202020206068C
:1002F0000606060606060B0B0B0B0B0B0B0B5A1B0D
:10030000522811241FBECFEFD1E2DEBFCDBF00E0E7
:100310000CBF20E1A6E5B7E001C01D92A934B207E9
:10032000E1F717E0A0E0B2E0E4E6F4E600E00BBF9E
:1003300002C007900D92A635B107D9F711E0C0E8C9
:10034000D1E000E006C021970109802FFE010E9444
:10035000282DCF37D10780E00807A9F70E94541F46
:100360000C9421324DCEFC01828193819093DC0765
:100370008093DB070895FC018281082E000C990B05
:100380009093CD078093CC070895FC01228133819F
:100390003093060220930502848195819093040294
:1003A000809303020895CF92DF92EF92FF92CF9352
:1003B000DF93EC016A017B01E889F98982E080839F
:1003C000C11481EED806E104F104A1F060E079E007
:1003D0008DE390E0A70196010E94062D215031097E
:1003E000410951095695479537952795211580E183
:1003F000380798F0E889F989108260E874E88EE19E
:1004000090E0A70196010E94062D21503109410973
:1004100051095695479537952795EC85FD8530838D
:10042000EE85FF852083188EEC89FD8986E0808328
:10043000EA89FB89808180618083EA89FB898081E8
:1004400088608083EA89FB89808180688083EA896B
:10045000FB8980818F7D8083DF91CF91FF90EF902A
:10046000DF90CF9008958F929F92AF92BF92CF92DC
:10047000DF92EF92FF920F931F93FC014B01AA248E
:10048000BB24C52ED62EE72EFF24BC2DA42F909181
:100490003310B82C992391F0A92FB0E0A89D9001BA
:1004A000A99D300DB89D300D1124B32E9C9D600187
:1004B0001124BD2D949F80011124A12F409139104A
:1004C000209134103091351080913610481324C09B
:1004D000CF01880F991F8E0F9F1F820F931FE091EE
:1004E0003610E80FF92FF11DB082E0913710E80FB8
:1004F000F92FF11DB08320913810820F911DFC015E
:10050000A0831F910F91FF90EF90DF90CF90BF904D
:10051000AF909F908F900895CF01880F991F880FFB
:10052000991F820F931FFC01E40FF11D1082D7CF9A
:10053000E8E7FFE030E020E041915191452B91F454
:10054000F901EE0FFF1FE858F04F91838083235885
:100550003F4FFC013583248320E63BE0378326832D
:1005600081E008952F5F3F4F2931310529F780E061
:100570000895EAEAFFE030E020E041915191452BF7
:1005800071F4F901EE0FFF1FE655F04F9183808360
:100590002C593F4FFC013383228381E008952F5F64
:1005A0003F4F2931310549F780E00895AF92BF925E
:1005B000CF92DF92EF92FF920F931F93CF93DF932F
:1005C0006C017B018B01040F151FEB015E01AE185E
:1005D000BF08C017D10759F06991D601ED91FC9180
:1005E0000190F081E02DC6011995892B79F7C5019D
:1005F000DF91CF911F910F91FF90EF90DF90CF90FF
:10060000BF90AF900895FC01A089B1898C91A68913
:10061000B78982FD0FC09C91818D8F5F8F73228D72
:10062000821749F0A18DAE0FBF2FB11D5D969C932F
:10063000818F08958C910895FC01538D448D252F51
:1006400030E0842F90E0821B930B541710F0CF966C
:10065000089501970895FC01918D828D981761F09E
:10066000A28DAE0FBF2FB11D5D968C91928D9F5FB5
:100670009F73928F90E008958FEF9FEF0895FC0194
:10068000918D828D981731F0828DE80FF11D858D47
:1006900090E008958FEF9FEF0895FC01918D228DDA
:1006A000892F90E0805C9F4F821B91098F7399275F
:1006B000089582E098E0F1DF21E0892B09F420E041
:1006C000822F08958FE998E0E8DF21E0892B09F473
:1006D00020E0822F08958CE399E0DFDF21E0892B71
:1006E00009F420E0822F089582EE99E0D6DF21E020
:1006F000892B09F420E0822F0895FC01A48DA80F16
:10070000B92FB11DA35ABF4F2C91848D90E0019653
:100710008F739927848FA689B7892C93A089B18973
:100720008C91837080648C93938D848D981306C014
:100730000288F389E02D80818F7D80830895EF9278
:10074000FF920F931F93CF93DF93EC0181E0888F8B
:100750009B8D8C8D98131AC0E889F989808185FF5B
:1007600015C09FB7F894EE89FF896083E889F989FD
:1007700080818370806480839FBF81E090E0DF91FF
:10078000CF911F910F91FF90EF900895F62E0B8D52
:1007900010E00F5F1F4F0F731127E02E8C8D8E110D
:1007A0000BC00FB607FCFACFE889F989808185FF75
:1007B000F5CFCE01A2DFF2CFEB8DEC0FFD2FF11DB7
:1007C000E35AFF4FF0829FB7F8940B8FEA89FB89B9
:1007D00080818062D0CFCF93DF93EC01888D882316
:1007E000B1F0AA89BB89E889F9898C9185FD03C09C
:1007F000808186FD0CC00FB607FCF7CF8C9185FF7A
:10080000F2CF808185FFEDCFCE0177DFEACFDF9198
:10081000CF91089580E090E0892B21F065DF811170
:100820000E94000080E090E0892B21F054DF8111CC
:100830000E94000080E090E0892B21F043DF8111CD
:100840000E94000080E090E0892B21F032DF8111CE
:100850000C94000008958150823108F05AC0E82FAE
:10086000F0E08827E95CFB4F8F4F0C94282D57044C
:100870005B0449044F04530489045E04640468045F
:100880006E04720476047C048004890484048A045F
:100890008E04809180008F778093800008958091EE
:1008A00080008F7DF9CF80918000877FF5CF84B560
:1008B0008F7784BD089584B58F7DFBCF8091B00084
:1008C0008F778093B00008958091B0008F7DF9CF2D
:1008D000809190008F778093900008958091900090
:1008E0008F7DF9CF80919000877FF5CF8091A00018
:1008F0008F778093A00008958091A0008F7DF9CF1D
:100900008091A000877FF5CF809120018F77809321
:1009100020010895809120018F7DF9CF80912001E1
:10092000877FF5CFCF93DF93282F30E0F901EE5E7C
:10093000FD4F8491F901E85AFD4FD491F901E85433
:10094000FD4FC491CC2399F0811185DFEC2FF0E0AD
:10095000EE0FFF1FE850FE4FA591B491EC91ED23EF
:1009600081E090E009F480E0DF91CF91089580E08C
:1009700090E0FACF1F93CF93DF93282F30E0F90157
:10098000EE5EFD4F8491F901E85AFD4FD491F901D3
:10099000E854FD4FC491CC23A1F0162F81115BDFE9
:1009A000EC2FF0E0EE0FFF1FE256FD4FA591B49142
:1009B0008FB7F894EC91111108C0D095DE23DC9329
:1009C0008FBFDF91CF911F910895DE2BF8CFCF938A
:1009D000DF9390E0FC01E85AFD4F249188549D4F2D
:1009E000FC0184918823C9F090E0880F991FFC01D5
:1009F000E252FE4FA591B491FC01E256FD4FC59124
:100A0000D49161110DC09FB7F8948C9120958223E9
:100A10008C938881282328839FBFDF91CF910895ED
:100A2000623051F49FB7F8943C91822F80958323D4
:100A30008C93E8812E2BEFCF8FB7F894EC912E2B6F
:100A40002C938FBFEACF3FB7F894809165079091C0
:100A50006607A0916707B091680726B5A89B05C0F7
:100A60002F3F19F00196A11DB11D3FBFBA2FA92F2D
:100A7000982F8827BC01CD01620F711D811D911D2A
:100A800042E0660F771F881F991F4A95D1F7089596
:100A9000CF92DF92EF92FF920F931F93CF93DF934A
:100AA00000D000D000D0CDB7DEB780913410909147
:100AB0003510892B09F47CC0C0903A10D0903B10BF
:100AC000E0903C10F0903D10BEDF6C157D058E056A
:100AD0009F0548F4B8DF60933A1070933B10809301
:100AE0003C1090933D10AFDF00913A1010913B10F5
:100AF00020913C1030913D10601B710B820B930BC9
:100B00006C32714081059105B8F2F89480912F10F4
:100B1000909130109A838983E0913410F0913510D0
:100B2000DF0111968081898790912B10E0913E1012
:100B3000F0913F1080914010992309F448C09081B2
:100B4000982B98879081809589238F838F818C83C0
:100B500088E08B8358856F8149853B812C81898111
:100B60009A81508347FD252F3A952083262F39F00F
:100B7000441F00C000006083000000C0F2CF38E0D6
:100B80004D9160830000019761F7F0933F10E0936F
:100B90003E1049873B832C839A838983789453DF63
:100BA00060933A1070933B1080933C1090933D10EB
:100BB00029960FB6F894DEBF0FBECDBFDF91CF915F
:100BC0001F910F91FF90EF90DF90CF90089590814B
:100BD000982B98879081809589238F838F818E832E
:100BE00088E08D8358856F8149853D812E8189817B
:100BF0009A81508347FD252F00C000C0208300C08C
:100C000000C000C000C000C060830000262F3A95DD
:100C100041F0441F000000C000C000C000C000C080
:100C2000E8CF38E04D9100C0608300C0019709F71C
:100C3000F0933F10E0933E1049873D832E83ACCF65
:100C40002FB7F894609161077091620780916307F4
:100C5000909164072FBF0895CF92DF92EF92FF9299
:100C60000F931F93CF938C01EBDF6093E207709398
:100C7000E3078093E4079093E5071092DD07F801FE
:100C8000C281C093D2078585809369079091D2076E
:100C900080910202981729F081E08093C307809326
:100CA00057078091D20780930202F801C580D68051
:100CB000E780F08420E030E0A901C701B6010E947E
:100CC000CC2C87FD2AC0C093EB07C701B6010E9458
:100CD0009B2C7093E1076093E007F801C184D284F4
:100CE000E384F48420E030E0A901C701B6010E944A
:100CF000CC2C87FD1AC0C093E807C701B6010E943B
:100D00009B2C7093DF076093DE07CF911F910F91AB
:100D1000FF90EF90DF90CF90089581E08C27809333
:100D2000EB07C701B6019058D2CF81E0C827C09326
:100D3000E807C701B6019058E2CFCF92DF92EF9259
:100D4000FF920F931F93CF93DF9300D000D01F9299
:100D50001F92CDB7DEB774DF28EE33E040E050E0FD
:100D60000E94062D69017A019B01AC0160E472E4E6
:100D70008FE090E00E94D02CE0E6FBE00089118932
:100D800022893389600F711F821F931F0485158587
:100D900026853785C00ED11EE21EF31E20E03AECF8
:100DA0004AE95BE30E94062DC20ED31EE41EF51E27
:100DB000C982DA82EB82FC822C2D3A814B815C81E4
:100DC00028960FB6F894DEBF0FBECDBFDF91CF914E
:100DD0001F910F91FF90EF90DF90CF9008958BE5DA
:100DE00093E0089588E492E0089583E090E0089508
:100DF0008A579B4FFC01808108958CE793E008950A
:100E00008DE993E00895FC018689978908958BEB1D
:100E100093E008958CED93E00895FC01828593851D
:100E20000895DC011896ED91FC91069619948BEECD
:100E300093E008958CE094E00895FC018485958505
:100E400008958BE194E008958CE394E00895FC010B
:100E5000838594850895DB012C91FC012087018412
:100E6000F285E02D069619948AE494E008958BE6C5
:100E700094E00895FC01868597850895EF92FF928E
:100E80000F931F93CF93DF9300D01F921F92CDB784
:100E9000DEB7643671054CF0FC01EA57FB4F208148
:100EA000F12CE12C222309F452C0DA017B018C01E0
:100EB000BC01615E7D4FED91FC910190F081E02DD0
:100EC000CA011995B801685E7D4F2FEFDB012C93A5
:100ED000F801E75EFD4F2EEF208331968083319637
:100EE00090833196292F280F209520833196E08218
:100EF0001696FC9245E050E030E020E07C01B6E040
:100F0000EB0EF11CE416F50634F0A1912A0F311D09
:100F10004F5F5F4FF7CF7C01E8E0EE0EF11C800FD2
:100F2000911FFC01E15EFD4F20952083F1E0EF165B
:100F3000F2E0FF06CCF4D80112968D919C91DC0171
:100F4000ED91FC910280F381E02DA7011995C70175
:100F50000F900F900F900F900F90DF91CF911F91F6
:100F60000F91FF90EF9008958FE592E09A83898327
:100F700083E08B8382E894E09D838C83D801ED919C
:100F8000FC910190F081E02DAE014F5F5F4F67E073
:100F900070E0C8011995EE24EA94FE2CD8CFCF93C7
:100FA000DF9300D01F921F92CDB7DEB72FE532E05E
:100FB0003A83298321E02B839D838C83AE014F5F8D
:100FC0005F4F67E070E080E69BE058DF0F900F9086
:100FD0000F900F900F90DF91CF9108950F931F9373
:100FE000CF93DF9300D000D000D01F92CDB7DEB7F3
:100FF0008C0180E492E09A8389831B821C821D828B
:101000001E821F82188619861A86D801ED91FC91DE
:101010000190F081E02DAE014F5F5F4F6AE070E01C
:10102000C80119950DDEF801608771878287938763
:101030002A960FB6F894DEBF0FBECDBFDF91CF91D9
:101040001F910F910895CF92DF92EF92FF92DC01F2
:101050001D921D921D921C921397FB0130E020E01F
:10106000419150E0022E02C0440F551F0A94E2F74E
:10107000052E000C660B770BCD90DD90ED90FC906B
:1010800013974C295D296E297F294D935D936D93AC
:101090007C931397285F3F4F2032310509F7FF906B
:1010A000EF90DF90CF900895FC014083518312822E
:1010B00013820895CF93DF9360911102D0911202B1
:1010C000C091130282E098E03ADB6D2F82E098E055
:1010D00036DB6C2F82E098E0DF91CF9130CBEACF06
:1010E000FC018281882319F08130B1F00895EBEB87
:1010F000F4E090E080E0DC01A159B84F2C912193FD
:1011000001968A309105B9F78BEB94E0FB0193834C
:10111000828386EC94E043CF8BEC94E0FCCFFC011F
:10112000DB012C9130E03383228311968C9111974F
:10113000382B3383228312962C91129730E035831B
:10114000248313968C91382B3583248384E090E09C
:1011500008950F931F93CF93DF938C01EC01269694
:10116000CE01DDDFD8011C96ED91FC91CE01DF911F
:10117000CF911F910F911994DC01FB0112968C9174
:101180001297808313968C911397818314968C9178
:101190001497828315968C91838384E090E0089560
:1011A00082ED94E0089583EF94E00895FB0120819F
:1011B000FC01228381E090E00895FC018281FB0123
:1011C000808381E090E00895FB0120813181FC0162
:1011D0003383228382E090E008950F931F93CF938F
:1011E000DF938C01EC012696CE01EEDFD8011A9632
:1011F000ED91FC91CE01DF91CF911F910F91199448
:10120000FC0122818381FB012083818382E090E0C5
:10121000089590E080E0089586E095E0089587E2E3
:1012200095E0089587E395E008954F925F926F925D
:101230007F928F929F92AF92BF92EF92FF920F9305
:101240001F93CF93DF9300D01F92CDB7DEB77C0101
:101250008B01CE010196F7DE89819A81AB81BC8139
:101260004C015D0124E0820E911CA11CB11CA8015F
:101270004D5F5F4FFA0124E030E02901712C612CB1
:10128000481459046A047B0428F4618161932F5F38
:101290003F4FF3CFF801E80FF91F1382F701538393
:1012A000428304960F900F900F900F90DF91CF9193
:1012B0001F910F91FF90EF90BF90AF909F908F90F4
:1012C0007F906F905F904F900895FC01DB018C91AF
:1012D000828311968D919C911297948383831396A8
:1012E0004D915D916D917C911697458356836783EF
:1012F000708717964D915D916D917C911A974187FA
:101300005287638774871B968C9185878CE090E069
:1013100008950F931F93CF93DF938C01EC012696D2
:10132000CE01D3DFD8015496ED91FC91CE01DF912F
:10133000CF911F910F911994DC01FB0112968C91B2
:101340001297808313969C91139714968C911497FF
:101350009183828315963C91159716962C9116973A
:1013600017969C91179718968C911897338324831E
:101370009583868319963C9119971A962C911A9702
:101380001B969C911B971C968C911C9737832087EA
:10139000918782871D968C9183878CE090E00895D9
:1013A00088E595E0089589E795E0089583E995E05B
:1013B000089584EB95E008954F925F926F927F922B
:1013C0008F929F92AF92BF92EF92FF920F931F93D3
:1013D000CF93DF9300D01F92CDB7DEB77C018B0196
:1013E000FB01808190E0B0E0A0E0F701828393836D
:1013F000A483B583FB012181922BF7018283938320
:10140000A483B583FB012281A22BF70182839383FE
:10141000A483B583FB012381B22BF70182839383DD
:10142000A483B583FB01848190E0B0E0A0E0F701E4
:1014300086839783A087B187FB012581922BF701D3
:1014400086839783A087B187FB012681A22BF701B2
:1014500086839783A087B187FB012781B22BF70191
:1014600086839783A087B187FB01808590E0B0E0F9
:10147000A0E0F70182879387A487B587FB012185C8
:10148000922BF70182879387A487B587FB0122857A
:10149000A22BF70182879387A487B587FB01238559
:1014A000B22BF70182879387A487B587645F7F4F4C
:1014B000CE010196C8DD89819A81AB81BC814C0146
:1014C0005D01F0E18F0E911CA11CB11CA801415FD0
:1014D0005F4FFA0120E130E02901712C612C4814A2
:1014E00059046A047B0428F4618161932F5F3F4FA4
:1014F000F3CFF801E80FF91F1786F70157874687E2
:1015000040960F900F900F900F90DF91CF911F9109
:101510000F91FF90EF90BF90AF909F908F907F9032
:101520006F905F904F9008950F931F93CF93DF9329
:10153000EC018B01029640DFF801E80FF91F2081D2
:101540002A8B21812B8B22812C8B23812D8B248133
:101550002E8B25812F8B2681288F2781298F20850F
:101560002A8F21852B8F22852C8F23852D8F2585F2
:10157000468550E070E060E0BA0155274427522BC1
:101580002485422B2785722B4E8F5F8F68A379A30A
:101590002189428950E070E060E0BA015527442774
:1015A000522B2089422B2389722B4AA35BA36CA365
:1015B0007DA32589468950E070E060E0BA01552797
:1015C0004427522B2489422B2789722B4EA35FA3D9
:1015D00068A779A7218D428D50E070E060E0BA01E4
:1015E00055274427522B208D422B238D722B4AA73F
:1015F0005BA76CA77DA7248D2EA7268D478D50E075
:1016000070E060E0BA0155274427522B258D422B0C
:1016100020A1722B4FA758AB69AB7AAB22A143A193
:1016200050E070E060E0BA0155274427522B21A119
:10163000422B24A1722B4BAB5CAB6DAB7EAB25A1D7
:1016400030E038AF2FAB46A1342B38AF2FAB27A1FA
:1016500030E03AAF29AF40A5342B3AAF29AF21A5EE
:1016600030E03CAF2BAF42A5342B3CAF2BAF23A5D2
:1016700030E03EAF2DAF44A5342B3EAF2DAF8D965D
:10168000DF91CF911F910F9108954F925F926F92CA
:101690007F928F929F92AF92BF92EF92FF920F93A1
:1016A0001F93CF93DF9300D000D01F921F92CDB72E
:1016B000DEB77C018B0102967FDE5C01B801680F0A
:1016C000791FCE010196BFDCB5016C5F7F4F898128
:1016D0009A81AB81BC818D839E83AF83B8874B0198
:1016E000072E000CAA08BB08880E991EAA1EBB1E56
:1016F000F801E60FF71F2F01401A510A712C612CD7
:10170000481459046A047B0438F441919F01225023
:101710003109D9014C93EFCF8D819E81860F971FA0
:10172000F801E80FF91F3197108261507109600FBD
:10173000711FF701738B628B28960FB6F894DEBF8A
:101740000FBECDBFDF91CF911F910F91FF90EF9012
:10175000BF90AF909F908F907F906F905F904F90D1
:101760000895AB01FC01A681B78164817581ED917B
:10177000FC9111970190F081E02DCD0119940F9308
:101780001F93CF93DF93EC01FB01808188878E014B
:10179000075F1F4FEF89F88DB801CE0106961995A6
:1017A000B801CE010D96DF91CF911F910F91D9CF46
:1017B00084EC95E0089584E192E0089585EE95E04B
:1017C000089586E096E008954F925F926F927F921F
:1017D0008F929F92AF92BF92EF92FF920F931F93BF
:1017E000CF93DF9300D01F92CDB7DEB77C018B0182
:1017F000FB018191BF01F7018283CE01019623DCB9
:1018000089819A81AB81BC814C015D01F5E08F0E2D
:10181000911CA11CB11CA8014C5F5F4FFA0125E08F
:1018200030E02901712C612C481459046A047B04AE
:1018300028F4618161932F5F3F4FF3CFF801E80FE8
:10184000F91F1482F7015483438305960F900F907C
:101850000F900F90DF91CF911F910F91FF90EF901C
:10186000BF90AF909F908F907F906F905F904F90C0
:10187000089589E196E008958AE396E008954F92ED
:101880005F926F927F928F929F92AF92BF92CF9210
:10189000DF92EF92FF920F931F93CF93DF93CDB719
:1018A000DEB72C970FB6F894DEBF0FBECDBF7C011C
:1018B0008B01DB018C9190E0F70193838283119679
:1018C0002C91922B938382836E5F7F4FCE01019682
:1018D000BADB89809A80AB80BC8024013501F6E0B8
:1018E0004F0E511C611C711C98012B5F3F4FF90179
:1018F00086E090E0AC0170E060E0441555056605B7
:10190000770520F4418141930196F4CFB4016A5FD9
:101910007F4FF801E80DF91D1582D70115963C930C
:101920002E931497600F711FCE0105968CDBBAE0E1
:101930008B0E911C4D805E806F807884C401092CD1
:10194000000CAA0BBB0B5C016D01A40CB51CC61CE2
:10195000D71CF801E80DF91DAF01401B510B70E0D9
:1019600060E04A155B056C057D0538F42191AF01F7
:1019700042505109DA012C93EFCF480C591CB801A1
:10198000640D751DFB0131971082C4010197800F12
:10199000911FF70197838683CE01099654DB92014C
:1019A0002C5F3F4F89849A84AB84BC84A901032EA9
:1019B000000C660B770B480D591D6A1D7B1DF80145
:1019C000E20FF31FCF01801B910BB0E0A0E0841762
:1019D0009507A607B70728F48191DF0112978C932A
:1019E000F1CFC901880D991DF801E80FF91FDF013A
:1019F00011971C9221503109020F131FD70119961C
:101A00001C930E9318972181428150E070E060E0B2
:101A1000BA0155274427522B2081422B2381722B58
:101A2000F701428753876487758704962C960FB613
:101A3000F894DEBF0FBECDBFDF91CF911F910F9104
:101A4000FF90EF90DF90CF90BF90AF909F908F90DE
:101A50007F906F905F904F90089583E596E0089592
:101A600084E796E00895FC01DB014C9150E070E0C2
:101A700060E0428353836483758311968C91119740
:101A8000582B428353836483758312968C911297EB
:101A9000682B428353836483758313968C911397C9
:101AA000782B428353836483758314964C911497E7
:101AB00050E070E060E04683578360877187159639
:101AC0008C911597582B468357836087718716969C
:101AD0008C911697682B468357836087718717967A
:101AE0008C91782B468357836087718788E090E0DC
:101AF0000895DC01FB0112968C9112978083139656
:101B00008C911397818314968C91149782831596E8
:101B10008C911597838316968C91169784831796CC
:101B20008C911797858318968C91189786831996B0
:101B30008C91878388E090E008958EBD00000DB4FD
:101B400007FEFDCF8EB50895CF92DF92EF92FF9200
:101B50000F931F93CF93DF937C0160E0FC018081A2
:101B60000E94BA0480E6E9DF80E0E7DFC82F80E06A
:101B7000E4DFC82E80E0E1DF082F80E0DEDFD82F31
:101B800061E0F70180810E94BA046C2F70E090E060
:101B900080E0962F882777276627D12CF12CE12C1F
:101BA0007601DD24CC246C0D7D1D8E1D9F1D10E063
:101BB00030E020E0322F212F102F0027600F711FFF
:101BC000821F931F6D0F711D811D911DDF91CF919C
:101BD0001F910F91FF90EF90DF90CF900895CF93DA
:101BE000DF93EC0160E088810E94BA0488E9A5DFF8
:101BF00080E0A3DF80E0A1DF80E09FDF80E09DDF69
:101C000061E088810E94BA0460E088810E94BA0481
:101C100080EE93DF61E08881DF91CF910C94BA046C
:101C200083E490E1DCDF81E490E1D9CFFC018081A5
:101C30009181009711F00C94CC2D0895EBE2F0E126
:101C40004481558170E060E0818592850C94422F3B
:101C5000F5DF0C944805CF92DF92EF92FF920F933D
:101C60001F93CF93DF93EC018B0169017A01E6DFCB
:101C70000C171D0784F080912D1090912E10C8171D
:101C8000D90728F4B701A601CE010E9433020E94B1
:101C900048052196EDCFDF91CF911F910F91FF90D5
:101CA000EF90DF90CF9008950F931F93E09100087D
:101CB000F0910108E130F105C9F0E230F105B9F128
:101CC000EF2B89F4C8DF0E9420066093FC07709315
:101CD000FD078093FE079093FF0781E090E09093CB
:101CE0000108809300081F910F9108950E9420061B
:101CF0000091FC071091FD072091FE073091FF072E
:101D0000601B710B820B930B643671058105910585
:101D100050F39EDF0E9420066093FC077093FD073E
:101D20008093FE079093FF0782E090E0D8CF0E9457
:101D300020060091FC071091FD072091FE073091CD
:101D4000FF07601B710B820B930B643671058105D5
:101D5000910548F21092010810920008C4CF0F9329
:101D60001F93CF93DF938C01EB018091FA07909141
:101D7000FB078130910509F454C03CF4892B01F133
:101D8000DF91CF911F910F9108958230910509F451
:101D90006AC00397A9F70E9420060091F6071091E8
:101DA000F7072091F8073091F907601B710B820B40
:101DB000930B643F71408105910508F068C0E0CF46
:101DC0000E9420066093F6077093F7078093F80748
:101DD0009093F9078091F4079091F5079C012F5F8C
:101DE0003F4F3093F5072093F407039764F083E0A7
:101DF00090E09093FB078093FA072ADF1092F50793
:101E00001092F407BDCF20E03FEF4FEF50E0BE014E
:101E1000C80121DF81E090E09093FB078093FA07EF
:101E2000AFCF0E9420060091F6071091F70720918E
:101E3000F8073091F907601B710B820B930B643626
:101E400071058105910508F49BCF02DF0E942006F1
:101E50006093F6077093F7078093F8079093F9075C
:101E600082E090E0D9CF0E9420060091F607109101
:101E7000F7072091F8073091F907601B710B820B6F
:101E8000930B643671058105910508F479CF1092A2
:101E9000FB071092FA0774CFCF93DF9320915E0770
:101EA00030915F072230310509F45BC023303105E2
:101EB00009F489C0232BF9F4029771F5BFDE8091F4
:101EC000D20781111CC087E090E090935D0780935A
:101ED0005C0710925B0710925A0780915C07909103
:101EE0005D07909359078093580782E090E09093A4
:101EF0005F0780935E0780E0DF91CF91089587E1CF
:101F000090E090935D0780935C0780E190E0909370
:101F10005B0780935A07E1CF91DE8091D207811150
:101F200017C088E090E090935D0780935C078FE096
:101F300090E090935B0780935A0780915C079091A3
:101F40005D07909359078093580783E090E0CFCFC7
:101F500088E190E090935D0780935C078FE190E0CB
:101F6000E8CFC0915807D091590780912D109091DA
:101F70002E10C817D90738F440E05FE76FEF70E024
:101F8000CE010E9433020E944805CE010197909332
:101F900059078093580780915A0790915B078C17D7
:101FA0009D070CF4A8CF80915C0790915D079093FA
:101FB00059078093580742DE0E94480510925F0738
:101FC00010925E0798CFC0915807D0915907809121
:101FD0002D1090912E10C817D90738F440E05FE714
:101FE0006FEF70E0CE010E9433020E944805CE01DF
:101FF0000196909359078093580780915A079091C2
:102000005B07C817D9070CF476CFCDCFFC01019040
:102010000020E9F73197AF01481B590BBC0182EE54
:1020200099E00C94D6028F929F92AF92BF920F9339
:102030001F93CF93DF93CDB7DEB7A1970FB6F89478
:10204000DEBF0FBECDBF19A2423008F44AE08E01B8
:102050000F5D1F4F842E912CB12CA12CA501940152
:102060000E94062DE62FB901CA01EA30ECF4E05DCA
:10207000D801EE938D01232B242B252B79F790E0AB
:1020800080E0109711F0CD01C1DFA1960FB6F89452
:10209000DEBF0FBECDBFDF91CF911F910F91BF90DB
:1020A000AF909F908F900895E95CE2CF0F931F93BC
:1020B000CF93DF93EC0188819981009759F02A81B1
:1020C0003B812617370730F081E0DF91CF911F91D8
:1020D0000F9108958B016F5F7F4F0E94552E0097DF
:1020E00059F0998388831B830A832C813D81232B9C
:1020F00059F7FC011082E8CF80E0E7CFEF92FF9222
:102100000F931F93CF93DF93EC017B018A01BA01F8
:10211000CDDF28813981811114C02115310519F0D5
:10212000C9010E94CC2D198218821D821C821B823B
:102130001A82CE01DF91CF911F910F91FF90EF9006
:1021400008951D830C83B701C9010E94522FF1CF5E
:10215000CF93DF931F921F92CDB7DEB7FC011182A0
:102160001082138212821582148269831A82BE0140
:102170006F5F7F4FFB0101900020E9F73197AF01BE
:10218000461B570BBBDF0F900F90DF91CF91089547
:10219000AF92BF92CF92DF92EF92FF920F931F9375
:1021A000CF93DF93EC018B01029606D9F801E80F7B
:1021B000F91F20813181C280D12CF12CE12C7601D4
:1021C000DD24CC24D32AC22A2381F22A5C0124E014
:1021D000A20EB11C8A899B89AC89BD898C159D058D
:1021E000AE05BF0538F4B6018F89988D0E94552E33
:1021F000988F8F8BCA8ADB8AEC8AFD8AF801EA0DF8
:10220000FB1D40E050E0BA01CF01801B910BCA8852
:10221000DB88EC88FD884C155D056E057F0560F454
:1022200081918E8BAF89B88DA40FB51F8C934F5FB2
:102230005F4F6F4F7F4FE8CFDF91CF911F910F918D
:10224000FF90EF90DF90CF90BF90AF900895EF9206
:10225000FF920F931F93CF93DF937C018B01DC01DF
:102260001296ED91FC91EF0109900020E9F721977A
:10227000CE1BDF0BAE0170E060E0C8010E94540885
:10228000F70162817381AE01C80104960E94392F63
:10229000CE010496DF91CF911F910F91FF90EF90A7
:1022A0000895EF92FF920F931F93CF93DF938C01CA
:1022B000EB01FC01828188838381898384818A8305
:1022C00085818B8386818C8387818D8380858E83B6
:1022D00081858F83828588878385898784858A879E
:1022E00085858B87A685B785FD0101900020E9F7DC
:1022F00031977F01EA1AFB0AA70170E060E0CE0186
:102300000C960E945408F80166857785A701CE01D6
:1023100040960E94392FC7014096DF91CF911F91BF
:102320000F91FF90EF9008950F931F93CF93DF933A
:10233000EC018B010296B5DFBC01F801E80FF91F33
:102340008A8980838B8981838C8982838D89838329
:102350008E8984838F898583888D8683898D878301
:102360008A8D80878B8D81878C8D82878D8D8387E9
:102370003E8D2F8D98A189A13487258796878787E1
:102380003AA12BA19CA18DA1308B218B928B838BA9
:102390003EA12FA198A589A5348B258B968B878B81
:1023A0003AA52BA59CA58DA5308F218F928F838F69
:1023B0008EA5848F8FA538A929A99AA9858F368FD4
:1023C000278F90A38BA93CA92DA99EA981A332A3F5
:1023D00023A394A38FA985A388AD86A389AD87A3E2
:1023E0008AAD80A78BAD81A78CAD82A78DAD83A769
:1023F0008EAD84A7CB018D96DF91CF911F910F9168
:102400000895CF92DF92EF92FF920F931F93CF9395
:10241000DF936C017B01029644DF8C01D60152965A
:10242000ED91FC91EF0109900020E9F72197CE1B77
:10243000DF0BAE0170E060E0C701800F911F0E94CA
:1024400054080C5F1F4FF60162897389AE01C70102
:10245000800F911F0E94392FCE01800F911FDF91B5
:10246000CF911F910F91FF90EF90DF90CF90089543
:10247000CF92DF92EF92FF920F931F93CF93DF9350
:10248000EC018B0102960DDFF801E80FF91F2A8994
:1024900020832B8921832C8922832D8923830496F1
:1024A000F801E80FF91F40E050E0BA01CF01801BAE
:1024B000910BCA88DB88EC88FD884C155D056E059C
:1024C0007F0558F4AF89B88DA40FB51F8C91819307
:1024D0004F5F5F4F6F4F7F4FE9CFDF91CF911F91DC
:1024E0000F91FF90EF90DF90CF9008952F923F9241
:1024F0004F925F926F927F928F929F92AF92BF9214
:10250000CF92DF92EF92FF920F931F93CF93DF93BF
:10251000CDB7DEB72E970FB6F894DEBF0FBECDBF96
:102520008C016B01DB018D909D90AD90BC90FC0106
:1025300082819381A481B58188159905AA05BB057F
:1025400070F4B401660F771F660F771F828593853D
:102550000E94552ED8011B969C938E931A97F801D2
:1025600082829382A482B582C60140E050E0BA0123
:10257000A4E0EA2EF12C98012A5F3F4FDC0115966A
:10258000EC91159716964C901697512C712C612C46
:102590003201552444245E2A1496EC9114974E2A55
:1025A0001796EC917E2AD7011701E4E02E0E311C1C
:1025B00071010496F80182809380A480B58048154B
:1025C00059056A057B05A8F44682578260867186A4
:1025D0001497A284B384AA0DBB1DE4E0BE2EF901BA
:1025E00001900D92BA94E1F74F5F5F4F6F4F7F4FAD
:1025F000C5CF84859585A685B78584159505A605DF
:10260000B70570F4B201660F771F660F771F8489D4
:1026100095890E94552ED80155969C938E93549778
:10262000F8014486558666867786C601820D931D1D
:10263000412C512C32011C019801205F3F4FDC01DD
:1026400011966C91119712968C901297912CB12C37
:10265000A12C540199248824962A6C91862A1396D9
:102660006C91B62AB4E0EB0EF11CF8014485558557
:10267000668577854416550666067706C0F4808A17
:10268000918AA28AB38ABC0162197309A489B589A7
:10269000A60FB71F64E0F90101900D926A95E1F76A
:1026A000BFEF4B1A5B0A6B0A7B0A0496C8CF868978
:1026B0009789A08DB18D88159905AA05BB0560F491
:1026C000B401660F771F848D958D0E94552ED80119
:1026D0005D969C938E935C97F801868A978AA08E6C
:1026E000B18E412C512C32011801FAE12F0E311C10
:1026F000F80186899789A08DB18D481659066A061A
:102700007B0608F05CC0B6016E0D7F1DCE01019600
:102710000E94230897012C5F3F4F3E872D878980B9
:102720009A80AB80BC80C901032E000CAA0BBB0BA6
:10273000AC01BD01480D591D6A1D7B1D49875A8793
:102740006B877C87F901EC0DFD1D9F012C193D095C
:10275000B90190E080E029853A854B855C85621758
:1027600073078407950728F42191DF0112972C93B2
:10277000ECCFED84FE84E80CF91CF601EE0DFF1D94
:10278000319710828D859E8501978C0D9D1DD801F6
:102790005B969C938E935A97C201880F991F5C9603
:1027A000ED91FC91E80FF91FD1018D919C919183DE
:1027B0008083BFEF4B1A5B0A6B0A7B0A99CFC70174
:1027C0002E960FB6F894DEBF0FBECDBFDF91CF912E
:1027D0001F910F91FF90EF90DF90CF90BF90AF903F
:1027E0009F908F907F906F905F904F903F902F9031
:1027F00008952F923F924F925F926F927F928F92A5
:102800009F92AF92BF92CF92DF92EF92FF920F937F
:102810001F93CF93DF93CDB7DEB7A6970FB6F8948B
:10282000DEBF0FBECDBF8C010E9420064B015C01B4
:10283000980125573B4F3E8B2D8BF901808191816B
:10284000A281B38175016401C81AD90AEA0AFB0A98
:10285000D701C601893F9A42A105B10510F035970D
:102860001082180134E8231A3BEF330AD1018D910D
:102870009C91892B79F0F801E157FB4F8081918180
:10288000A281B38188159905AA05BB0518F4F10149
:102890001182108298012C573B4F3A8B298BA8014B
:1028A00040585B4F5C8B4B8BC8014896988F8F8B41
:1028B000D801AA57BB4FBC8FAB8FF801EC56FB4F2A
:1028C000FE8FED8F215F3F4F38A32F8F425051096C
:1028D000588B4F8786599B4F9A8F898F1996BAA329
:1028E000A9A3A50194012C5E3F4F4F4F5F4F2BA32F
:1028F0003CA34DA35EA3F80184899589A689B78975
:10290000892B8A2B8B2BB9F5D80112968D919C912E
:10291000DC01ED91FC910284F385E02D19959C0179
:1029200097FF3DC0F801EA57FB4F8081882301F1F2
:102930007801B9E7EB1ABBEFFB0AF70180819181BF
:10294000A281B381A5019401281B390B4A0B5B0BB3
:10295000DA01C901853C9940A105B10548F0C801DB
:102960000E94EE07D7018D929D92AD92BC92139773
:1029700090E080E0B6C10E942006681979098A09B2
:102980009B09F801C488D588E688F788C616D7065B
:10299000E806F90608F0B8CF8EEF9FEFA2C1A9892B
:1029A000BA898D919C911197820F931F8D939C935F
:1029B000F1014081518147305105F9F4A98DBA8D5B
:1029C0008D919C911197AC014F5F5F4F4D935C933C
:1029D000800F911FFC01208FAF85B8898D919C914C
:1029E000119701978D939C93892B09F084CF88E0F0
:1029F00090E0F101918380837ECF4115510521F54F
:102A00002F3F310581F481E090E091838083CBA05A
:102A1000DCA0EDA0FEA0A9A1BAA1CD92DD92ED921D
:102A2000FC92139768CF0E942006681979098A09D9
:102A30009B09693873418105910508F45CCFF80161
:102A4000EA57FB4F1082A8CF4130510589F42E3F41
:102A5000310519F482E090E0CCCF11821082EB8D29
:102A6000FC8D8081811147CFC8010E94EE0743CFC2
:102A70004230510591F4AF85B8892D933C93E98D8F
:102A8000FA8D1182108283E090E0D1018D939C93A6
:102A9000E989FA89318320832ECF4330510571F4BF
:102AA000322F2227AF85B8898D919C911197280FDD
:102AB000391F2D933C9384E090E09BCF4430510527
:102AC00079F460E071E00E94F32C8F3F910529F4C6
:102AD00085E090E0918380830ECF118210820BCF2E
:102AE0004530510569F4AB89BC892D933C9386E050
:102AF00090E091838083A989BA892D933C93FBCE82
:102B000046305105A1F4322F2227EB89FC898081C0
:102B10009181280F391F3183208387E090E0D10114
:102B20008D939C93EF85F889808191815DCF4830AA
:102B3000510509F0E0CE1182108260E071E00E9440
:102B4000F32C8F3F910509F0D6CEAB89BC89ED916E
:102B5000FC91309709F0DEC0C8010E94EE0784E3C3
:102B600092E09A8389831C821B8282E197E09E8394
:102B70008D8398878F839A8789871B861C861D86FD
:102B80001E866801B8EECB1ABBEFDB0A7801E6EBD4
:102B9000EE1AEBEFFE0A412C22E0522E612C712C32
:102BA000D601ED91FC913097A9F1848195819C83A8
:102BB0008B83808191819E838D8382819381DC01CF
:102BC000ED91FC910480F581E02D199598878F8314
:102BD000D601ED91FC9182819381DC01ED91FC9114
:102BE0000680F781E02D19959A8789874B865C8648
:102BF0006D867E86D601ED91FC9160857185D80148
:102C0000ED91FC910190F081E02DAE014F5F5F4F9F
:102C1000C8011995B2E0CB0ED11CEC14FD0409F0EB
:102C2000BFCF412C92E0592E612C712CF701A0816D
:102C3000B1811097E1F112968D919C9113979C832D
:102C40008B8314968D919C9115979E838D83ED9126
:102C5000FC9111970480F581E02DCD01199598879D
:102C60008F83D7018D919C91DC01ED91FC910680C1
:102C7000F781E02D19959A8789874B865C866D864A
:102C80007E86D801ED91FC91C080D180F7018081D2
:102C90009181DC01ED91FC910280F381E02D199589
:102CA000AE014F5F5F4FBC01C801F6011995F2E01C
:102CB000EF0EF11CE214F30409F0B8CFF801EA5763
:102CC000FB4F81E08083319680829182A282B38221
:102CD000AD89BE898D929D92AD92BC9213978FEF74
:102CE0009FEFA6960FB6F894DEBF0FBECDBFDF9163
:102CF000CF911F910F91FF90EF90DF90CF90BF90F9
:102D0000AF909F908F907F906F905F904F903F908B
:102D10002F900895EA30F10509F0A1C080E492E017
:102D20009A8389831B821C821D821E821F821886C1
:102D300019861A860E942006F801C084D184E28494
:102D4000F3849B01AC012C193D094E095F0969010F
:102D50007A016F89788DCE0101960E94330DC701EB
:102D6000B60128EE33E040E050E00E94062D6901F4
:102D70007A019B01AC018B819C81AD81BE818C0D60
:102D80009D1DAE1DBF1D8B839C83AD83BE8360E400
:102D900072E48FE090E00E94D02CCF80D884E98448
:102DA000FA84DC01CB018C0D9D1DAE1DBF1D8F83F0
:102DB0009887A987BA870E942006CF80D884E984A3
:102DC000FA8436E3D31A35E6E30A34ECF30A28EE44
:102DD00033E040E050E00E94062D29013A019B01BA
:102DE000AC0160E472E48FE090E00E94D02CA70177
:102DF0009601261B370B480B590BCA01B9012B81D1
:102E00003C814D815E81215031094109510969019F
:102E10007A01C418D508E608F7082601370120E032
:102E20003AEC4AE95BE30E94062D420E531E641EF3
:102E3000751ED8011C964D925D926D927C921F97E3
:102E4000F801608B718B828B938B0E942006AD8979
:102E5000BE896D937D938D939C9313974CCDE630F3
:102E6000F10551F46F89788D8D8D9E8D3FDB81E06A
:102E7000EF8DF8A180833FCDEB30F10521F4AB8DD0
:102E8000BC8D1C9238CDEF53FE4FEE0FFF1FE00FAD
:102E9000F11F80819181009709F42DCDDC01ED9126
:102EA000FC910190F081E02D6F89788D199523CDEB
:102EB0004F925F926F927F928F929F92AF92BF924A
:102EC000CF92DF92EF92FF920F931F93CF93DF93F6
:102ED000EC017B018A81FB0180838B8181838C8162
:102EE00082838D8183833496412C512C320104E0FE
:102EF00010E09F012F5F3F4FCF010296DF01139635
:102F0000A8010C5F1F4F8A809B80AC80BD80481455
:102F100059046A047B04C8F4AA85BB85A40FB51FB5
:102F200014974C9111962C91119712969C9112978F
:102F300013968C9140832183928383838FEF481A69
:102F4000580A680A780A3496D4CF4C8540834D8558
:102F5000F90140832E85FC0120838F858C93F70136
:102F6000E00FF11F412C512C3201AF019F012F5F67
:102F70003F4FCF010296DF0113960C5F1F4F8C84E9
:102F80009D84AE84BF84481459046A047B04D8F439
:102F9000CF01841B950BAC89BD89A80FB91F3C914B
:102FA00011962C91119712969C91129713968C91D1
:102FB00030832183928383838FEF481A580A680AEB
:102FC000780A3496D3CF4E8940834F89F9014083E4
:102FD000288DFC012083898D8C93412C512C32014A
:102FE0008E899F89A88DB98D481659066A067B0679
:102FF00080F55201AA0CBB1CEC8DFD8DEA0DFB1D6A
:10300000A081B181FD0101900020E9F731976F01A6
:10301000CA1ADB0AA60170E060E0C701800F911FA9
:103020000E9454080C5F1F4F8C8D9D8DA80EB91EF9
:10303000F50160817181A601C701800F911F0E9477
:10304000392F0C0D1D1DFFEF4F1A5F0A6F0A7F0A03
:10305000C7CFC801DF91CF911F910F91FF90EF90E3
:10306000DF90CF90BF90AF909F908F907F906F90A8
:103070005F904F900895EF92FF920F931F93CF931D
:10308000DF938C017B01DC0112962C911297FB01DE
:103090002193CF011396ED91FC91EF01099000204F
:1030A000E9F72197CE1BDF0BAE0170E060E00E94D4
:1030B0005408D80113966D917C91AE01C701059615
:1030C0000E94392FCE010596DF91CF911F910F916C
:1030D000FF90EF900895CF92DF92EF92FF920F93BF
:1030E0001F93CF93DF936C01EB01DC0112968C915F
:1030F0001297888313968C91139789831496ED9178
:10310000FC91DF010D900020E9F78D0101501109BC
:103110000E1B1F0BA80170E060E0CE0102960E941A
:103120005408F60164817581A801CE0106960E94BB
:10313000392FC8010696F601A681B781FD010190DD
:103140000020E9F731977F01EA1AFB0AA70170E036
:1031500060E08C0F9D1F0E945408065F1F4FD60130
:1031600016966D917C91A701CE01800F911F0E9450
:10317000392F0E0D1F1DF601A085B185FD010190AF
:103180000020E9F731977F01EA1AFB0AA70170E0F6
:1031900060E0CE01800F911F0E9454080C5F1F4F0A
:1031A000D60118966D917C91A701CE01800F911FD9
:1031B0000E94392FC701800F911FF6016285438558
:1031C00034852585C80FD91F688349833A832B83AB
:1031D0000496DF91CF911F910F91FF90EF90DF90B8
:1031E000CF9008951F920F920FB60F9211240BB635
:1031F0000F922F933F934F935F936F937F938F9390
:103200009F93AF93BF93EF93FF9382E098E00E9468
:103210007D03FF91EF91BF91AF919F918F917F912E
:103220006F915F914F913F912F910F900BBE0F9037
:103230000FBE0F901F9018951F920F920FB60F920E
:1032400011240BB60F922F933F934F935F936F937D
:103250007F938F939F93AF93BF93EF93FF9382E0FE
:1032600098E00E940303FF91EF91BF91AF919F916E
:103270008F917F916F915F914F913F912F910F901F
:103280000BBE0F900FBE0F901F9018951F920F92BC
:103290000FB60F9211240BB60F922F933F934F93BB
:1032A0005F936F937F938F939F93AF93BF93EF93AE
:1032B000FF938FE998E00E947D03FF91EF91BF910A
:1032C000AF919F918F917F916F915F914F913F91BE
:1032D0002F910F900BBE0F900FBE0F901F9018955F
:1032E0001F920F920FB60F9211240BB60F922F93CD
:1032F0003F934F935F936F937F938F939F93AF937E
:10330000BF93EF93FF938FE998E00E940303FF912F
:10331000EF91BF91AF919F918F917F916F915F914D
:103320004F913F912F910F900BBE0F900FBE0F90BA
:103330001F9018951F920F920FB60F9211240BB683
:103340000F922F933F934F935F936F937F938F933E
:103350009F93AF93BF93EF93FF938CE399E00E9409
:103360007D03FF91EF91BF91AF919F918F917F91DD
:103370006F915F914F913F912F910F900BBE0F90E6
:103380000FBE0F901F9018951F920F920FB60F92BD
:1033900011240BB60F922F933F934F935F936F932C
:1033A0007F938F939F93AF93BF93EF93FF938CE3A0
:1033B00099E00E940303FF91EF91BF91AF919F911C
:1033C0008F917F916F915F914F913F912F910F90CE
:1033D0000BBE0F900FBE0F901F9018951F920F926B
:1033E0000FB60F9211240BB60F922F933F934F936A
:1033F0005F936F937F938F939F93AF93BF93EF935D
:10340000FF9382EE99E00E947D03FF91EF91BF91BF
:10341000AF919F918F917F916F915F914F913F916C
:103420002F910F900BBE0F900FBE0F901F9018950D
:103430001F920F920FB60F9211240BB60F922F937B
:103440003F934F935F936F937F938F939F93AF932C
:10345000BF93EF93FF9382EE99E00E940303FF91E5
:10346000EF91BF91AF919F918F917F916F915F91FC
:103470004F913F912F910F900BBE0F900FBE0F9069
:103480001F9018951F920F920FB60F9211242F9331
:103490003F938F939F93AF93BF93809161079091D8
:1034A0006207A0916307B09164073091600723E041
:1034B000230F2D3758F50196A11DB11D20936007EC
:1034C0008093610790936207A0936307B0936407AA
:1034D0008091650790916607A0916707B091680792
:1034E0000196A11DB11D8093650790936607A09377
:1034F0006707B0936807BF91AF919F918F913F91FC
:103500002F910F900FBE0F901F90189526E8230F54
:103510000296A11DB11DD2CF1F920F920FB60F922E
:1035200011248F939F9388EE93E09093A50080934E
:10353000A4009F918F910F900FBE0F901F90189530
:103540001F920F920FB60F9211248F939F9385E0D5
:103550009FEF90939500809394009F918F910F908F
:103560000FBE0F901F9018951F93CF93DF93EC0120
:10357000862F6883798361E00E94E70461E0888197
:103580000E94BA041FB7F89480915607811127C092
:10359000EDEEF2E08491EDE8F2E09491E82FF0E0B6
:1035A000EE0FFF1FE252FE4FA591B491EC91E9237B
:1035B00021F461E085E30E94BA0461E085E30E94A2
:1035C000E7048CB580618CBD8CB580648CBD61E0F6
:1035D00084E30E94E70461E083E30E94E7048091B2
:1035E00056078F5F809356071FBF60E088810E9457
:1035F000BA0488E80E949D0D83E00E949D0D61E061
:1036000088810E94BA0460E088810E94BA0488E838
:103610000E949D0D80E00E949D0D61E088810E94C6
:10362000BA0460E088810E94BA0488E80E949D0D77
:1036300080E00E949D0D61E088810E94BA0460E0F4
:1036400088810E94BA0488E80E949D0D80E00E9453
:103650009D0D61E088810E94BA0460E088810E942B
:10366000BA0488E80E949D0D80E80E949D0D61E0EB
:1036700088810E94BA0460E088810E94BA0480E9CF
:103680000E949D0D80E00E949D0D61E088810E9456
:10369000BA0460E088810E94BA0480E90E949D0D0E
:1036A00080E00E949D0D61E08881DF91CF911F91A4
:1036B0000C94BA04109205081092040848EE53E0E6
:1036C00060E070E040930608509307086093080894
:1036D000709309088BE692E09093030880930208A8
:1036E00025E331E030930F0820930E0824E331E006
:1036F000309311082093100820E331E03093130831
:103700002093120821E331E0309315082093140828
:1037100022E331E0309317082093160826E331E0C6
:10372000309319082093180810921B0810921C0857
:1037300010921D0810921E081092A2081092A10863
:103740004093A3085093A4086093A5087093A6081B
:103750009093A00880939F0825ED30E03093AC084B
:103760002093AB0824ED30E03093AE082093AD08F1
:1037700020ED30E03093B0082093AF0821ED30E029
:103780003093B2082093B10822ED30E03093B408B2
:103790002093B30826ED30E03093B6082093B508A7
:1037A0001092B8081092B9081092BA081092BB088B
:1037B00010923F0910923E094093400950934109ED
:1037C000609342097093430990933D0980933C09AB
:1037D0002DEC30E030934909209348092CEC30E07F
:1037E00030934B0920934A0928EC30E030934D097F
:1037F00020934C0929EC30E030934F0920934E0977
:103800002AEC30E030935109209350092EEC30E03F
:10381000309353092093520910925509109256097A
:1038200010925709109258091092E5091092E40974
:103830004093E6095093E7096093E8097093E9091A
:103840009093E3098093E20985EC90E09093EF096F
:103850008093EE0984EC90E09093F1098093F00955
:1038600080EC90E09093F3098093F20981EC90E072
:103870009093F5098093F40982EC90E09093F70916
:103880008093F60986EC90E09093F9098093F8090B
:103890001092FB091092FC091092FD091092FE098A
:1038A000A9EDB9E090E080E021E2E1E0F0E08630CF
:1038B000910510F4F0E0E0E0AC01425F5F4FE40FEF
:1038C000F51F20935700E491ED93019689309105FF
:1038D00061F765E370E083E490E146DE61E370E068
:1038E00081E490E141DE10922C101092331010927E
:1038F0003A1010923B1010923C1010923D1081E053
:1039000080933910809336101092371092E0909384
:10391000381080932B1080E690E0909330108093C5
:103920002F100E94302D9093351080933410009703
:1039300009F4B1C220E6FC0111922A95E9F780E270
:1039400090E090932E1080932D108DE190E0909355
:1039500032108093311080912C10882341F061E067
:103960008DE10E94E70460E08DE10E94BA04E5ED7C
:10397000F2E0E491F0E0EE0FFF1FE256FD4F85917B
:10398000949190933F1080933E10E5E7F2E0E4912C
:10399000E093401087EE92E0909313108093121002
:1039A0008BED92E0909319108093181010921A10DA
:1039B0008FEC92E090931C1080931B1082E197E0B3
:1039C00090931E1080931D1082E896E09093201033
:1039D00080931F102BE130E13093221020932110AF
:1039E00022E030E030932810209327109093171096
:1039F0008093161080E798E090932A108093291006
:103A000085EC92E09093610B8093600B82EE99E0DD
:103A10009093630B8093620B80E091EEA0E0B0E0A6
:103A20008093640B9093650BA093660BB093670B28
:103A30001092E60F89EB92E09093F50F8093F40FCC
:103A400010920A1010920B1010920C1010920D1080
:103A50001092111010921010E8E7FFE08AEA9FE040
:103A6000119211928E179F07D9F7EAEAFFE011929F
:103A700011928FE0EC3DF807D1F7E8E7FBE01192F7
:103A80008DE0E837F807D9F7E8E7FDE011928FE01D
:103A9000E837F807D9F71092F60F1092F70F109247
:103AA000F80F1092F90F1092FF0F1092FE0F109264
:103AB0000010109201101092021010920310109238
:103AC0000910109208101092740B1092750B10923E
:103AD000760B1092770B83E593E09093490B8093DC
:103AE000480B8DEA92E090934F0B80934E0B10920F
:103AF000500B1092520B1092510B1092530B1092CC
:103B0000540B1092550B1092560B1092570B1092AB
:103B1000580B1092590B10925A0B10925B0B8CE2BF
:103B200096E090935D0B80935C0B81E090E0909326
:103B30005F0B80935E0B22E936E030934D0B2093B0
:103B40004C0B47E453E050933D0B40933C0B2BE36D
:103B500033E03093430B2093420B6FE678E0709391
:103B6000450B6093440B9093470B8093460B6FE992
:103B700076E07093410B6093400B5093310B409370
:103B8000300B3093370B2093360B20E13EE030931F
:103B9000390B2093380B90933B0B80933A0B2DEA13
:103BA00036E03093350B2093340B2FE233E0309323
:103BB000230B2093220B23E233E03093290B209335
:103BC000280B10922B0B10922A0B23EB31E0309331
:103BD0002D0B20932C0B90932F0B80932E0B2CEB03
:103BE00036E03093270B2093260B27E133E0309308
:103BF000160B2093150B2BE033E030931C0B209316
:103C00001B0B10921D0B2BEB31E030931F0B2093FD
:103C10001E0B9093210B8093200B29EC36E0309300
:103C20001A0B2093190B2FEF32E03093060B2093E1
:103C3000050B23EF32E030930C0B20930B0B10920B
:103C40000E0B10920D0B1092100B10920F0B25EC17
:103C500031E03093120B2093110B9093140B80934F
:103C6000130B88ED96E090930A0B8093090B81EA81
:103C700092E09093F20A8093F10A25E932E03093C2
:103C8000F40A2093F30A1092F50A1092F60A1092A1
:103C9000F70A1092F80A1092F90A1092FA0A109292
:103CA000FB0A1092FC0A1092FD0A1092FE0A109272
:103CB000FF0A1092000B82E197E09093020B809331
:103CC000010B9093040B8093030B40EF56E050934D
:103CD000E80A4093E70A41EF5AE05093EA0A40931A
:103CE000E90A1092F00A1092EF0A49E852E0509364
:103CF000CF0A4093CE0A3093D10A2093D00A109273
:103D0000D20A1092D30A1092D40A1092D50A1092B5
:103D1000D60A1092D70A1092D80A1092D90A109295
:103D2000DA0A1092DB0A1092DC0A1092DD0A9093F4
:103D3000DF0A8093DE0A1092E00A1092E10A1092E4
:103D4000E20A1092E30A1092E60A1092E50A4DE7A1
:103D500052E05093900A40938F0A3093920A209336
:103D6000910A1092930A1092940A1092950A109256
:103D7000960A1092970A1092980A1092990A109235
:103D80009A0A10929B0A10929C0A10929D0A109215
:103D90009E0A9093A00A80939F0A1092A10A109203
:103DA000A20A1092A30A1092A40A1092A50A1092D5
:103DB000A60A1092A70A1092A80A1092A90A1092B5
:103DC000AA0A1092AB0A1092AC0A1092AD0A109295
:103DD000AE0A1092AF0A1092B00A1092B10A109275
:103DE000B20A1092B30A1092B40A1092B50A109255
:103DF000B60A1092B70A1092B80A1092B90A109235
:103E0000BA0A1092BB0A1092BC0A1092BD0A109214
:103E1000BE0A1092BF0A1092C00A1092C10A1092F4
:103E2000C20A1092C30A1092C40A1092C50A1092D4
:103E3000C70A1092C60A1092C90A1092C80A1092B4
:103E4000CB0A1092CA0A1092CD0A1092CC0A89EFBE
:103E500096E09093860A8093850A8FE89AE0909383
:103E6000880A8093870A10928E0A10928D0A109207
:103E7000800A10927F0A1092820A1092810A109290
:103E8000840A1092830A50E040E062E177E08FE715
:103E90009AE00C947E101092301010922F10109215
:103EA0002E1010922D1051CDCF93DF93CDB7DEB7EA
:103EB000E0970FB6F894DEBF0FBECDBF789484B5FF
:103EC000826084BD84B5816084BD85B5826085BD16
:103ED00085B5816085BD80916E00816080936E00A4
:103EE0001092810080918100826080938100809196
:103EF0008100816080938100809180008160809347
:103F000080008091B10084608093B1008091B00006
:103F100081608093B00080919100826080939100D5
:103F200080919100816080939100809190008160E8
:103F3000809390008091A10082608093A100809185
:103F4000A10081608093A1008091A0008160809396
:103F5000A000809121018260809321018091210144
:103F600081608093210180912001816080932001F4
:103F700080917A00846080937A0080917A008260D8
:103F800080937A0080917A00816080937A0080919A
:103F90007A00806880937A001092C10040E052EC71
:103FA00061E070E082EE99E00E94D30185E097E045
:103FB0000E94061039EDE32E39E0F32E8701D80177
:103FC0008D918D01803120F484EC94E00E940610E4
:103FD000F8013197608170E090E080E040E10E945C
:103FE00013108EE097E00E940610B9E0023E1B0716
:103FF00031F780E197E00E94061085E097E00E948B
:104000000610F70181917F01803120F484EC94E067
:104010000E940610F7013197608170E090E080E027
:1040200040E10E9413108EE097E00E9406100E15EA
:104030001F0539F780E197E00E94061061E08BE0F0
:104040000E94E70461E08CE00E94E70461E089E0FF
:104050000E94E70461E08AE00E94E70461E086E0F4
:104060000E94E70461E087E00E94E70462E084E0E8
:104070000E94E70462E085E00E94E70462E08EE1CE
:104080000E94E70462E08FE10E94E70461E086E1BC
:104090000E94E70461E087E10E94E70462E080E2B9
:1040A0000E94E70462E081E20E94E70462E088E3A4
:1040B0000E94E70461E082E00E94E70461E083E09F
:1040C0000E94E70440E051EE60E070E08CE399E08C
:1040D0000E94D30140E855E260E070E08FE998E08B
:1040E0000E94D30140E855E260E070E082E098E091
:1040F0000E94D30183E490E10E94EF0D81E490E1FE
:104100000E94EF0D809131109091321097FD08C000
:1041100061E00E94E70460E0809131100E94BA04DF
:1041200081E080932C100E94480560913310633326
:1041300029F120913410309135106150C9F070E0B0
:104140008FEF92E30E94DF2CF90140912F105091E4
:104150003010CF01821B930B8417950760F44081C8
:10416000469FC001479F900D112490833196EDCF5B
:1041700070E060E0E9CF83E3809333101092800019
:104180001092810080E092ECA1E0B0E08093640B9B
:104190009093650BA093660BB093670B40E052ECD5
:1041A00061E070E08091620B9091630B0E94D301FB
:1041B0001092DD0F1092DC0F1092DF0F1092DE0FC5
:1041C0001092E30F1092E20F1092E10F1092E00FA5
:1041D00085E89AE00E94980287EE9AE00E94980291
:1041E0008FE190E10E94980282E190E10E94B90281
:1041F00088E49BE00E94B9028CE39BE00E94B90234
:1042000080E39BE00E94B90282E29BE00E94B90237
:1042100085E19BE00E94B90285E09BE00E94B90223
:104220009E012F5F3F4F59013E0133E1630E711C28
:1042300022E0422E512C1E0146E0240E311C0E9429
:1042400020066B017C010E9423056093F0077093A8
:10425000F1078093F2079093F30780E69BE00E94BA
:10426000F9138091EC079091ED07A091EE07B091C2
:10427000EF07A7019601281B390B4A0B5B0BDA01EC
:10428000C90184369105A105B10508F466C1809184
:10429000D207811174C08091C60A9091C70A2091FB
:1042A0000502309106028217930748F4892B39F0F2
:1042B000809105029091060211E0892B09F410E02B
:1042C0008091C80A9091C90A20910302309104029A
:1042D0008217930748F4892B39F08091030290915B
:1042E0000402892B09F078C00E94200620916B07F8
:1042F00030916C0740916D0750916E07621B730BF4
:10430000840B950B603D77408105910510F01111EC
:1043100006C080916A07181791F0112321F083E1FC
:1043200097E00E94CF070E94200660936B0770936E
:104330006C0780936D0790936E0710936A078EE168
:104340000E949204019709F449C08FE10E949204EF
:10435000019709F443C080E20E949204892B09F07E
:104360004EC01092EA071092E9071092E7071092E8
:10437000E60760E086E00E94BA0460E03CC020915D
:10438000CA0A3091CB0A40910502509106022417C7
:10439000350748F4232B39F02091050230910602AD
:1043A00011E0232B09F410E02091CC0A3091CD0AC2
:1043B00040910302509104022417350708F094CF6E
:1043C000232B09F491CF2091030230910402232B77
:1043D00009F48ACF182F88CF11E086CF1092EA0710
:1043E0001092E9071092E7071092E60761E086E075
:1043F0000E94BA0461E087E00E94BA0430C081E202
:104400000E949204892B09F4ACCF1111AACF80919C
:10441000E0079091E1079093EA078093E907009104
:10442000DE071091DF071093E7070093E60720915E
:10443000690721110CC060E0181619060CF461E040
:1044400086E00E94BA0410161106A4F296CF97FDDA
:1044500004C061E086E00E94BA0417FFCBCF209130
:10446000EB074091E9075091EA0784B1806684B96F
:1044700080918000826080938000809181008861BB
:1044800080938100809180008068809380008DE718
:1044900090E090938700809386003DE7349FC001B1
:1044A000359F900D11246FEF70E00E94F32C7093F4
:1044B00089006093880080918100836080938100EF
:1044C0002111A0C061E089E00E94BA0460E082E0AE
:1044D0000E94BA042091E8074091E6075091E7074F
:1044E00084B1806684B9809180008260809380006E
:1044F000809181008861809381008091800080623A
:10450000809380008DE790E09093870080938600F1
:104510003DE7349FC001359F900D11246FEF70E08F
:104520000E94F32C70938B0060938A00809181002D
:1045300083608093810021116BC060E08AE00E945B
:10454000BA0461E083E00E94BA04C092EC07D09202
:10455000ED07E092EE07F092EF0782E098E00E940C
:104560004D0321E0892B09F020E08091A80728174E
:1045700021F082E098E00E944D0382E098E00E94E2
:104580004D0321E0892B09F020E02093A80782E069
:1045900098E00E944D03892B81F48091A6079091A9
:1045A000A707029754F08AE197E00E94CF070E9484
:1045B0005A081092A5071092A40782E098E00E9482
:1045C0004D03181619060CF005C182E098E00E9410
:1045D0002B032091A4073091A50721303105F1F07C
:1045E0002230310591F1232B41F7849731F7109256
:1045F000A3071092A20741E050E05093A507409313
:10460000A407DBCF60E089E00E94BA0461E05FCFDD
:1046100061E08AE00E94BA0460E094CF2091A20792
:104620003091A307F901E658F84F80832F5F3F4F81
:104630003093A3072093A207223131050CF4BDCF9C
:104640005092A5074092A407B8CF60918A07CE0187
:1046500087960E94A81060918B07CE0181960E94D8
:10466000A8101A8219821C821B821E821D826FA1D1
:1046700078A56115710529F04BA55CA5C5010E94BF
:104680007E1089A09AA08114910409F466C00DA13E
:104690001EA101151105B1F08D819E81080F191F12
:1046A000B801C5010E945610882309F456C029811B
:1046B0003A818D819E81B401820F931F0E94522FF7
:1046C0001E830D831C8E1B8E1E8E1D8E18A21F8EA8
:1046D00069817A816115710531F04D815E81CE016C
:1046E0004B960E947E10C5010E94160EEAE7F7E085
:1046F00090E080E02191022E000C330B822793275B
:10470000AAE8B7E0AE17BF07A9F71C8A1B8A1E8A62
:104710001D8A188E1F8A40E1B501F4D4F50101907D
:104720000020E9F73197AF014A195B09B501C301D0
:104730000E947E100B891C8901151105D9F0F80122
:1047400081918F018823B1F0082E000C990B0E94F3
:10475000312FF80131978083F2CF89819A810097B8
:1047600011F00E94CC2D1A8219821E821D821C8299
:104770001B82A8CF2F89388D8F8D98A128173907D4
:10478000A1F48B899C896B8D7C8D009709F42BC4D7
:104790006115710539F4232B09F433C4FC018081C0
:1047A00090E02CC40E94492F29C41092A5071092B2
:1047B000A4078091A6079091A70701969093A70759
:1047C0008093A607082E000C990B805E984F0E94DC
:1047D000CF0758C48091E2079091E307A091E407C6
:1047E000B091E5078C159D05AE05BF05E0F4A70166
:1047F0009601281B390B4A0B5B0BDA01C901883C77
:104800009105A105B10578F01092E1071092E0073B
:104810001092DF071092DE0781E08093DD0710928F
:10482000DC071092DB078091D7079091D807A09101
:10483000D907B091DA07A7019601281B390B4A0B5B
:104840005B0BDA01C90184369105A105B10508F4B5
:10485000ABC08EE10E94920421E0892B09F420E094
:104860002093A10A8FE10E94920421E0892B09F490
:1048700020E02093A20A84E00E94920421E0892B88
:1048800009F020E02093A30A85E00E94920421E031
:10489000892B09F020E02093A40A80E20E94920470
:1048A00021E0892B09F020E02093AB0A81E20E94ED
:1048B000920421E0892B09F020E02093AC0A88E3E0
:1048C0000E94920421E0892B09F020E02093BD0A88
:1048D00086E00E94920421E0892B09F020E02093D9
:1048E000A60A89E00E94920421E0892B09F020E0C9
:1048F0002093A70A87E00E94920421E0892B09F007
:1049000020E02093A90A8AE00E94920421E0892BEA
:1049100009F020E02093AA0A83E490E10E94A40D0C
:104920006DA77EA78FA798AB6093A9077093AA077E
:104930008093AB079093AC0781E490E10E94A40DB3
:104940002DA53EA54FA558A92093BE0A3093BF0AB6
:104950004093C00A5093C10A6093C20A7093C30A7D
:104960008093C40A9093C50A0E949D062093970ADB
:104970003093980A4093990A50939A0A60939B0A3D
:1049800070939C0A80939D0A90939E0A6FE87AE048
:1049900085E89AE00E94B10BC092D707D092D80761
:1049A000E092D907F092DA070091090210910A0209
:1049B0008091D3079091D407A091D507B091D607E5
:1049C000A7019601281B390B4A0B5B0BDA01C901C1
:1049D00084369105A105B105A8F11E821D8285E5E9
:1049E00089838AEA8A8381E08B838C830130110575
:1049F00021F480E18D838C830FC00230110511F406
:104A000081E1F8CF0330110511F482E1F3CF0430D6
:104A1000110509F4A3C08D83AE014F5F5F4F4A01BA
:104A2000D4016D914D018FE998E00E949F0382149B
:104A30009304B1F7C092D307D092D407E092D50780
:104A4000F092D6079CE0892E912C0115110519F0E2
:104A500086E0882E912C8FE998E00E944D0318166D
:104A6000190614F58FE998E00E942B032091BD07E9
:104A70003091BE072130310509F472C02230310572
:104A800009F486C0232B81F48535910569F485E509
:104A90008093AF0781E090E09093AE078093AD07DD
:104AA0009093BE078093BD078091DD0760E0811180
:104AB000EEC08091D2078111E9C060E086E10E94DA
:104AC000BA0461E087E10E94BA046091DB0770914B
:104AD000DC0780910702909108026817790709F4B2
:104AE000F0C18091CC079091CD07019709F590E036
:104AF00080E08BD5850120E040E0E7D282E197E0BD
:104B00009F938F93BF92AF928CE297E09F938F9386
:104B100089E397E09F938F937F926F920E94592F22
:104B2000C3010E94CF070FB6F894DEBF0FBECDBF02
:104B30000091DB071091DC070630110509F4C4C0B1
:104B400008F0AAC00115110509F4B9C080E091E090
:104B50000130110509F4BAC080E0B7C083E14ACF43
:104B60002091AD073091AE07A9014F5F5F4F509381
:104B7000AE074093AD072155384FF9018083841665
:104B800095060CF091CF5092BE074092BD078CCF96
:104B9000EFEAF7E030E020E08191280F311DCF01EE
:104BA0008F5A974088159905BCF3F401E155F84FE9
:104BB000808190E028171906B9F58091B30790918C
:104BC000B4079827892798270115110531F5909387
:104BD000C70A8093C60A8091B5079091B6079827B7
:104BE000892798279093C90A8093C80A8091B707AC
:104BF0009091B8079827892798279093CB0A80939C
:104C0000CA0A8091B9079091BA07982789279827EF
:104C10009093CD0A8093CC0A07C001301105B1F4FE
:104C20009093C70A8093C60A1092BE071092BD07E0
:104C30008091D20781111EC081E090E00130110502
:104C400001F550920A02409209022ECF023011055E
:104C500029F49093C90A8093C80AE6CF033011055E
:104C600029F49093CB0A8093CA0ADECF0430110551
:104C7000D9F6CECF84E090E00330110511F083E047
:104C800090E090930A02809309020ECF61E086E1E2
:104C90000E94BA0460E016CF0A30110509F40CC175
:104CA00020E030E04FEF50E00D30110509F054CF17
:104CB0006FE170E090E080E00E942B0E4DCF2FE777
:104CC0003FE74FE750E0F4CF81E090E01093080217
:104CD000009307022091C307211104C0911102C063
:104CE000882369F01092C3078091DB079091DC075D
:104CF0008130910509F4E8C0069709F4F4C0809169
:104D0000DB079091DC078430910509F411C108F0AC
:104D1000F6C08230910509F42AC1039709F44AC10B
:104D20008091CE079091CF07A091D007B091D10785
:104D3000A7019601281B390B4A0B5B0BDA01C9014D
:104D400088389341A105B10508F43BC080917B00F0
:104D5000877F80937B0081E480937C0080917A0040
:104D6000806480937A0080917A0086FDFCCF8091E8
:104D7000780060917900762F682F072E000C880B41
:104D8000990B45D420E030EC4FE754E46CD520E09B
:104D900030E040EA50E49AD42AE939E949EF50E496
:104DA00095D46093B10A7093B20A8093B30A90933A
:104DB000B40AC092CE07D092CF07E092D007F0920B
:104DC000D1078091CC079091CD07019709F071C070
:104DD0000E9423050091F0071091F1072091F2073E
:104DE0003091F307DC01CB01801B910BA20BB30BBD
:104DF0000091C8071091C9072091CA073091CB07CD
:104E0000081719072A073B0740F48093C8079093B7
:104E1000C907A093CA07B093CB078091C4079091AC
:104E2000C507A091C607B091C707A7019601281B27
:104E3000390B4A0B5B0BDA01C90189389341A10593
:104E4000B105B8F16091C8077091C9078091CA0790
:104E50009091CB07DAD3850120E040E036D180E4A1
:104E600097E09F938F93BF92AF9288E497E09F93D0
:104E70008F9389E397E09F938F937F926F920E9425
:104E8000592FC3010E94CF071092C8071092C9077B
:104E90001092CA071092CB07C092C407D092C507E0
:104EA000E092C607F092C7070FB6F894DEBF0FBEB8
:104EB000CDBF0E940A04C3C928EA32E340EA50E0A9
:104EC000F7CE80E090E006CF8091D20720E03FEF60
:104ED00040E050E081110EC06FE070E090E080E0B3
:104EE0000E942B0E0CCF8091D2072FEF30E040E0D4
:104EF00050E0F0CF6FE170E080E190E0F1CF8730DB
:104F0000910589F08830910511F120E030E04FEFF4
:104F100050E0059709F004CF6FE170E090E080E089
:104F20000E94540EFDCE28EA32E340EA50E0F4CF6E
:104F30008091D20720E030E04FEF50E06FE070E06A
:104F4000882361F36FE170E080E190E0E9CF809128
:104F5000D207811107C06FE070E090E080E00E940E
:104F6000AF0EDECE6FE170E080E190E0F8CF80918F
:104F7000BF079091C007A091C107B091C207A701D8
:104F80009601281B390B4A0B5B0BDA01C9018436E9
:104F90009105A105B10508F4C3CE82E090E00E941E
:104FA0004C0FC092BF07D092C007E092C107F092A9
:104FB000C207B6CE8091BF079091C007A091C107EC
:104FC000B091C207A7019601281B390B4A0B5B0B56
:104FD000DA01C90184369105A105B10508F4A0CE16
:104FE00083E090E0DCCF6115710559F0232B49F087
:104FF000DB018C9190E0919581959109892B09F0C5
:10500000D4CB20E837E0EBEBF4E090E080E0D9018E
:105010004D919D01DC01A159B84F4C934C914193A6
:1050200001968A30910599F70E949D062093F90A0E
:105030003093FA0A4093FB0A5093FC0A6093FD0AEE
:105040007093FE0A8093FF0A9093000BEFE6F7E05F
:10505000F093040BE093030B61EF7AE087EE9AE0A4
:105060000E94B10B1092A5071092A4071092A707F7
:105070001092A6078BEB94E00E94CF0782E098E0A5
:105080000E944D03C3010E94160ECE014B960E9452
:10509000160ECE0181960E94160ECE0187960E94B2
:1050A000160E8BCA8FE79AE00E94160E809134107C
:1050B0009091351071D5809131109091321097FDFB
:1050C00003C060E00C94E7040895EF920F931F93E0
:1050D000CF93DF93E80134E047FD34E1042E000C68
:1050E000550B57FF03C0519541955109E32E022FEF
:1050F000242FAE012AD0CE01DF91CF911F910F91C5
:10510000EF900895BB274A3031F4992322F4BDE291
:10511000909581959F4F01C0BB27FB015527AA277A
:10512000880F991FAA1FA41710F0A41B8395505134
:10513000B9F7A05DAA3308F0A95DA193009779F7AC
:10514000B111B1931192CB0150C28F929F92AF9245
:10515000BF92CF92DF92EF92FF920F931F93CF9364
:10516000DF9300D000D000D0CDB7DEB76A01F22EB9
:10517000B02E102FFBE3AF2EA01608F41BE31F5F29
:10518000012F27E0AE014F5F5F4F57D1BC018981EE
:10519000982F9970913009F44EC09BE2E1FC04C055
:1051A0009E2D9170E0FC49C05E2D5071E82FE87093
:1051B00083FF55C084E0911101C083E0EF2DE81B0F
:1051C0008F1508F0E0E0D6018E2F20E25523C9F1BB
:1051D000992329F0D6019C93C60101966C01960192
:1051E0002D5F3F4FE2FE33C08EE4D6018C9391E4F5
:1051F00011969C93119712968C93D9018E2F90E261
:1052000081112AC0E20FF32FF11D10828EEF9FEF64
:1052100029960FB6F894DEBF0FBECDBFDF91CF91B8
:105220001F910F91FF90EF90DF90CF90BF90AF90C4
:105230009F908F9008959DE2B7CF90E2B5CF2D93C8
:1052400081508111FCCFCE0ED11CE0E0C1CF8EE6A3
:10525000D6018C9391E6CCCF9D938150D1CF482F2E
:10526000447082FF3DC084E0911101C083E08F153E
:1052700010F4EF2DE81BD6018E2F20E2552309F103
:10528000992329F0D6019C93C60101966C019601E1
:105290002D5F3F4FE2FE1BC089E4D6018C938EE464
:1052A00011968C93119786E412968C93D9018E2FC8
:1052B00090E2882309F4A6CF9D938150FACF2D93D5
:1052C00081508111FCCFCE0ED11CE0E0D9CF89E610
:1052D000D6018C938EE611968C93119786E6E4CFD7
:1052E0009B0177FF02C030E020E0A1E0B0E0911127
:1052F00002C0B0E0A0E0F9013196AE0FBF1F8B2CC9
:10530000912CBB2009F461C05401EFEFAE1ABE0A24
:10531000AA0DBB1DFA161B0619F014F04F2D4A1BDF
:10532000511188C0E3FC59C07601A42FB0E2A1114D
:105330004FC0C40ED11C992309F45BC040E0D601D4
:105340001196F60190836D01552309F448C0012F91
:10535000060F9A81582F507184FF03C0913309F4CE
:10536000015010160CF047C0093008F008E0EEE2DA
:10537000FE2E5B01A01AB1088501919481949108D9
:105380002F3F320729F4D601FC92F60131966F01C6
:105390006217730794F1021713077CF5DB01A21B58
:1053A000B30BAA24A394B12CAC0EBD1EAA0DBB1D39
:1053B00011968C9121503109D60111962815390585
:1053C000F4F0F60180836D01DBCFB12CA12CA0CFCE
:1053D000F701B1937F01A150AACF9111B0CFD601AF
:1053E000942F50E302C05D9391509111FCCFC40EF5
:1053F000D11C40E0ACCF01E0BACF80E3DBCF621735
:10540000730731F4963388F4953311F4552369F01A
:10541000F6018083FD01842F90E2811108C0A40F62
:10542000B11D1C9290E080E0F3CE81E3F1CF919327
:105430008150F3CF911183CF8ACF283008F027E035
:105440003327DA01990F311D87FD916000966105C0
:10545000710539F432602E5F3D9330E32A95E1F710
:1054600008959F3F30F080387105610509F03C5F79
:105470003C5F3D93913008F08068911DDF93CF939E
:105480001F930F93FF92EF92192F987F9695E92F14
:1054900096959695E90FFF27E25CFE4F99273327F3
:1054A000EE24FF24A701E70105900894079428F44F
:1054B000360FE71EF81E491F511D660F771F881F04
:1054C000991F0694A1F70590079428F4E70EF81E9B
:1054D000491F561FC11D770F881F991F661F06940D
:1054E000A1F70590079428F4F80E491F561FC71F0F
:1054F000D11D880F991F661F771F0694A1F705908D
:10550000079420F4490F561FC71FD81F990F661F15
:10551000771F881F0694A9F784911095177041F0A2
:10552000D695C79557954795F794E7941A95C1F77F
:10553000E4EEF0E0689415901591359165919591A0
:1055400005907FE27395E118F10A430B560BC90BE6
:10555000D009C0F7E10CF11E431F561FC91FD01D13
:105560007EF4703311F48A95E6CFE894015030F060
:10557000080F0AF40027021708F4202F2395022FA2
:105580007A3328F079E37D932A95E9F710C07D936B
:105590002A9589F6069497956795379517951794E8
:1055A000E118F10A430B560BC90BD00998F023956B
:1055B0007E9173957A3308F070E37C932013B8F7EB
:1055C0007E9170617D9330F0839571E37D9370E3FC
:1055D0002A95E1F71124EF90FF900F911F91CF9141
:1055E000DF91992787FD90950895DC01FC01672FD5
:1055F00071917723E1F7329704C07C916D937083AA
:105600006291AE17BF07C8F30895E89409C097FBED
:105610003EF490958095709561957F4F8F4F9F4F89
:105620009923A9F0F92F96E9BB279395F6958795CD
:1056300077956795B795F111F8CFFAF4BB0F11F490
:1056400060FF1BC06F5F7F4F8F4F9F4F16C0882337
:1056500011F096E911C0772321F09EE8872F762F6D
:1056600005C0662371F096E8862F70E060E02AF0AE
:105670009A95660F771F881FDAF7880F969587959A
:1056800097F90895990F0008550FAA0BE0E8FEEF6F
:1056900016161706E807F907C0F012161306E407F6
:1056A000F50798F0621B730B840B950B39F40A26EF
:1056B00061F0232B242B252B21F408950A2609F4CD
:1056C000A140A6958FEF811D811D08950BD078C054
:1056D00069D028F06ED018F0952309F05AC05FC049
:1056E0001124A2C07ED0A0F3959FD1F3950F50E076
:1056F000551F629FF001729FBB27F00DB11D639F84
:10570000AA27F00DB11DAA1F649F6627B00DA11D29
:10571000661F829F2227B00DA11D621F739FB00DCF
:10572000A11D621F839FA00D611D221F749F33273F
:10573000A00D611D231F849F600D211D822F762FD8
:105740006A2F11249F5750408AF0E1F088234AF0D5
:10575000EE0FFF1FBB1F661F771F881F9150504021
:10576000A9F79E3F510570F014C05EC05F3FECF397
:10577000983EDCF3869577956795B795F795E7950D
:105780009F5FC1F7FE2B880F911D9695879597F91E
:10579000089597F99F6780E870E060E008959FEFB3
:1057A00080EC089500240A941616170618060906B8
:1057B000089500240A941216130614060506089587
:1057C000092E0394000C11F4882352F0BB0F40F40F
:1057D000BF2B11F460FF04C06F5F7F4F8F4F9F4F4F
:1057E000089557FD9058440F551F59F05F3F71F0D1
:1057F0004795880F97FB991F61F09F3F79F0879538
:105800000895121613061406551FF2CF4695F1DFC0
:1058100008C0161617061806991FF1CF8695710550
:10582000610508940895E894BB2766277727CB0184
:1058300097F9089509D0A59F900DB49F900DA49F4E
:10584000800D911D11240895A29FB001B39FC00146
:10585000A39F700D811D1124911DB29F700D811D9C
:105860001124911D08950CD0ABCFA3DF40F09ADF37
:1058700030F021F45F3F19F08CCF5111D5CF8FCF8D
:10588000B0DF98F39923C9F35523B1F3951B550B5A
:10589000BB27AA2762177307840738F09F5F5F4F03
:1058A000220F331F441FAA1FA9F333D00E2E3AF044
:1058B000E0E830D091505040E695001CCAF729D05E
:1058C000FE2F27D0660F771F881FBB1F26173707AD
:1058D0004807AB07B0E809F0BB0B802DBF01FF27DD
:1058E00093585F4F2AF09E3F510568F052CF9CCFEE
:1058F0005F3FECF3983EDCF3869577956795B79517
:10590000F7959F5FC9F7880F911D9695879597F931
:105910000895E1E0660F771F881FBB1F62177307AA
:105920008407BA0720F0621B730B840BBA0BEE1FBF
:1059300088F7E095089504D06894B11175CF089563
:1059400058DF88F09F5790F0B92F9927B751A0F0F2
:10595000D1F0660F771F881F991F1AF0BA95C9F703
:1059600012C0B13081F05FDFB1E008955CCF672FE6
:10597000782F8827B85F39F0B93FCCF386957795B3
:105980006795B395D9F73EF490958095709561959C
:105990007F4F8F4F9F4F089575DE08F48FEF089566
:1059A000DB018F939F9346DFBF91AF91A29F800D44
:1059B000911DA39F900DB29F900D11240895AA1BD5
:1059C000BB1B51E107C0AA1FBB1FA617B70710F0EA
:1059D000A61BB70B881F991F5A95A9F7809590951C
:1059E000BC01CD01089597FB072E16F4009406D054
:1059F00077FD08D0E4DF07FC05D03EF49095819553
:105A00009F4F0895709561957F4F0895A1E21A2EDA
:105A1000AA1BBB1BFD010DC0AA1FBB1FEE1FFF1F52
:105A2000A217B307E407F50720F0A21BB30BE40BA2
:105A3000F50B661F771F881F991F1A9469F76095E9
:105A40007095809590959B01AC01BD01CF010895A3
:105A5000EE0FFF1F881F8BBF0790F691E02D199462
:105A60000F931F93CF93DF938230910510F482E060
:105A700090E0E0914710F091481030E020E0B0E075
:105A8000A0E0309799F42115310509F44AC0281B8C
:105A9000390B24303105D8F58A819B816115710558
:105AA00089F1FB0193838283FE0111C04081518102
:105AB0000281138148175907E0F04817590799F4F4
:105AC000109761F012960C93129713961C933296CE
:105AD000CF01DF91CF911F910F910895009347104F
