:1000000080C10000AFC10000ADC10000ABC1000065
:10001000A9C10000A7C10000A5C10000A3C1000044
:10002000A1C100009FC100009DC100009BC1000054
:1000300099C1000097C1000095C1000093C1000064
:1000400091C100008FC100008DC100008BC1000074
:1000500089C1000087C1000085C100000C94221AEC
:1000600081C100000C94F8190C94CE197BC10000DA
:1000700079C1000077C1000075C1000073C10000A4
:1000800071C100006FC100006DC100000C94801AA6
:100090000C94A4190C947A1965C1000063C1000086
:1000A00061C100005FC100005DC100005BC10000D4
:1000B00059C100000C946C1A55C1000053C10000D6
:1000C00051C100004FC100004DC100000C945019F7
:1000D0000C94261947C100000C94FC180C94D218FB
:1000E00041C1000000407A10F35A00A0724E180976
:1000F0000010A5D4E80000E87648170000E40B548F
:10010000020000CA9A3B000000E1F505000080965D
:100110009800000040420F000000A086010000008F
:10012000102700000000E803000000006400000049
:1001300000000A00000000000100000000002C7612
:10014000D888DC674F0823DFC1DFAE59E1B1B7962D
:10015000E5E3E453C63AE651997696E8E6C284268A
:10016000EB898C9B62ED407C6FFCEFBC9C9F40F266
:10017000BAA56FA5F490055A2AF75C936B6CF967E2
:100180006DC11BFCE0E40D47FEF520E6B500D0EDA7
:10019000902E0300943577050080841E080000200F
:1001A0004E0A000000C80C333333330F986E1283AD
:1001B0001141EF8D2114893BE65516CFFEE6DB1881
:1001C000D1844B381BF77C1D901DA4BBE424203246
:1001D00084725E228100C9F124ECA1E53D27000074
:1001E0002100240027002A002D00300033000101E7
:1001F0000000040107010A0100002000230026007E
:1002000029002C002F00320000010000030106012C
:10021000090100000A0B02090C0D0E080703040176
:1002200000000000000000000000000000000000CE
:10023000000000000000000000000000000012119B
:10024000100000000000000000000000000000009E
:10025000000000000000000001021020200808102B
:100260002040102040800201020108040201010226
:1002700004081020408080402010080402018004FF
:10028000020180402010080402010804020101025A
:100290000408102040800102040810204080000063
:1002A0002200250028002B002E003100340002011E
:1002B0000000050108010B010505050507050808F3
:1002C0000808020202020A0A0808040404040101E0
:1002D00001010101010103030303030303030407F5
:1002E00007070C0C0C0C0C0C0C0C0202020206068C
:1002F0000606060606060B0B0B0B0B0B0B0B3A1B2D
:10030000152811241FBECFEFD1E2DEBFCDBF00E024
:100310000CBF20E1A0E5B7E001C01D92AD32B207ED
:10032000E1F717E0A0E0B2E0EAEEF3E600E00BBF91
:1003300002C007900D92A035B107D9F711E0C0E8CF
:10034000D1E000E006C021970109802FFE010E9444
:10035000EB2CCF37D10780E00807A9F70E94121FC6
:100360000C94E4314DCEFC01828193819093D507AA
:100370008093D4070895FC018281082E000C990B0C
:100380009093C6078093C5070895FC0122813381AD
:100390003093060220930502848195819093040294
:1003A000809303020895CF92DF92EF92FF92CF9352
:1003B000DF93EC016A017B01E889F98982E080839F
:1003C000C11481EED806E104F104A1F060E079E007
:1003D0008DE390E0A70196010E94C92C21503109BC
:1003E000410951095695479537952795211580E183
:1003F000380798F0E889F989108260E874E88EE19E
:1004000090E0A70196010E94C92C215031094109B1
:1004100051095695479537952795EC85FD8530838D
:10042000EE85FF852083188EEC89FD8986E0808328
:10043000EA89FB89808180618083EA89FB898081E8
:1004400088608083EA89FB89808180688083EA896B
:10045000FB8980818F7D8083DF91CF91FF90EF902A
:10046000DF90CF9008958F929F92AF92BF92CF92DC
:10047000DF92EF92FF920F931F93FC014B01AA248E
:10048000BB24C52ED62EE72EFF24BC2DA42F909181
:100490001710B82C992391F0A92FB0E0A89D9001D6
:1004A000A99D300DB89D300D1124B32E9C9D600187
:1004B0001124BD2D949F80011124A12F40911D1066
:1004C000209118103091191080911A10481324C0EF
:1004D000CF01880F991F8E0F9F1F820F931FE091EE
:1004E0001A10E80FF92FF11DB082E0911B10E80FF0
:1004F000F92FF11DB08320911C10820F911DFC017A
:10050000A0831F910F91FF90EF90DF90CF90BF904D
:10051000AF909F908F900895CF01880F991F880FFB
:10052000991F820F931FFC01E40FF11D1082D7CF9A
:10053000ECE5FFE030E020E041915191452B91F452
:10054000F901EE0FFF1FE45AF04F91838083235887
:100550003F4FFC013583248324E43BE0378326832B
:1005600081E008952F5F3F4F2931310529F780E061
:100570000895EEE8FFE030E020E041915191452BF5
:1005800071F4F901EE0FFF1FE257F04F9183808362
:100590002C593F4FFC013383228381E008952F5F64
:1005A0003F4F2931310549F780E00895AF92BF925E
:1005B000CF92DF92EF92FF920F931F93CF93DF932F
:1005C0006C017B018B01040F151FEB015E01AE185E
:1005D000BF08C017D10759F06991D601ED91FC9180
:1005E0000190F081E02DC6011995892B79F7C5019D
:1005F000DF91CF911F910F91FF90EF90DF90CF90FF
:10060000BF90AF900895FC01A089B1898C91A68913
:10061000B78982FD0FC09C91818D8F5F8F73228D72
:10062000821749F0A18DAE0FBF2FB11D5D969C932F
:10063000818F08958C910895FC01538D448D252F51
:1006400030E0842F90E0821B930B541710F0CF966C
:10065000089501970895FC01918D828D981761F09E
:10066000A28DAE0FBF2FB11D5D968C91928D9F5FB5
:100670009F73928F90E008958FEF9FEF0895FC0194
:10068000918D828D981731F0828DE80FF11D858D47
:1006900090E008958FEF9FEF0895FC01918D228DDA
:1006A000892F90E0805C9F4F821B91098F7399275F
:1006B000089587EF97E0F1DF21E0892B09F420E02E
:1006C000822F089584E998E0E8DF21E0892B09F47E
:1006D00020E0822F089581E399E0DFDF21E0892B7C
:1006E00009F420E0822F089587ED99E0D6DF21E01C
:1006F000892B09F420E0822F0895FC01A48DA80F16
:10070000B92FB11DA35ABF4F2C91848D90E0019653
:100710008F739927848FA689B7892C93A089B18973
:100720008C91837080648C93938D848D981306C014
:100730000288F389E02D80818F7D80830895EF9278
:10074000FF920F931F93CF93DF93EC0181E0888F8B
:100750009B8D8C8D98131AC0E889F989808185FF5B
:1007600015C09FB7F894EE89FF896083E889F989FD
:1007700080818370806480839FBF81E090E0DF91FF
:10078000CF911F910F91FF90EF900895F62E0B8D52
:1007900010E00F5F1F4F0F731127E02E8C8D8E110D
:1007A0000BC00FB607FCFACFE889F989808185FF75
:1007B000F5CFCE01A2DFF2CFEB8DEC0FFD2FF11DB7
:1007C000E35AFF4FF0829FB7F8940B8FEA89FB89B9
:1007D00080818062D0CFCF93DF93EC01888D882316
:1007E000B1F0AA89BB89E889F9898C9185FD03C09C
:1007F000808186FD0CC00FB607FCF7CF8C9185FF7A
:10080000F2CF808185FFEDCFCE0177DFEACFDF9198
:10081000CF91089580E090E0892B21F065DF811170
:100820000E94000080E090E0892B21F054DF8111CC
:100830000E94000080E090E0892B21F043DF8111CD
:100840000E94000080E090E0892B21F032DF8111CE
:100850000C94000008958150823108F05AC0E82FAE
:10086000F0E08827E95CFB4F8F4F0C94EB2C57048A
:100870005B0449044F04530489045E04640468045F
:100880006E04720476047C048004890484048A045F
:100890008E04809180008F778093800008958091EE
:1008A00080008F7DF9CF80918000877FF5CF84B560
:1008B0008F7784BD089584B58F7DFBCF8091B00084
:1008C0008F778093B00008958091B0008F7DF9CF2D
:1008D000809190008F778093900008958091900090
:1008E0008F7DF9CF80919000877FF5CF8091A00018
:1008F0008F778093A00008958091A0008F7DF9CF1D
:100900008091A000877FF5CF809120018F77809321
:1009100020010895809120018F7DF9CF80912001E1
:10092000877FF5CFCF93DF93282F30E0F901EE5E7C
:10093000FD4F8491F901E85AFD4FD491F901E85433
:10094000FD4FC491CC2399F0811185DFEC2FF0E0AD
:10095000EE0FFF1FE850FE4FA591B491EC91ED23EF
:1009600081E090E009F480E0DF91CF91089580E08C
:1009700090E0FACF1F93CF93DF93282F30E0F90157
:10098000EE5EFD4F8491F901E85AFD4FD491F901D3
:10099000E854FD4FC491CC23A1F0162F81115BDFE9
:1009A000EC2FF0E0EE0FFF1FE256FD4FA591B49142
:1009B0008FB7F894EC91111108C0D095DE23DC9329
:1009C0008FBFDF91CF911F910895DE2BF8CFCF938A
:1009D000DF9390E0FC01E85AFD4F249188549D4F2D
:1009E000FC0184918823C9F090E0880F991FFC01D5
:1009F000E252FE4FA591B491FC01E256FD4FC59124
:100A0000D49161110DC09FB7F8948C9120958223E9
:100A10008C938881282328839FBFDF91CF910895ED
:100A2000623051F49FB7F8943C91822F80958323D4
:100A30008C93E8812E2BEFCF8FB7F894EC912E2B6F
:100A40002C938FBFEACF3FB7F89480915F079091C6
:100A50006007A0916107B091620726B5A89B05C009
:100A60002F3F19F00196A11DB11D3FBFBA2FA92F2D
:100A7000982F8827BC01CD01620F711D811D911D2A
:100A800042E0660F771F881F991F4A95D1F7089596
:100A9000CF92DF92EF92FF920F931F93CF93DF934A
:100AA00000D000D000D0CDB7DEB780911810909163
:100AB0001910892B09F47CC0C0901E10D0901F1013
:100AC000E0902010F0902110BEDF6C157D058E05A2
:100AD0009F0548F4B8DF60931E1070931F10809339
:100AE000201090932110AFDF00911E1010911F1065
:100AF0002091201030912110601B710B820B930B01
:100B00006C32714081059105B8F2F8948091131010
:100B1000909114109A838983E0911810F091191024
:100B2000DF0111968081898790910F10E09122104A
:100B3000F091231080912410992309F448C09081EA
:100B4000982B98879081809589238F838F818C83C0
:100B500088E08B8358856F8149853B812C81898111
:100B60009A81508347FD252F3A952083262F39F00F
:100B7000441F00C000006083000000C0F2CF38E0D6
:100B80004D9160830000019761F7F0932310E0938B
:100B9000221049873B832C839A838983789453DF7F
:100BA00060931E1070931F1080932010909321105B
:100BB00029960FB6F894DEBF0FBECDBFDF91CF915F
:100BC0001F910F91FF90EF90DF90CF90089590814B
:100BD000982B98879081809589238F838F818E832E
:100BE00088E08D8358856F8149853D812E8189817B
:100BF0009A81508347FD252F00C000C0208300C08C
:100C000000C000C000C000C060830000262F3A95DD
:100C100041F0441F000000C000C000C000C000C080
:100C2000E8CF38E04D9100C0608300C0019709F71C
:100C3000F0932310E093221049873D832E83ACCF9D
:100C40002FB7F89460915B0770915C0780915D0706
:100C500090915E072FBF0895CF92DF92EF92FF929F
:100C60000F931F93CF938C01EBDF6093DB0770939F
:100C7000DC078093DD079093DE071092D607F8011A
:100C8000C281C093CB079091CB0780910202981745
:100C900029F081E08093BC07809351078091CB07B6
:100CA00080930202F801C580D680E780F08420E0BE
:100CB00030E0A901C701B6010E948F2C87FD2AC030
:100CC000C093E407C701B6010E945E2C7093DA0757
:100CD0006093D907F801C184D284E384F48420E0CE
:100CE00030E0A901C701B6010E948F2C87FD1AC010
:100CF000C093E107C701B6010E945E2C7093D8072C
:100D00006093D707CF911F910F91FF90EF90DF90E5
:100D1000CF90089581E08C278093E407C701B60146
:100D20009058D2CF81E0C827C093E107C701B60130
:100D30009058E2CF8AE593E0089588E492E0089520
:100D400083E090E008958A579B4FFC0180810895CD
:100D50008BE793E008958CE993E00895FC01858981
:100D60009689089589EB93E008958AED93E00895BC
:100D7000FC01828593850895DC011896ED91FC9124
:100D80000696199489EE93E008958AE094E0089518
:100D9000FC0184859585089589E194E008958AE3AE
:100DA00094E00895FC01838594850895DB012C91DE
:100DB000FC0120870184F285E02D0696199488E4D1
:100DC00094E0089589E694E00895FC01868597856E
:100DD0000895EF92FF920F931F93CF93DF9300D06C
:100DE0001F921F92CDB7DEB7643671054CF0FC013F
:100DF000EA57FB4F2081F12CE12C222309F452C049
:100E0000DA017B018C01BC01615E7D4FED91FC91AB
:100E10000190F081E02DCA011995B801685E7D4FFF
:100E20002FEFDB012C93F801E75EFD4F2EEF2083BF
:100E300031968083319690833196292F280F209503
:100E400020833196E0821696FC9245E050E030E037
:100E500020E07C01B6E0EB0EF11CE416F50634F060
:100E6000A1912A0F311D4F5F5F4FF7CF7C01E8E062
:100E7000EE0EF11C800F911FFC01E15EFD4F2095ED
:100E80002083F1E0EF16F2E0FF06CCF4D8011296D1
:100E90008D919C91DC01ED91FC910280F381E02D1C
:100EA000A7011995C7010F900F900F900F900F9009
:100EB000DF91CF911F910F91FF90EF9008958EE5F4
:100EC00092E09A83898383E08B838FE794E09D830C
:100ED0008C83D801ED91FC910190F081E02DAE0161
:100EE0004F5F5F4F67E070E0C8011995EE24EA9408
:100EF000FE2CD8CFCF93DF9300D01F921F92CDB797
:100F0000DEB72EE532E03A83298321E02B839D83EF
:100F10008C83AE014F5F5F4F67E070E084E49BE03D
:100F200058DF0F900F900F900F900F90DF91CF919F
:100F300008950F931F93CF93DF9300D000D000D07C
:100F40001F92CDB7DEB78C0180E492E09A8389834B
:100F50001B821C821D821E821F82188619861A8699
:100F6000D801ED91FC910190F081E02DAE014F5F31
:100F70005F4F6AE070E0C801199562DEF801608792
:100F80007187828793872A960FB6F894DEBF0FBECB
:100F9000CDBFDF91CF911F910F910895CF92DF9236
:100FA000EF92FF92DC011D921D921D921C921397ED
:100FB000FB0130E020E0419150E0022E02C0440FDE
:100FC000551F0A94E2F7052E000C660B770BCD90A7
:100FD000DD90ED90FC9013974C295D296E297F29B7
:100FE0004D935D936D937C931397285F3F4F203211
:100FF000310509F7FF90EF90DF90CF900895FC0145
:1010000040835183128213820895CF93DF936091BE
:101010001102D0911202C091130287EF97E08FDB8B
:101020006D2F87EF97E08BDB6C2F87EF97E0DF91D9
:10103000CF9185CBEACFFC018281882319F08130E2
:10104000B1F00895E8EBF4E090E080E0DC01A8590D
:10105000B84F2C91219301968A309105B9F788EB0E
:1010600094E0FB019383828383EC94E043CF88EC8C
:1010700094E0FCCFFC01DB012C9130E03383228330
:1010800011968C911197382B3383228312962C91D1
:10109000129730E03583248313968C91382B358357
:1010A000248384E090E008950F931F93CF93DF9300
:1010B0008C01EC012696CE01DDDFD8011C96ED9166
:1010C000FC91CE01DF91CF911F910F911994DC011A
:1010D000FB0112968C911297808313968C91139733
:1010E000818314968C911497828315968C918383B7
:1010F00084E090E008958FEC94E0089580EF94E010
:101100000895FC01DB018C91828311968C911197DB
:10111000838312968C911297848313968C911397E4
:10112000858314968C911497868315968C911597C8
:10113000878316968C911697808717968C911797B0
:10114000818718968C911897828719968C91199798
:1011500083871A968C911A9784871B968C911B977C
:1011600085871C964D915D916D917C911F97468767
:101170005787608B718B50964D915D916D917C91ED
:101180005397428B538B648B758B54964D915D9125
:101190006D917C915797468B578B608F718F5896C6
:1011A0004D915D916D917C915B97428F538F648FD0
:1011B000758F5C968C915C97868F5D964D915D9155
:1011C0006D917C919097478F50A361A372A39196E4
:1011D0004D915D916D917C91949743A354A365A328
:1011E00076A395968C91959790E090A787A3969675
:1011F0002C919697922B90A787A397968C9197976F
:1012000090E092A781A798962C919897922B92A7FD
:1012100081A799968C91999790E094A783A79A9625
:101220002C919A97922B94A783A79B968C919B972E
:1012300090E096A785A79C962C91922B96A785A7C0
:101240008DE290E00895DC01FB0112968C911297DB
:10125000808313968C911397818314968C911497A5
:10126000828315968C911597838316968C91169789
:10127000848317968C911797858318968C9118976D
:10128000868319968C91199787831A968C911A9751
:1012900080871B968C911B9781871C968C911C973D
:1012A00082871D968C911D9783871E963C911E9771
:1012B0001F962C911F9750969C91509751968C9108
:1012C0005197348725879687878752963C91529706
:1012D00053962C91539754969C91549755968C9174
:1012E0005597308B218B928B838B56963C915697DA
:1012F00057962C91579758969C91589759968C9140
:101300005997348B258B968B878B5A963C915A979D
:101310005B962C915B975C969C915C975D968C910B
:101320005D97308F218F928F838F5E968C915E9721
:10133000848F5F964C915F9790962C9190979196A1
:101340009C91919792968C919297458F268F978F2B
:1013500080A393964C91939794962C9194979596FD
:101360009C91959796968C91969741A322A393A3CF
:1013700084A397968C91979785A398968C9198972C
:1013800086A399968C91999787A39A968C919A9710
:1013900080A79B968C919B9781A79C968C919C97FC
:1013A00082A79D968C919D9783A79E968C9184A7EA
:1013B0008DE290E00895FB012081FC01228381E011
:1013C00090E00895FC018281FB01808381E090E040
:1013D0000895FB0120813181FC013383228382E067
:1013E00090E008950F931F93CF93DF938C01EC014E
:1013F0002696CE01EEDFD8011A96ED91FC91CE0132
:10140000DF91CF911F910F911994FC01228183816B
:10141000FB012083818382E090E0089590E080E0EA
:10142000089582E095E0089583E295E0089582E3CF
:1014300095E008954F925F926F927F928F929F9264
:10144000AF92BF92EF92FF920F931F93CF93DF93D0
:1014500000D01F92CDB7DEB77C018B01CE01019683
:101460009DDD89819A81AB81BC814C015D0124E0C5
:10147000820E911CA11CB11CA8014D5F5F4FFA01A7
:1014800024E030E02901712C612C481459046A04CD
:101490007B0428F4618161932F5F3F4FF3CFF80104
:1014A000E80FF91F1382F7015383428304960F90CC
:1014B0000F900F900F90DF91CF911F910F91FF90A0
:1014C000EF90BF90AF909F908F907F906F905F90C4
:1014D0004F900895FC01DB018C91828311968D91D0
:1014E0009C9112979483838313964D915D916D9196
:1014F0007C911697458356836783708717968D91E5
:101500009D910D90BC91A02D81879287A387B48770
:101510008BE090E008950F931F93CF93DF938C019E
:10152000EC012696CE01D6DFD8015396ED91FC91C1
:10153000CE01DF91CF911F910F911994DC01FB0136
:1015400012968C911297808313969C911397149600
:101550008C9114979183828315963C9115971696DA
:101560002C91169717969C91179718968C9118970F
:10157000338324839583868319963C9119971A9611
:101580002C911A971B969C911B971C968C913783D4
:101590002087918782878BE090E0089583E595E02E
:1015A000089584E795E008958DE895E008958EEA22
:1015B00095E008954F925F926F927F928F929F92E3
:1015C000AF92BF92EF92FF920F931F93CF93DF934F
:1015D00000D01F92CDB7DEB77C018B01FB0180816B
:1015E00090E0B0E0A0E0F70182839383A483B58309
:1015F000FB012181922BF70182839383A483B5831E
:10160000FB012281A22BF70182839383A483B583FC
:10161000FB012381B22BF70182839383A483B583DB
:10162000FB01848190E0B0E0A0E0F701868397831E
:10163000A087B187FB012581922BF70186839783D1
:10164000A087B187FB012681A22BF70186839783B0
:10165000A087B187FB012781B22BF701868397838F
:10166000A087B187FB01808590E0B0E0A0E0F701A2
:1016700082879387A487B587FB012185922BF70189
:1016800082879387A487B587FB012285A22BF70168
:1016900082879387A487B587FB012385B22BF70147
:1016A00082879387A487B587645F7F4FCE010196B9
:1016B00075DC89819A81AB81BC814C015D01F0E1CF
:1016C0008F0E911CA11CB11CA801415F5F4FFA0154
:1016D00020E130E02901712C612C481459046A047E
:1016E0007B0428F4618161932F5F3F4FF3CFF801B2
:1016F000E80FF91F1786F7015787468740960F9026
:101700000F900F900F90DF91CF911F910F91FF904D
:10171000EF90BF90AF909F908F907F906F905F9071
:101720004F9008954F925F926F927F928F929F9207
:10173000AF92BF92EF92FF920F931F93CF93DF93DD
:1017400000D000D01F921F92CDB7DEB77C018B0175
:10175000029630DF5C01B801680F791FCE01019657
:101760001DDCB5016C5F7F4F89819A81AB81BC81A3
:101770008D839E83AF83B8874B01072E000CAA0888
:10178000BB08880E991EAA1EBB1EF801E60FF71FA4
:101790002F01401A510A712C612C481459046A0413
:1017A0007B0438F441919F0122503109D9014C93B7
:1017B000EFCF8D819E81860F971FF801E80FF91FEB
:1017C0003197108261507109600F711FF701738B9F
:1017D000628B28960FB6F894DEBF0FBECDBFDF91A7
:1017E000CF911F910F91FF90EF90BF90AF909F907E
:1017F0008F907F906F905F904F900895AB01FC01A8
:10180000A681B78164817581ED91FC91119701905A
:10181000F081E02DCD0119940F931F93CF93DF93A7
:10182000EC01FB01808188878E01075F1F4FEF89E4
:10183000F88DB801CE0106961995B801CE010D9626
:10184000DF91CF911F910F91D9CF8EEB95E0089545
:1018500084E192E008958FED95E0089580E096E0B0
:1018600008954F925F926F927F928F929F92AF9264
:10187000BF92EF92FF920F931F93CF93DF9300D00D
:101880001F92CDB7DEB77C018B01FB018191BF01B7
:10189000F7018283CE01019681DB89819A81AB8138
:1018A000BC814C015D01F5E08F0E911CA11CB11CA7
:1018B000A8014C5F5F4FFA0125E030E02901712C4F
:1018C000612C481459046A047B0428F461816193F3
:1018D0002F5F3F4FF3CFF801E80FF91F1482F70194
:1018E0005483438305960F900F900F900F90DF91D4
:1018F000CF911F910F91FF90EF90BF90AF909F906D
:101900008F907F906F905F904F90089583E196E065
:10191000089584E396E008954F925F926F927F92CC
:101920008F929F92AF92BF92CF92DF92EF92FF92EF
:101930000F931F93CF93DF93CDB7DEB72C970FB6DE
:10194000F894DEBF0FBECDBF7C018B01DB018C9113
:1019500090E0F7019383828311962C91922B9383CD
:1019600082836E5F7F4FCE01019618DB89809A805B
:10197000AB80BC8024013501F6E04F0E511C611C88
:10198000711C98012B5F3F4FF90186E090E0AC019C
:1019900070E060E0441555056605770520F4418147
:1019A00041930196F4CFB4016A5F7F4FF801E80DCF
:1019B000F91D1582D70115963C932E931497600F4D
:1019C000711FCE010596EADABAE08B0E911C4D80AC
:1019D0005E806F807884C401092C000CAA0BBB0BBD
:1019E0005C016D01A40CB51CC61CD71CF801E80DE8
:1019F000F91DAF01401B510B70E060E04A155B051B
:101A00006C057D0538F42191AF0142505109DA018E
:101A10002C93EFCF480C591CB801640D751DFB01C8
:101A200031971082C4010197800F911FF7019783AE
:101A30008683CE010996B2DA92012C5F3F4F8984EA
:101A40009A84AB84BC84A901032E000C660B770B2F
:101A5000480D591D6A1D7B1DF801E20FF31FCF01D0
:101A6000801B910BB0E0A0E084179507A607B7078D
:101A700028F48191DF0112978C93F1CFC901880D71
:101A8000991DF801E80FF91FDF0111971C922150F1
:101A90003109020F131FD70119961C930E93189743
:101AA0002181428150E070E060E0BA01552744276F
:101AB000522B2081422B2381722BF70142875387BF
:101AC0006487758704962C960FB6F894DEBF0FBE18
:101AD000CDBFDF91CF911F910F91FF90EF90DF90DD
:101AE000CF90BF90AF909F908F907F906F905F90BE
:101AF0004F9008958DE496E008958EE696E008955F
:101B0000FC01DB014C9150E070E060E042835383C4
:101B10006483758311968C911197582B428353835C
:101B20006483758312968C911297682B428353833A
:101B30006483758313968C911397782B4283538318
:101B40006483758314964C91149750E070E060E0C4
:101B5000468357836087718715968C911597582B0C
:101B6000468357836087718716968C911697682BEA
:101B7000468357836087718717968C91782B4683AD
:101B800057836087718788E090E00895DC01FB014E
:101B900012968C911297808313968C911397818360
:101BA00014968C911497828315968C911597838344
:101BB00016968C911697848317968C911797858328
:101BC00018968C911897868319968C91878388E054
:101BD00090E008958EBD00000DB407FEFDCF8EB5D8
:101BE0000895CF92DF92EF92FF920F931F93CF93BE
:101BF000DF937C0160E0FC0180810E94BA0480E6F2
:101C0000E9DF80E0E7DFC82F80E0E4DFC82E80E076
:101C1000E1DF082F80E0DEDFD82F61E0F70180816F
:101C20000E94BA046C2F70E090E080E0962F882725
:101C300077276627D12CF12CE12C7601DD24CC24EA
:101C40006C0D7D1D8E1D9F1D10E030E020E0322FB9
:101C5000212F102F0027600F711F821F931F6D0F00
:101C6000711D811D911DDF91CF911F910F91FF90EB
:101C7000EF90DF90CF900895CF93DF93EC0160E079
:101C800088810E94BA0488E9A5DF80E0A3DF80E0B4
:101C9000A1DF80E09FDF80E09DDF61E088810E941E
:101CA000BA0460E088810E94BA0480EE93DF61E0AC
:101CB0008881DF91CF910C94BA0487E290E1DCDF58
:101CC00085E290E1D9CFFC0180819181009711F0EC
:101CD0000C948F2D0895EFE0F0E14481558170E080
:101CE00060E0818592850C94052FF5DF0C94480502
:101CF000CF92DF92EF92FF920F931F93CF93DF93D8
:101D0000EC018B0169017A01E6DF0C171D0784F0F5
:101D10008091111090911210C817D90728F4B701BB
:101D2000A601CE010E9433020E9448052196EDCF04
:101D3000DF91CF911F910F91FF90EF90DF90CF90A7
:101D400008950F931F93E091F507F091F607E130A6
:101D5000F105C9F0E230F105B9F1EF2B89F4C8DFE4
:101D60000E9420066093F1077093F2078093F307B7
:101D70009093F40781E090E09093F6078093F50745
:101D80001F910F9108950E9420060091F107109174
:101D9000F2072091F3073091F407601B710B820B5F
:101DA000930B643671058105910550F39EDF0E9407
:101DB00020066093F1077093F2078093F3079093E6
:101DC000F40782E090E0D8CF0E9420060091F1074E
:101DD0001091F2072091F3073091F407601B710B0B
:101DE000820B930B643671058105910548F21092C0
:101DF000F6071092F507C4CF0F931F93CF93DF938D
:101E00008C01EB018091EF079091F00781309105F3
:101E100009F454C03CF4892B01F1DF91CF911F915B
:101E20000F9108958230910509F46AC00397A9F7CC
:101E30000E9420060091EB071091EC072091ED071E
:101E40003091EE07601B710B820B930B643F714066
:101E50008105910508F068C0E0CF0E9420066093DC
:101E6000EB077093EC078093ED079093EE0780915A
:101E7000E9079091EA079C012F5F3F4F3093EA07F3
:101E80002093E907039764F083E090E09093F007D4
:101E90008093EF072ADF1092EA071092E907BDCF7F
:101EA00020E03FEF4FEF50E0BE01C80121DF81E0AD
:101EB00090E09093F0078093EF07AFCF0E94200649
:101EC0000091EB071091EC072091ED073091EE07A0
:101ED000601B710B820B930B6436710581059105B4
:101EE00008F49BCF02DF0E9420066093EB077093FB
:101EF000EC078093ED079093EE0782E090E0D9CF56
:101F00000E9420060091EB071091EC072091ED074D
:101F10003091EE07601B710B820B930B64367105D9
:101F20008105910508F479CF1092F0071092EF0720
:101F300074CFCF93DF932091580730915907223007
:101F4000310509F45BC02330310509F489C0232B26
:101F5000F9F4029771F5BFDE8091CB0781111CC0A7
:101F600087E090E0909357078093560710925507AB
:101F700010925407809156079091570790935307FA
:101F80008093520782E090E090935907809358071E
:101F900080E0DF91CF91089587E190E0909357071B
:101FA0008093560780E190E0909355078093540703
:101FB000E1CF91DE8091CB07811117C088E090E0DE
:101FC00090935707809356078FE090E090935507C2
:101FD0008093540780915607909157079093530729
:101FE0008093520783E090E0CFCF88E190E0909318
:101FF0005707809356078FE190E0E8CFC0915207D2
:10200000D09153078091111090911210C817D907E1
:1020100038F440E05FE76FEF70E0CE010E943302DA
:102020000E944805CE010197909353078093520771
:1020300080915407909155078C179D070CF4A8CFF9
:1020400080915607909157079093530780935207BA
:1020500042DE0E944805109259071092580798CF07
:10206000C0915207D0915307809111109091121096
:10207000C817D90738F440E05FE76FEF70E0CE0192
:102080000E9433020E944805CE01019690935307A7
:10209000809352078091540790915507C817D9072C
:1020A0000CF476CFCDCFFC0101900020E9F73197F9
:1020B000AF01481B590BBC0187ED99E00C94D60287
:1020C0008F929F92AF92BF920F931F93CF93DF9304
:1020D000CDB7DEB7A1970FB6F894DEBF0FBECDBF68
:1020E00019A2423008F44AE08E010F5D1F4F842E82
:1020F000912CB12CA12CA50194010E94C92CE62F92
:10210000B901CA01EA30ECF4E05DD801EE938D012B
:10211000232B242B252B79F790E080E0109711F0EA
:10212000CD01C1DFA1960FB6F894DEBF0FBECDBFC3
:10213000DF91CF911F910F91BF90AF909F908F90A3
:102140000895E95CE2CF0F931F93CF93DF93EC01E7
:1021500088819981009759F02A813B81261737079A
:1021600030F081E0DF91CF911F910F9108958B01A5
:102170006F5F7F4F0E94182E009759F099838883D4
:102180001B830A832C813D81232B59F7FC0110828C
:10219000E8CF80E0E7CFEF92FF920F931F93CF93AA
:1021A000DF93EC017B018A01BA01CDDF28813981FF
:1021B000811114C02115310519F0C9010E948F2D1C
:1021C000198218821D821C821B821A82CE01DF9125
:1021D000CF911F910F91FF90EF9008951D830C8375
:1021E000B701C9010E94152FF1CFCF93DF931F9242
:1021F0001F92CDB7DEB7FC011182108213821282CA
:102200001582148269831A82BE016F5F7F4FFB01C2
:1022100001900020E9F73197AF01461B570BBBDF58
:102220000F900F90DF91CF910895AF92BF92CF9210
:10223000DF92EF92FF920F931F93CF93DF93EC0106
:102240008B010296B7D9F801E80FF91F208131817F
:10225000C280D12CF12CE12C7601DD24CC24D32AB0
:10226000C22A2381F22A5C0124E0A20EB11C8A89D1
:102270009B89AC89BD898C159D05AE05BF0538F4D9
:10228000B6018F89988D0E94182E988F8F8BCA8ADD
:10229000DB8AEC8AFD8AF801EA0DFB1D40E050E084
:1022A000BA01CF01801B910BCA88DB88EC88FD88BE
:1022B0004C155D056E057F0560F481918E8BAF89AD
:1022C000B88DA40FB51F8C934F5F5F4F6F4F7F4F3B
:1022D000E8CFDF91CF911F910F91FF90EF90DF90AA
:1022E000CF90BF90AF900895EF92FF920F931F93FE
:1022F000CF93DF937C018B01DC011296ED91FC9171
:10230000EF0109900020E9F72197CE1BDF0BAE010A
:1023100070E060E0C8010E94FF07F70162817381ED
:10232000AE01C80104960E94FC2ECE010496DF91F6
:10233000CF911F910F91FF90EF900895EF92FF9230
:102340000F931F93CF93DF938C01EB01FC018281EC
:1023500088838381898384818A8385818B83868135
:102360008C8387818D8380858E8381858F83828511
:1023700088878385898784858A8785858B87A685D5
:10238000B785FD0101900020E9F731977F01EA1A36
:10239000FB0AA70170E060E0CE010C960E94FF07E7
:1023A000F80166857785A701CE0140960E94FC2E34
:1023B000C7014096DF91CF911F910F91FF90EF9051
:1023C0000895CF92DF92EF92FF920F931F93CF93D6
:1023D000DF936C017B010296B1DF8C01D60152962E
:1023E000ED91FC91EF0109900020E9F72197CE1BB8
:1023F000DF0BAE0170E060E0C701800F911F0E940B
:10240000FF070C5F1F4FF60162897389AE01C70198
:10241000800F911F0E94FC2ECE01800F911FDF9133
:10242000CF911F910F91FF90EF90DF90CF90089583
:10243000CF92DF92EF92FF920F931F93CF93DF9390
:10244000EC018B0102967ADFF801E80FF91F2A8967
:1024500020832B8921832C8922832D892383049631
:10246000F801E80FF91F40E050E0BA01CF01801BEE
:10247000910BCA88DB88EC88FD884C155D056E05DC
:102480007F0558F4AF89B88DA40FB51F8C91819347
:102490004F5F5F4F6F4F7F4FE9CFDF91CF911F911C
:1024A0000F91FF90EF90DF90CF9008952F923F9281
:1024B0004F925F926F927F928F929F92AF92BF9254
:1024C000CF92DF92EF92FF920F931F93CF93DF9300
:1024D000CDB7DEB72E970FB6F894DEBF0FBECDBFD7
:1024E0008C016B01DB018D909D90AD90BC90FC0147
:1024F00082819381A481B58188159905AA05BB05C0
:1025000070F4B401660F771F660F771F828593857D
:102510000E94182ED8011B969C938E931A97F8014F
:1025200082829382A482B582C60140E050E0BA0163
:10253000A4E0EA2EF12C98012A5F3F4FDC011596AA
:10254000EC91159716964C901697512C712C612C86
:102550003201552444245E2A1496EC9114974E2A95
:102560001796EC917E2AD7011701E4E02E0E311C5C
:1025700071010496F80182809380A480B58048158B
:1025800059056A057B05A8F44682578260867186E4
:102590001497A284B384AA0DBB1DE4E0BE2EF901FA
:1025A00001900D92BA94E1F74F5F5F4F6F4F7F4FED
:1025B000C5CF84859585A685B78584159505A6051F
:1025C000B70570F4B201660F771F660F771F848915
:1025D00095890E94182ED80155969C938E935497F6
:1025E000F8014486558666867786C601820D931D5E
:1025F000412C512C32011C019801205F3F4FDC011E
:1026000011966C91119712968C901297912CB12C77
:10261000A12C540199248824962A6C91862A139619
:102620006C91B62AB4E0EB0EF11CF8014485558597
:10263000668577854416550666067706C0F4808A57
:10264000918AA28AB38ABC0162197309A489B589E7
:10265000A60FB71F64E0F90101900D926A95E1F7AA
:10266000BFEF4B1A5B0A6B0A7B0A0496C8CF8689B8
:102670009789A08DB18D88159905AA05BB0560F4D1
:10268000B401660F771F848D958D0E94182ED80196
:102690005D969C938E935C97F801868A978AA08EAC
:1026A000B18E412C512C32011801FAE12F0E311C50
:1026B000F80186899789A08DB18D481659066A065A
:1026C0007B0608F05CC0B6016E0D7F1DCE01019641
:1026D0000E94CE0797012C5F3F4F3E872D87898050
:1026E0009A80AB80BC80C901032E000CAA0BBB0BE7
:1026F000AC01BD01480D591D6A1D7B1D49875A87D4
:102700006B877C87F901EC0DFD1D9F012C193D099C
:10271000B90190E080E029853A854B855C85621798
:1027200073078407950728F42191DF0112972C93F2
:10273000ECCFED84FE84E80CF91CF601EE0DFF1DD4
:10274000319710828D859E8501978C0D9D1DD80136
:102750005B969C938E935A97C201880F991F5C9643
:10276000ED91FC91E80FF91FD1018D919C9191831E
:102770008083BFEF4B1A5B0A6B0A7B0A99CFC701B4
:102780002E960FB6F894DEBF0FBECDBFDF91CF916E
:102790001F910F91FF90EF90DF90CF90BF90AF907F
:1027A0009F908F907F906F905F904F903F902F9071
:1027B00008952F923F924F925F926F927F928F92E5
:1027C0009F92AF92BF92CF92DF92EF92FF920F93C0
:1027D0001F93CF93DF93CDB7DEB7A6970FB6F894CC
:1027E000DEBF0FBECDBF8C010E9420064B015C01F5
:1027F000980125573B4F3E8B2D8BF90180819181AC
:10280000A281B38175016401C81AD90AEA0AFB0AD8
:10281000D701C601893F9A42A105B10510F035974D
:102820001082180134E8231A3BEF330AD1018D914D
:102830009C91892B79F0F801E157FB4F80819181C0
:10284000A281B38188159905AA05BB0518F4F10189
:102850001182108298012C573B4F3A8B298BA8018B
:1028600040585B4F5C8B4B8BC8014896988F8F8B81
:10287000D801AA57BB4FBC8FAB8FF801EC56FB4F6A
:10288000FE8FED8F215F3F4F38A32F8F42505109AC
:10289000588B4F8786599B4F9A8F898F1996BAA369
:1028A000A9A3A50194012C5E3F4F4F4F5F4F2BA36F
:1028B0003CA34DA35EA3F80184899589A689B789B5
:1028C000892B8A2B8B2BB9F5D80112968D919C916F
:1028D000DC01ED91FC910284F385E02D19959C01BA
:1028E00097FF3DC0F801EA57FB4F8081882301F133
:1028F0007801B9E7EB1ABBEFFB0AF7018081918100
:10290000A281B381A5019401281B390B4A0B5B0BF3
:10291000DA01C901853C9940A105B10548F0C8011B
:102920000E949907D7018D929D92AD92BC92139708
:1029300090E080E0B6C10E942006681979098A09F2
:102940009B09F801C488D588E688F788C616D7069B
:10295000E806F90608F0B8CF8EEF9FEFA2C1A9896B
:10296000BA898D919C911197820F931F8D939C939F
:10297000F1014081518147305105F9F4A98DBA8D9B
:102980008D919C911197AC014F5F5F4F4D935C937C
:10299000800F911FFC01208FAF85B8898D919C918C
:1029A000119701978D939C93892B09F084CF88E030
:1029B00090E0F101918380837ECF4115510521F58F
:1029C0002F3F310581F481E090E091838083CBA09B
:1029D000DCA0EDA0FEA0A9A1BAA1CD92DD92ED925E
:1029E000FC92139768CF0E942006681979098A091A
:1029F0009B09693873418105910508F45CCFF801A2
:102A0000EA57FB4F1082A8CF4130510589F42E3F81
:102A1000310519F482E090E0CCCF11821082EB8D69
:102A2000FC8D8081811147CFC8010E94990743CF57
:102A30004230510591F4AF85B8892D933C93E98DCF
:102A4000FA8D1182108283E090E0D1018D939C93E6
:102A5000E989FA89318320832ECF4330510571F4FF
:102A6000322F2227AF85B8898D919C911197280F1D
:102A7000391F2D933C9384E090E09BCF4430510567
:102A800079F460E071E00E94B62C8F3F910529F443
:102A900085E090E0918380830ECF118210820BCF6E
:102AA0004530510569F4AB89BC892D933C9386E090
:102AB00090E091838083A989BA892D933C93FBCEC2
:102AC00046305105A1F4322F2227EB89FC89808101
:102AD0009181280F391F3183208387E090E0D10155
:102AE0008D939C93EF85F889808191815DCF4830EB
:102AF000510509F0E0CE1182108260E071E00E9481
:102B0000B62C8F3F910509F0D6CEAB89BC89ED91EB
:102B1000FC91309709F0DEC0C8010E94990784E358
:102B200092E09A8389831C821B828CE097E09E83CB
:102B30008D8398878F839A8789871B861C861D863D
:102B40001E866801B8EECB1ABBEFDB0A7801E6EB14
:102B5000EE1AEBEFFE0A412C22E0522E612C712C72
:102B6000D601ED91FC913097A9F1848195819C83E8
:102B70008B83808191819E838D8382819381DC010F
:102B8000ED91FC910480F581E02D199598878F8354
:102B9000D601ED91FC9182819381DC01ED91FC9154
:102BA0000680F781E02D19959A8789874B865C8688
:102BB0006D867E86D601ED91FC9160857185D80188
:102BC000ED91FC910190F081E02DAE014F5F5F4FE0
:102BD000C8011995B2E0CB0ED11CEC14FD0409F02C
:102BE000BFCF412C92E0592E612C712CF701A081AE
:102BF000B1811097E1F112968D919C9113979C836E
:102C00008B8314968D919C9115979E838D83ED9166
:102C1000FC9111970480F581E02DCD0119959887DD
:102C20008F83D7018D919C91DC01ED91FC91068001
:102C3000F781E02D19959A8789874B865C866D868A
:102C40007E86D801ED91FC91C080D180F701808112
:102C50009181DC01ED91FC910280F381E02D1995C9
:102C6000AE014F5F5F4FBC01C801F6011995F2E05C
:102C7000EF0EF11CE214F30409F0B8CFF801EA57A3
:102C8000FB4F81E08083319680829182A282B38261
:102C9000AD89BE898D929D92AD92BC9213978FEFB4
:102CA0009FEFA6960FB6F894DEBF0FBECDBFDF91A3
:102CB000CF911F910F91FF90EF90DF90CF90BF9039
:102CC000AF909F908F907F906F905F904F903F90CC
:102CD0002F900895EA30F10509F0A1C080E492E058
:102CE0009A8389831B821C821D821E821F82188602
:102CF00019861A860E942006F801C084D184E284D5
:102D0000F3849B01AC012C193D094E095F0969014F
:102D10007A016F89788DCE0101960E94800DC701DE
:102D2000B60128EE33E040E050E00E94C92C690172
:102D30007A019B01AC018B819C81AD81BE818C0DA0
:102D40009D1DAE1DBF1D8B839C83AD83BE8360E440
:102D500072E48FE090E00E94932CCF80D884E984C5
:102D6000FA84DC01CB018C0D9D1DAE1DBF1D8F8330
:102D70009887A987BA870E942006CF80D884E984E3
:102D8000FA8436E3D31A35E6E30A34ECF30A28EE84
:102D900033E040E050E00E94C92C29013A019B0138
:102DA000AC0160E472E48FE090E00E94932CA701F4
:102DB0009601261B370B480B590BCA01B9012B8111
:102DC0003C814D815E8121503109410951096901E0
:102DD0007A01C418D508E608F7082601370120E073
:102DE0003AEC4AE95BE30E94C92C420E531E641E72
:102DF000751ED8011C964D925D926D927C921F9724
:102E0000F801608B718B828B938B0E942006AD89B9
:102E1000BE896D937D938D939C9313974CCDE63033
:102E2000F10551F46F89788D8D8D9E8D3FDB81E0AA
:102E3000EF8DF8A180833FCDEB30F10521F4AB8D10
:102E4000BC8D1C9238CDEF53FE4FEE0FFF1FE00FED
:102E5000F11F80819181009709F42DCDDC01ED9166
:102E6000FC910190F081E02D6F89788D199523CD2B
:102E70004F925F926F927F928F929F92AF92BF928A
:102E8000CF92DF92EF92FF920F931F93CF93DF9336
:102E9000EC017B018A81FB0180838B8181838C81A2
:102EA00082838D8183833496412C512C320104E03E
:102EB00010E09F012F5F3F4FCF010296DF01139675
:102EC000A8010C5F1F4F8A809B80AC80BD80481496
:102ED00059046A047B04C8F4AA85BB85A40FB51FF6
:102EE00014974C9111962C91119712969C911297D0
:102EF00013968C9140832183928383838FEF481AAA
:102F0000580A680A780A3496D4CF4C8540834D8598
:102F1000F90140832E85FC0120838F858C93F70176
:102F2000E00FF11F412C512C3201AF019F012F5FA7
:102F30003F4FCF010296DF0113960C5F1F4F8C8429
:102F40009D84AE84BF84481459046A047B04D8F479
:102F5000CF01841B950BAC89BD89A80FB91F3C918B
:102F600011962C91119712969C91129713968C9111
:102F700030832183928383838FEF481A580A680A2B
:102F8000780A3496D3CF4E8940834F89F901408324
:102F9000288DFC012083898D8C93412C512C32018A
:102FA0008E899F89A88DB98D481659066A067B06B9
:102FB00080F55201AA0CBB1CEC8DFD8DEA0DFB1DAA
:102FC000A081B181FD0101900020E9F731976F01E7
:102FD000CA1ADB0AA60170E060E0C701800F911FEA
:102FE0000E94FF070C5F1F4F8C8D9D8DA80EB91E90
:102FF000F50160817181A601C701800F911F0E94B8
:10300000FC2E0C0D1D1DFFEF4F1A5F0A6F0A7F0A81
:10301000C7CFC801DF91CF911F910F91FF90EF9023
:10302000DF90CF90BF90AF909F908F907F906F90E8
:103030005F904F900895EF92FF920F931F93CF935D
:10304000DF938C017B01DC0112962C911297FB011E
:103050002193CF011396ED91FC91EF01099000208F
:10306000E9F72197CE1BDF0BAE0170E060E00E9414
:10307000FF07D80113966D917C91AE01C7010596AB
:103080000E94FC2ECE010596DF91CF911F910F91EA
:10309000FF90EF900895CF92DF92EF92FF920F93FF
:1030A0001F93CF93DF936C01EB01DC0112968C919F
:1030B0001297888313968C91139789831496ED91B8
:1030C000FC91DF010D900020E9F78D0101501109FD
:1030D0000E1B1F0BA80170E060E0CE0102960E945B
:1030E000FF07F60164817581A801CE0106960E9452
:1030F000FC2EC8010696F601A681B781FD0101905C
:103100000020E9F731977F01EA1AFB0AA70170E076
:1031100060E08C0F9D1F0E94FF07065F1F4FD601C6
:1031200016966D917C91A701CE01800F911F0E9490
:10313000FC2E0E0D1F1DF601A085B185FD0101902D
:103140000020E9F731977F01EA1AFB0AA70170E036
:1031500060E0CE01800F911F0E94FF070C5F1F4FA0
:10316000D60118966D917C91A701CE01800F911F19
:103170000E94FC2EC701800F911FF60162854385D6
:1031800034852585C80FD91F688349833A832B83EB
:103190000496DF91CF911F910F91FF90EF90DF90F8
:1031A000CF9008951F920F920FB60F9211240BB675
:1031B0000F922F933F934F935F936F937F938F93D0
:1031C0009F93AF93BF93EF93FF9387EF97E00E9496
:1031D0007D03FF91EF91BF91AF919F918F917F916F
:1031E0006F915F914F913F912F910F900BBE0F9078
:1031F0000FBE0F901F9018951F920F920FB60F924F
:1032000011240BB60F922F933F934F935F936F93BD
:103210007F938F939F93AF93BF93EF93FF9387EF2A
:1032200097E00E940303FF91EF91BF91AF919F91AF
:103230008F917F916F915F914F913F912F910F905F
:103240000BBE0F900FBE0F901F9018951F920F92FC
:103250000FB60F9211240BB60F922F933F934F93FB
:103260005F936F937F938F939F93AF93BF93EF93EE
:10327000FF9384E998E00E947D03FF91EF91BF9155
:10328000AF919F918F917F916F915F914F913F91FE
:103290002F910F900BBE0F900FBE0F901F9018959F
:1032A0001F920F920FB60F9211240BB60F922F930D
:1032B0003F934F935F936F937F938F939F93AF93BE
:1032C000BF93EF93FF9384E998E00E940303FF917B
:1032D000EF91BF91AF919F918F917F916F915F918E
:1032E0004F913F912F910F900BBE0F900FBE0F90FB
:1032F0001F9018951F920F920FB60F9211240BB6C4
:103300000F922F933F934F935F936F937F938F937E
:103310009F93AF93BF93EF93FF9381E399E00E9454
:103320007D03FF91EF91BF91AF919F918F917F911D
:103330006F915F914F913F912F910F900BBE0F9026
:103340000FBE0F901F9018951F920F920FB60F92FD
:1033500011240BB60F922F933F934F935F936F936C
:103360007F938F939F93AF93BF93EF93FF9381E3EB
:1033700099E00E940303FF91EF91BF91AF919F915C
:103380008F917F916F915F914F913F912F910F900E
:103390000BBE0F900FBE0F901F9018951F920F92AB
:1033A0000FB60F9211240BB60F922F933F934F93AA
:1033B0005F936F937F938F939F93AF93BF93EF939D
:1033C000FF9387ED99E00E947D03FF91EF91BF91FC
:1033D000AF919F918F917F916F915F914F913F91AD
:1033E0002F910F900BBE0F900FBE0F901F9018954E
:1033F0001F920F920FB60F9211240BB60F922F93BC
:103400003F934F935F936F937F938F939F93AF936C
:10341000BF93EF93FF9387ED99E00E940303FF9121
:10342000EF91BF91AF919F918F917F916F915F913C
:103430004F913F912F910F900BBE0F900FBE0F90A9
:103440001F9018951F920F920FB60F9211242F9371
:103450003F938F939F93AF93BF9380915B0790911E
:103460005C07A0915D07B0915E0730915A0723E099
:10347000230F2D3758F50196A11DB11D20935A0732
:1034800080935B0790935C07A0935D07B0935E0702
:1034900080915F0790916007A0916107B0916207EA
:1034A0000196A11DB11D80935F0790936007A093C3
:1034B0006107B0936207BF91AF919F918F913F9148
:1034C0002F910F900FBE0F901F90189526E8230F95
:1034D0000296A11DB11DD2CF1F920F920FB60F926F
:1034E00011248F939F9388EE93E09093A50080938F
:1034F000A4009F918F910F900FBE0F901F90189571
:103500001F920F920FB60F9211248F939F9385E015
:103510009FEF90939500809394009F918F910F90CF
:103520000FBE0F901F9018951F93CF93DF93EC0160
:10353000862F6883798361E00E94E70461E08881D7
:103540000E94BA041FB7F89480915007811127C0D8
:10355000EDEEF2E08491EDE8F2E09491E82FF0E0F6
:10356000EE0FFF1FE252FE4FA591B491EC91E923BB
:1035700021F461E085E30E94BA0461E085E30E94E2
:10358000E7048CB580618CBD8CB580648CBD61E036
:1035900084E30E94E70461E083E30E94E7048091F2
:1035A00050078F5F809350071FBF60E088810E94A3
:1035B000BA0488E80E94EA0D83E00E94EA0D61E007
:1035C00088810E94BA0460E088810E94BA0488E879
:1035D0000E94EA0D80E00E94EA0D61E088810E946D
:1035E000BA0460E088810E94BA0488E80E94EA0D6B
:1035F00080E00E94EA0D61E088810E94BA0460E0E8
:1036000088810E94BA0488E80E94EA0D80E00E9446
:10361000EA0D61E088810E94BA0460E088810E941E
:10362000BA0488E80E94EA0D80E80E94EA0D61E091
:1036300088810E94BA0460E088810E94BA0480E90F
:103640000E94EA0D80E00E94EA0D61E088810E94FC
:10365000BA0460E088810E94BA0480E90E94EA0D01
:1036600080E00E94EA0D61E08881DF91CF911F9197
:103670000C94BA041092FA071092F90748EE53E03E
:1036800060E070E04093FB075093FC076093FD07F8
:103690007093FE078AE692E09093F8078093F7070D
:1036A00025E331E0309304082093030824E331E05C
:1036B000309306082093050820E331E03093080892
:1036C0002093070821E331E030930A08209309088A
:1036D00022E331E030930C0820930B0826E331E01D
:1036E00030930E0820930D081092100810921108C4
:1036F00010921208109213081092970810929608D0
:10370000409398085093990860939A0870939B0887
:10371000909395088093940825ED30E03093A108AC
:103720002093A00824ED30E03093A3082093A20852
:1037300020ED30E03093A5082093A40821ED30E07F
:103740003093A7082093A60822ED30E03093A90813
:103750002093A80826ED30E03093AB082093AA0808
:103760001092AD081092AE081092AF081092B008F7
:103770001092340910923309409335095093360959
:103780006093370970933809909332098093310917
:103790002DEC30E030933E0920933D092CEC30E0D5
:1037A0003093400920933F0928EC30E030934209E0
:1037B0002093410929EC30E03093440920934309D8
:1037C0002AEC30E030934609209345092EEC30E096
:1037D000309348092093470910924A0910924B09E7
:1037E00010924C0910924D091092DA091092D909E1
:1037F0004093DB095093DC096093DD097093DE0987
:103800009093D8098093D70985EC90E09093E409D0
:103810008093E30984EC90E09093E6098093E509B6
:1038200080EC90E09093E8098093E70981EC90E0C8
:103830009093EA098093E90982EC90E09093EC0977
:103840008093EB0986EC90E09093EE098093ED096C
:103850001092F0091092F1091092F2091092F309F6
:10386000AEECB9E090E080E021E2E1E0F0E086300B
:10387000910510F4F0E0E0E0AC01425F5F4FE40F2F
:10388000F51F20935700E491ED930196893091053F
:1038900061F765E370E087E290E146DE61E370E0A6
:1038A00085E290E141DE10921010109217101092F4
:1038B0001E1010921F10109220101092211081E003
:1038C00080931D1080931A1010921B1092E0909319
:1038D0001C1080930F1080E690E09093141080935A
:1038E00013100E94F32C90931910809318100097D6
:1038F00009F48FC220E6FC0111922A95E9F780E2D3
:1039000090E090931210809311108DE190E09093CD
:1039100016108093151080911010882341F061E0FB
:103920008DE10E94E70460E08DE10E94BA04E5EDBC
:10393000F2E0E491F0E0EE0FFF1FE256FD4F8591BB
:1039400094919093231080932210E5E7F2E0E491A4
:10395000E093241086EE92E09093F70F8093F60F99
:103960008AED92E09093FD0F8093FC0F1092FE0F72
:103970008EEC92E0909300108093FF0F8CE097E024
:1039800090930210809301108CE796E090930410BE
:10399000809303102FEF3FE0309306102093051023
:1039A00022E030E030930C1020930B109093FB0F2B
:1039B0008093FA0F8BE198E090930E1080930D1096
:1039C00084EC92E09093450B8093440B87ED99E053
:1039D0009093470B8093460B80E091EEA0E0B0E01F
:1039E0008093480B9093490BA0934A0BB0934B0BD9
:1039F0001092CA0F88EB92E09093D90F8093D80F62
:103A00001092EE0F1092EF0F1092F00F1092F10F34
:103A10001092F50F1092F40FECE5FFE08EE89FE0B6
:103A2000119211928E179F07D9F7EEE8FFE01192DD
:103A300011928FE0E03CF807D1F7ECE5FBE0119242
:103A40008DE0EC35F807D9F7ECE5FDE011928FE059
:103A5000EC35F807D9F71092DA0F1092DB0F1092BD
:103A6000DC0F1092DD0F1092E30F1092E20F109214
:103A7000E40F1092E50F1092E60F1092E70F1092EC
:103A8000ED0F1092EC0F1092580B1092590B1092F0
:103A90005A0B10925B0B82E593E090932E0B809370
:103AA0002D0B8CEA92E09093340B8093330B1092A1
:103AB000350B1092370B1092360B1092380B109278
:103AC000390B10923A0B10923B0B10923C0B109258
:103AD0003D0B10923E0B10923F0B8CE296E09093C0
:103AE000410B8093400B81E090E09093430B8093D7
:103AF000420B2CE836E03093320B2093310B46E436
:103B000053E05093220B4093210B2AE333E0309390
:103B1000280B2093270B6AE178E070932A0B6093BF
:103B2000290B90932C0B80932B0B69E976E0709313
:103B3000260B6093250B5093160B4093150B309377
:103B40001C0B20931B0B2DE53EE030931E0B2093A6
:103B50001D0B9093200B80931F0B27EA36E03093C8
:103B60001A0B2093190B2EE233E03093080B2093AD
:103B7000070B22E233E030930E0B20930D0B1092D3
:103B8000100B10920F0B23EB31E03093120B2093AC
:103B9000110B9093140B8093130B26EB36E03093AC
:103BA0000C0B20930B0B26E133E03093FB0A2093A0
:103BB000FA0A2AE033E03093010B2093000B1092B5
:103BC000020B2BEB31E03093040B2093030B90930B
:103BD000060B8093050B23EC36E03093FF0A20930D
:103BE000FE0A2EEF32E03093EB0A2093EA0A22EF2E
:103BF00032E03093F10A2093F00A1092F30A109207
:103C0000F20A1092F50A1092F40A25EC31E0309392
:103C1000F70A2093F60A9093F90A8093F80A82ED46
:103C200096E09093EF0A8093EE0A80EA92E09093F8
:103C3000D70A8093D60A24E932E03093D90A209338
:103C4000D80A1092DA0A1092DB0A1092DC0A10925B
:103C5000DD0A1092DE0A1092DF0A1092E00A10923A
:103C6000E10A1092E20A1092E30A1092E40A10921A
:103C7000E50A8CE097E09093E70A8093E60A909338
:103C8000E90A8093E80A4AEE56E05093CD0A409341
:103C9000CC0A46ED5AE05093CF0A4093CE0A1092D8
:103CA000D50A1092D40A48E852E05093B40A4093DF
:103CB000B30A3093B60A2093B50A1092B70A10924D
:103CC000B80A1092B90A1092BA0A1092BB0A10925E
:103CD000BC0A1092BD0A1092BE0A1092BF0A10923E
:103CE000C00A1092C10A1092C20A9093C40A80932B
:103CF000C30A1092C50A1092C60A1092C70A1092FF
:103D0000C80A1092CB0A1092CA0A8CE792E09093EC
:103D1000850A8093840A1092860A1092870A10926C
:103D2000880A1092890A10928A0A10928B0A1092BD
:103D30008C0A10928D0A10928E0A10928F0A10929D
:103D4000900A1092910A1092920A1092930A10927D
:103D5000940A1092950A1092960A1092970A10925D
:103D6000980A1092990A10929A0A10929B0A10923D
:103D70009C0A10929D0A10929E0A10929F0A10921D
:103D8000A00A1092A10A1092A20A1092A30A1092FD
:103D9000A40A1092A50A1092A60A1092A70A1092DD
:103DA000A80A1092A90A1092AA0A1092AC0A1092BC
:103DB000AB0A1092AE0A1092AD0A1092B00A10929D
:103DC000AF0A1092B20A1092B10A83EF96E0909374
:103DD0007B0A80937A0A84E89AE090937D0A809324
:103DE0007C0A1092830A1092820A1092750A10922D
:103DF000740A1092770A1092760A1092790A109239
:103E0000780A50E040E06CE077E084E79AE00C94B8
:103E1000CB101092141010921310109212101092D6
:103E2000111073CDCF93DF93CDB7DEB7AC970FB63C
:103E3000F894DEBF0FBECDBF789484B5826084BD98
:103E400084B5816084BD85B5826085BD85B581609E
:103E500085BD80916E00816080936E00109281001C
:103E600080918100826080938100809181008160D7
:103E70008093810080918000816080938000809198
:103E8000B10084608093B1008091B0008160809324
:103E9000B0008091910082608093910080919100A8
:103EA0008160809391008091900081608093900068
:103EB0008091A10082608093A1008091A100816027
:103EC0008093A1008091A00081608093A0008091E8
:103ED0002101826080932101809121018160809382
:103EE00021018091200181608093200180917A00DE
:103EF000846080937A0080917A00826080937A0057
:103F000080917A00816080937A0080917A00806845
:103F100080937A001092C10040E052EC61E070E0C2
:103F200087ED99E00E94D3018FEF96E00E94531035
:103F30000EEC19E07801D7018D917D01803120F4DC
:103F400081EC94E00E945310F7013197608170E09A
:103F500090E080E040E10E94601088E097E00E94DD
:103F60005310B7EDEB16B9E0FB0629F78AE097E0AE
:103F70000E9453108FEF96E00E945310F801819138
:103F80008F01803120F481EC94E00E945310F801FD
:103F90003197608170E090E080E040E10E94601025
:103FA00088E097E00E945310F9E0073D1F0731F7C2
:103FB0008AE097E00E94531061E08BE00E94E704E2
:103FC00061E08CE00E94E70461E089E00E94E70480
:103FD00061E08AE00E94E70461E086E00E94E70475
:103FE00061E087E00E94E70461E082E00E94E7046C
:103FF00061E083E00E94E70462E084E00E94E7045D
:1040000062E085E00E94E70462E08EE10E94E7043E
:1040100062E08FE10E94E70461E086E10E94E7042C
:1040200061E087E10E94E70462E080E20E94E70429
:1040300062E081E20E94E70462E082E20E94E7041B
:1040400040E051EE60E070E081E399E00E94D3012E
:1040500040E855E260E070E084E998E00E94D30116
:1040600040E855E260E070E087EF97E00E94D301FE
:1040700087E290E10E943C0E85E290E10E943C0EB6
:10408000809115109091161097FD08C061E00E9474
:10409000E70460E0809115100E94BA0481E08093EB
:1040A00010100E94480560911710633329F1209188
:1040B0001810309119106150C9F070E08FEF92E341
:1040C0000E94A22CF9014091131050911410CF01BD
:1040D000821B930B8417950760F44081469FC001B3
:1040E000479F900D112490833196EDCF70E060E0F2
:1040F000E9CF83E380931710109280001092810023
:1041000080E092ECA1E0B0E08093480B9093490BE3
:10411000A0934A0BB0934B0B40E052EC61E070E08F
:104120008091460B9091470B0E94D3011092C10FD2
:104130001092C00F1092C30F1092C20F1092C70FAF
:104140001092C60F1092C50F1092C40F8AE79AE022
:104150000E9498028CEC9AE00E94980283E090E121
:104160000E94980286EF9FE00E94B9028DE29BE0D8
:104170000E94B90281E29BE00E94B90285E19BE0C6
:104180000E94B90287E09BE00E94B9028AEF9AE0A0
:104190000E94B9028AEE9AE00E94B9022DE7222E0F
:1041A000312C9E012F5F3F4F79014E0133E1830E89
:1041B000911C0E9420062B013C010E942305609364
:1041C000E5077093E6078093E7079093E8078091EF
:1041D000CB0781117AC08091AB0A9091AC0A2091F3
:1041E0000502309106028217930748F4892B39F0B3
:1041F000809105029091060211E0892B09F410E0EC
:104200008091AD0A9091AE0A209103023091040290
:104210008217930748F4892B39F08091030290911B
:104220000402892B09F07EC00E94200620916407B9
:10423000309165074091660750916707621B730BC9
:10424000840B950B603D77408105910510F01111AD
:1042500006C080916307181791F0112321F08DE0BB
:1042600097E00E947A070E9420066093640770938B
:1042700065078093660790936707109363078EE145
:104280000E949204019709F44FC08FE10E949204AA
:10429000019709F449C082E20E949204892B09F433
:1042A00043C080E20E949204892B09F016C110924B
:1042B000E3071092E2071092E0071092DF0760E038
:1042C00086E00E94BA0460E03CC02091AF0A3091C1
:1042D000B00A40910502509106022417350748F4B0
:1042E000232B39F0209105023091060211E0232B97
:1042F00009F410E02091B10A3091B20A4091030212
:10430000509104022417350708F08ECF232B09F4AF
:104310008BCF2091030230910402232B09F484CF28
:10432000182F82CF11E080CF1092E3071092E2079E
:104330001092E0071092DF0761E086E00E94BA0465
:1043400061E087E00E94BA0461E082E00E94BA0462
:1043500061E083E00E94BA042091E4074091E20703
:104360005091E30784B1806684B9809180008260B7
:10437000809380008091810088618093810080918A
:1043800080008068809380003092870020928600B1
:104390003DE7349FC001359F900D11246FEF70E011
:1043A0000E94B62C709389006093880080918100F0
:1043B00083608093810061E0211160E089E00E94C8
:1043C000BA042091E1074091DF075091E00784B1E2
:1043D000806684B9809180008260809380008091A3
:1043E0008100886180938100809180008062809349
:1043F000800030928700209286003DE7349FC00104
:10440000359F900D11246FEF70E00E94B62C7093D1
:104410008B0060938A00809181008360809381008B
:1044200060E0211161E08AE00E94BA0487EF97E022
:104430000E944D0321E0892B09F020E08091A10723
:10444000281721F087EF97E00E944D0387EF97E050
:104450000E944D0321E0892B09F020E02093A10761
:1044600087EF97E00E944D03892B81F480919F078D
:104470009091A007029754F084E197E00E947A0798
:104480000E94050810929E0710929D0787EF97E003
:104490000E944D03181619060CF032C187EF97E001
:1044A0000E942B0320919D0730919E0721303105FA
:1044B00009F448C02230310509F45DC0232B31F7DF
:1044C000849721F710929C0710929B0781E090E05F
:1044D00090939E0780939D07D9CF81E20E9492041A
:1044E000892B09F4E4CE1111E2CE8091D907909185
:1044F000DA079093E3078093E2070091D7071091C2
:10450000D8071093E0070093DF071816190674F018
:1045100060E086E00E94BA0461E082E00E94BA0492
:10452000101611064CF060E087E010CF61E086E0E5
:104530000E94BA0460E0F1CF61E087E00E94BA0413
:1045400060E007CF20919B0730919C07F901ED585F
:10455000F84F80832F5F3F4F30939C0720939B073A
:10456000223131050CF492CFA2E0B0E0B0939E0767
:10457000A0939D078BCF60918307CE0187960E9401
:10458000F51060918407CE0181960E94F5101A8281
:1045900019821C821B821E821D826FA178A5611563
:1045A000710529F04BA55CA5C7010E94CB10C9A0DD
:1045B000DAA0C114D10409F466C00DA11EA1011531
:1045C0001105B1F08D819E81080F191FB801C70137
:1045D0000E94A310882309F456C029813A818D8155
:1045E0009E81B601820F931F0E94152F1E830D839B
:1045F0001C8E1B8E1E8E1D8E18A21F8E69817A81C5
:104600006115710531F04D815E81CE014B960E949E
:10461000CB10C7010E94630EE3E7F7E090E080E073
:104620002191022E000C330B8227932723E837E0D9
:104630002E173F07A9F71C8A1B8A1E8A1D8A188E0F
:104640001F8A40E1B70121D5F70101900020E9F769
:104650003197AF014E195F09B701C4010E94CB1019
:104660000B891C8901151105D9F0D8018D918D0197
:104670008823B1F0082E000C990B0E94F42EF8014B
:1046800031978083F2CF89819A81009711F00E943F
:104690008F2D1A8219821E821D821C821B82A8CF36
:1046A0002F89388D8F8D98A128173907A1F48B8910
:1046B0009C896B8D7C8D009709F429C46115710567
:1046C00039F4232B09F431C4DC018C9190E02AC425
:1046D0000E940C2F27C410929E0710929D07809174
:1046E0009F079091A00701969093A00780939F0742
:1046F000082E000C990B865E984F0E947A0785C49D
:1047000084E49BE00E94D9138091DB079091DC0741
:10471000A091DD07B091DE0784159505A605B705C4
:10472000E0F4A3019201281B390B4A0B5B0BDA0161
:10473000C901883C9105A105B10578F01092DA070E
:104740001092D9071092D8071092D70781E0809372
:10475000D6071092D5071092D4078091D007909178
:10476000D107A091D207B091D307A3019201281BD2
:10477000390B4A0B5B0BDA01C90184369105A1059F
:10478000B10508F4A5C08EE10E94920421E0892BB6
:1047900009F420E02093860A8FE10E94920421E030
:1047A000892B09F420E02093870A84E00E94920478
:1047B00021E0892B09F020E02093880A85E00E94FF
:1047C000920421E0892B09F020E02093890A80E2FD
:1047D0000E94920421E0892B09F020E02093900AA6
:1047E00081E20E94920421E0892B09F020E02093CD
:1047F000910A82E20E94920421E0892B09F020E0D4
:104800002093A20A82E00E94920421E0892B09F001
:1048100020E020938A0A86E00E94920421E0892BFE
:1048200009F020E020938B0A89E00E94920421E0A5
:10483000892B09F020E020938C0A83E00E949204E7
:1048400021E0892B09F020E020938D0A87E00E9467
:10485000920421E0892B09F020E020938E0A8AE05F
:104860000E94920421E0892B09F020E020938F0A16
:1048700087E290E10E94F10D5B016C01A092A2071A
:10488000B092A307C092A407D092A50785E290E159
:104890000E94F10DA092A30AB092A40AC092A50AA8
:1048A000D092A60A6093A70A7093A80A8093A90AD7
:1048B0009093AA0A64E87AE08AE79AE00E94FE0BE5
:1048C0004092D0075092D1076092D2077092D307DE
:1048D0000091090210910A028091CC079091CD07B6
:1048E000A091CE07B091CF07A3019201281B390BED
:1048F0004A0B5B0BDA01C90184369105A105B105AC
:10490000C8F11E821D8285E589838AEA8A8381E057
:104910008B838C830130110521F480E18D838C839E
:104920000FC00230110511F481E1F8CF03301105F9
:1049300011F482E1F3CF0430110509F4A7C08D838F
:10494000AE014F5F5F4F6A015E0156E0A50EB11CDC
:10495000D6016D916D0184E998E00E949F03CA140D
:10496000DB04B1F74092CC075092CD076092CE079E
:104970007092CF079CE0C92ED12C0115110519F0BA
:1049800086E0C82ED12C84E998E00E944D031816C9
:10499000190614F584E998E00E942B032091B607CC
:1049A0003091B7072130310509F472C0223031054A
:1049B00009F484C0232B81F48535910569F485E5DC
:1049C0008093A80781E090E09093A7078093A607C3
:1049D0009093B7078093B6078091D60760E0811166
:1049E000EAC08091CB078111E5C060E086E10E94BA
:1049F000BA0461E087E10E94BA046091D407709123
:104A0000D50780910702909108026817790709F489
:104A1000ECC18091C5079091C607019709F590E018
:104A200080E0B6D5870120E040E012D38CE097E02B
:104A30009F938F93FF92EF9286E297E09F938F93DD
:104A400083E397E09F938F939F928F920E941C2FF6
:104A5000C4010E947A070FB6F894DEBF0FBECDBF27
:104A60000091D4071091D5070630110509F4C0C094
:104A700008F0A6C00115110509F4B5C080E091E069
:104A80000130110509F4B6C080E0B3C083E146CF20
:104A90002091A6073091A707A9014F5F5F4F509360
:104AA000A7074093A6072855384FF9018083C416FD
:104AB000D5060CF091CF82E090E08ACFE8EAF7E0EB
:104AC00030E020E08191280F311DCF01885A9740B6
:104AD0008C159D05BCF3F601E855F84F808190E0F8
:104AE00028171906B9F58091AC079091AD07982762
:104AF000892798270115110531F59093AC0A809309
:104B0000AB0A8091AE079091AF0798278927982725
:104B10009093AE0A8093AD0A8091B0079091B1074F
:104B20009827892798279093B00A8093AF0A80919D
:104B3000B2079091B3079827892798279093B20AD4
:104B40008093B10A07C001301105C1F49093AC0AFB
:104B50008093AB0A1092B7071092B6078091CB07EB
:104B6000811120C082E090E00130110511F081E058
:104B700090E090930A02809309022ECF0230110533
:104B800029F49093AE0A8093AD0AE4CF0330110567
:104B900029F49093B00A8093AF0ADCCF043011055A
:104BA000C9F6CCCF84E090E00330110511F383E027
:104BB00090E0DFCF61E086E10E94BA0460E01ACFA6
:104BC0000A30110509F40CC120E030E04FEF50E04D
:104BD0000D30110509F058CF6FE170E090E080E0F2
:104BE0000E94780E51CF2FE73FE74FE750E0F4CF18
:104BF00081E090E010930802009307022091BC0727
:104C0000211104C0911102C0882369F01092BC07E1
:104C10008091D4079091D5078130910509F4E8C0BF
:104C2000069709F4F4C08091D4079091D507843099
:104C3000910509F411C108F0F6C08230910509F41C
:104C40002AC1039709F44AC18091C7079091C80708
:104C5000A091C907B091CA07A3019201281B390B83
:104C60004A0B5B0BDA01C90188389341A105B105F4
:104C700008F43BC080917B00877F80937B0081E4B8
:104C800080937C0080917A00806480937A00809188
:104C90007A0086FDFCCF8091780060917900762FB4
:104CA000682F072E000C880B990B74D420E030EC91
:104CB0004FE754E49BD520E030E040EA50E4C9D40B
:104CC0002AE939E949EF50E4C4D46093960A709315
:104CD000970A8093980A9093990A4092C707509236
:104CE000C8076092C9077092CA078091C507909162
:104CF000C607019709F071C00E9423050091E507DE
:104D00001091E6072091E7073091E807DC01CB011D
:104D1000801B910BA20BB30B0091C1071091C2072E
:104D20002091C3073091C407081719072A073B07CA
:104D300040F48093C1079093C207A093C307B09338
:104D4000C4078091BD079091BE07A091BF07B091A5
:104D5000C007A3019201281B390B4A0B5B0BDA0138
:104D6000C90189389341A105B105B8F16091C10726
:104D70007091C2078091C3079091C40709D487013D
:104D800020E040E065D18AE397E09F938F93FF9204
:104D9000EF9282E497E09F938F9383E397E09F9352
:104DA0008F939F928F920E941C2FC4010E947A07BA
:104DB0001092C1071092C2071092C3071092C40745
:104DC0004092BD075092BE076092BF077092C00725
:104DD0000FB6F894DEBF0FBECDBF0E940A04E9C92A
:104DE00028EA32E340EA50E0F7CE80E090E006CFD8
:104DF0008091CB0720E03FEF40E050E081110EC0F2
:104E00006FE070E090E080E00E94780E0CCF80911F
:104E1000CB072FEF30E040E050E0F0CF6FE170E0E3
:104E200080E190E0F1CF8730910589F088309105DD
:104E300011F120E030E04FEF50E0059709F004CF8A
:104E40006FE170E090E080E00E94A10EFDCE28EAC4
:104E500032E340EA50E0F4CF8091CB0720E030E02D
:104E60004FEF50E06FE070E0882361F36FE170E096
:104E700080E190E0E9CF8091CB07811107C06FE01E
:104E800070E090E080E00E94FC0EDECE6FE170E00A
:104E900080E190E0F8CF8091B8079091B907A09198
:104EA000BA07B091BB07A3019201281B390B4A0B2B
:104EB0005B0BDA01C90184369105A105B10508F43F
:104EC000C3CE82E090E00E94990F4092B8075092C2
:104ED000B9076092BA077092BB07B6CE8091B80747
:104EE0009091B907A091BA07B091BB07A3019201B5
:104EF000281B390B4A0B5B0BDA01C901843691057B
:104F0000A105B10508F4A0CE83E090E0DCCF6115E7
:104F1000710559F0232B49F0FB01808190E09195B8
:104F200081959109892B09F0D6CB29E737E0E8EB89
:104F3000F4E090E080E0D9014D919D01DC01A85999
:104F4000B84F4C934C91419301968A30910599F753
:104F50000E94200628EE33E040E050E01AD55901C7
:104F60006A019B01AC0160E472E48FE090E0DBD465
:104F70000091540B1091550B2091560B3091570B0B
:104F8000600F711F821F931F0091500B1091510BE6
:104F90002091520B3091530BA00EB11EC21ED31E96
:104FA00020E03AEC4AE95BE3F4D42A0D3B1D4C1DAA
:104FB0005D1D2093DE0A3093DF0A4093E00A509390
:104FC000E10A6093E20A7093E30A8093E40A909303
:104FD000E50AE8E6F7E0F093E90AE093E80A66ED0F
:104FE0007AE08CEC9AE00E94FE0B10929E071092E1
:104FF0009D071092A00710929F0788EB94E00E94F3
:105000007A0787EF97E00E944D03C4010E94630E68
:10501000CE014B960E94630ECE0181960E94630ED4
:10502000CE0187960E94630E31CA84E79AE00E94FF
:10503000630E809118109091191071D58091151000
:105040009091161097FD03C060E00C94E70408955A
:10505000EF920F931F93CF93DF93E80134E047FD66
:1050600034E1042E000C550B57FF03C051954195B8
:105070005109E32E022F242FAE012AD0CE01DF9159
:10508000CF911F910F91EF900895BB274A3031F4D3
:10509000992322F4BDE2909581959F4F01C0BB27D3
:1050A000FB015527AA27880F991FAA1FA41710F0E4
:1050B000A41B83955051B9F7A05DAA3308F0A95DF0
:1050C000A193009779F7B111B1931192CB0150C21E
:1050D0008F929F92AF92BF92CF92DF92EF92FF9208
:1050E0000F931F93CF93DF9300D000D000D0CDB7A4
:1050F000DEB76A01F22EB02E102FFBE3AF2EA01602
:1051000008F41BE31F5F012F27E0AE014F5F5F4FE5
:1051100057D1BC018981982F9970913009F44EC004
:105120009BE2E1FC04C09E2D9170E0FC49C05E2D25
:105130005071E82FE87083FF55C084E0911101C0E1
:1051400083E0EF2DE81B8F1508F0E0E0D6018E2FED
:1051500020E25523C9F1992329F0D6019C93C60179
:1051600001966C0196012D5F3F4FE2FE33C08EE445
:10517000D6018C9391E411969C93119712968C937F
:10518000D9018E2F90E281112AC0E20FF32FF11D79
:1051900010828EEF9FEF29960FB6F894DEBF0FBEF8
:1051A000CDBFDF91CF911F910F91FF90EF90DF90D6
:1051B000CF90BF90AF909F908F9008959DE2B7CF12
:1051C00090E2B5CF2D9381508111FCCFCE0ED11C32
:1051D000E0E0C1CF8EE6D6018C9391E6CCCF9D93D3
:1051E0008150D1CF482F447082FF3DC084E091119F
:1051F00001C083E08F1510F4EF2DE81BD6018E2F30
:1052000020E2552309F1992329F0D6019C93C60188
:1052100001966C0196012D5F3F4FE2FE1BC089E4B1
:10522000D6018C938EE411968C93119786E4129696
:105230008C93D9018E2F90E2882309F4A6CF9D93F9
:105240008150FACF2D9381508111FCCFCE0ED11C0D
:10525000E0E0D9CF89E6D6018C938EE611968C9347
:10526000119786E6E4CF9B0177FF02C030E020E093
:10527000A1E0B0E0911102C0B0E0A0E0F9013196E8
:10528000AE0FBF1F8B2C912CBB2009F461C05401C1
:10529000EFEFAE1ABE0AAA0DBB1DFA161B0619F0D7
:1052A00014F04F2D4A1B511188C0E3FC59C0760100
:1052B000A42FB0E2A1114FC0C40ED11C992309F450
:1052C0005BC040E0D6011196F60190836D01552335
:1052D00009F448C0012F060F9A81582F507184FF9E
:1052E00003C0913309F4015010160CF047C0093087
:1052F00008F008E0EEE2FE2E5B01A01AB10885017D
:105300009194819491082F3F320729F4D601FC92A1
:10531000F60131966F016217730794F102171307B4
:105320007CF5DB01A21BB30BAA24A394B12CAC0E19
:10533000BD1EAA0DBB1D11968C9121503109D601BD
:10534000119628153905F4F0F60180836D01DBCF45
:10535000B12CA12CA0CFF701B1937F01A150AACF0E
:105360009111B0CFD601942F50E302C05D939150BC
:105370009111FCCFC40ED11C40E0ACCF01E0BACFFC
:1053800080E3DBCF6217730731F4963388F49533EB
:1053900011F4552369F0F6018083FD01842F90E21A
:1053A000811108C0A40FB11D1C9290E080E0F3CEE3
:1053B00081E3F1CF91938150F3CF911183CF8ACFC5
:1053C000283008F027E03327DA01990F311D87FDD7
:1053D000916000966105710539F432602E5F3D934E
:1053E00030E32A95E1F708959F3F30F0803871054A
:1053F000610509F03C5F3C5F3D93913008F08068A7
:10540000911DDF93CF931F930F93FF92EF92192F6C
:10541000987F9695E92F96959695E90FFF27E25C80
:10542000FE4F99273327EE24FF24A701E7010590BB
:105430000894079428F4360FE71EF81E491F511DE3
:10544000660F771F881F991F0694A1F70590079490
:1054500028F4E70EF81E491F561FC11D770F881F3D
:10546000991F661F0694A1F70590079428F4F80E7B
:10547000491F561FC71FD11D880F991F661F771F11
:105480000694A1F70590079420F4490F561FC71FF3
:10549000D81F990F661F771F881F0694A9F784915C
:1054A0001095177041F0D695C79557954795F79485
:1054B000E7941A95C1F7E4EEF0E068941590159121
:1054C00035916591959105907FE27395E118F10A08
:1054D000430B560BC90BD009C0F7E10CF11E431F5B
:1054E000561FC91FD01D7EF4703311F48A95E6CF84
:1054F000E894015030F0080F0AF40027021708F46E
:10550000202F2395022F7A3328F079E37D932A9573
:10551000E9F710C07D932A9589F6069497956795CB
:10552000379517951794E118F10A430B560BC90BE1
:10553000D00998F023957E9173957A3308F070E343
:105540007C932013B8F77E9170617D9330F0839542
:1055500071E37D9370E32A95E1F71124EF90FF90BA
:105560000F911F91CF91DF91992787FD9095089515
:10557000DC01FC01672F71917723E1F7329704C0BA
:105580007C916D9370836291AE17BF07C8F3089545
:10559000E89409C097FB3EF49095809570956195CD
:1055A0007F4F8F4F9F4F9923A9F0F92F96E9BB2783
:1055B0009395F695879577956795B795F111F8CFFF
:1055C000FAF4BB0F11F460FF1BC06F5F7F4F8F4F6A
:1055D0009F4F16C0882311F096E911C0772321F060
:1055E0009EE8872F762F05C0662371F096E8862FF8
:1055F00070E060E02AF09A95660F771F881FDAF74F
:10560000880F9695879597F90895990F0008550F7B
:10561000AA0BE0E8FEEF16161706E807F907C0F038
:1056200012161306E407F50798F0621B730B840B40
:10563000950B39F40A2661F0232B242B252B21F41A
:1056400008950A2609F4A140A6958FEF811D811DBA
:1056500008950BD078C069D028F06ED018F095234B
:1056600009F05AC05FC01124A2C07ED0A0F3959F5C
:10567000D1F3950F50E0551F629FF001729FBB2739
:10568000F00DB11D639FAA27F00DB11DAA1F649FE5
:105690006627B00DA11D661F829F2227B00DA11D98
:1056A000621F739FB00DA11D621F839FA00D611D1E
:1056B000221F749F3327A00D611D231F849F600D3F
:1056C000211D822F762F6A2F11249F5750408AF078
:1056D000E1F088234AF0EE0FFF1FBB1F661F771F04
:1056E000881F91505040A9F79E3F510570F014C09B
:1056F0005EC05F3FECF3983EDCF386957795679547
:10570000B795F795E7959F5FC1F7FE2B880F911D21
:105710009695879597F9089597F99F6780E870E0C7
:1057200060E008959FEF80EC089500240A94161617
:10573000170618060906089500240A94121613067F
:10574000140605060895092E0394000C11F488230D
:1057500052F0BB0F40F4BF2B11F460FF04C06F5F29
:105760007F4F8F4F9F4F089557FD9058440F551FFF
:1057700059F05F3F71F04795880F97FB991F61F0D3
:105780009F3F79F087950895121613061406551F4A
:10579000F2CF4695F1DF08C0161617061806991FB6
:1057A000F1CF86957105610508940895E894BB27AB
:1057B00066277727CB0197F9089509D0A59F900D0B
:1057C000B49F900DA49F800D911D11240895A29F58
:1057D000B001B39FC001A39F700D811D1124911DC5
:1057E000B29F700D811D1124911D08950CD0ABCF77
:1057F000A3DF40F09ADF30F021F45F3F19F08CCF47
:105800005111D5CF8FCFB0DF98F39923C9F355232A
:10581000B1F3951B550BBB27AA27621773078407A3
:1058200038F09F5F5F4F220F331F441FAA1FA9F359
:1058300033D00E2E3AF0E0E830D091505040E6954B
:10584000001CCAF729D0FE2F27D0660F771F881FAC
:10585000BB1F261737074807AB07B0E809F0BB0B9B
:10586000802DBF01FF2793585F4F2AF09E3F5105BF
:1058700068F052CF9CCF5F3FECF3983EDCF3869507
:1058800077956795B795F7959F5FC9F7880F911D35
:105890009695879597F90895E1E0660F771F881F21
:1058A000BB1F621773078407BA0720F0621B730BD4
:1058B000840BBA0BEE1F88F7E095089504D0689426
:1058C000B11175CF089558DF88F09F5790F0B92F28
:1058D0009927B751A0F0D1F0660F771F881F991F45
:1058E0001AF0BA95C9F712C0B13081F05FDFB1E0AC
:1058F00008955CCF672F782F8827B85F39F0B93FBC
:10590000CCF3869577956795B395D9F73EF4909546
:105910008095709561957F4F8F4F9F4F089575DEED
:1059200008F48FEF0895DB018F939F9346DFBF91BB
:10593000AF91A29F800D911DA39F900DB29F900DDE
:1059400011240895AA1BBB1B51E107C0AA1FBB1F4E
:10595000A617B70710F0A61BB70B881F991F5A95FB
:10596000A9F780959095BC01CD01089597FB072E6E
:1059700016F4009406D077FD08D0E4DF07FC05D0CC
:105980003EF4909581959F4F0895709561957F4F56
:105990000895A1E21A2EAA1BBB1BFD010DC0AA1F70
:1059A000BB1FEE1FFF1FA217B307E407F50720F088
:1059B000A21BB30BE40BF50B661F771F881F991F03
:1059C0001A9469F760957095809590959B01AC014C
:1059D000BD01CF010895EE0FFF1F881F8BBF0790F9
:1059E000F691E02D19940F931F93CF93DF9382309C
:1059F000910510F482E090E0E0912B10F0912C10D2
:105A000030E020E0B0E0A0E0309799F421153105B6
:105A100009F44AC0281B390B24303105D8F58A8196
:105A20009B816115710589F1FB0193838283FE01DE
:105A300011C0408151810281138148175907E0F05C
:105A40004817590799F4109761F012960C93129722
:105A500013961C933296CF01DF91CF911F910F9136
:105A6000089500932B1010932C10F4CF21153105BD
:105A700051F04217530738F0A901DB019A01BD012B
:105A8000DF01F801C1CFEF01F9CF90932C10809383
:105A90002B10CDCFFE01E20FF31F81939193225083
:105AA000310939832883D7CF2091291030912A10CA
:105AB000232B41F420910D0230910E0230932A10D5
:105AC0002093291020910B0230910C0221153105F1
:105AD00041F42DB73EB740910F0250911002241BA4
