:1000000080C10000AFC10000ADC10000ABC1000065
:10001000A9C10000A7C10000A5C10000A3C1000044
:10002000A1C100009FC100009DC100009BC1000054
:1000300099C1000097C1000095C1000093C1000064
:1000400091C100008FC100008DC100008BC1000074
:1000500089C1000087C1000085C100000C94861A88
:1000600081C100000C945C1A0C94321A7BC1000010
:1000700079C1000077C1000075C1000073C10000A4
:1000800071C100006FC100006DC100000C94E41A42
:100090000C94081A0C94DE1965C1000063C10000BD
:1000A00061C100005FC100005DC100005BC10000D4
:1000B00059C100000C94D01A55C1000053C1000072
:1000C00051C100004FC100004DC100000C94B41993
:1000D0000C948A1947C100000C9460190C943619CD
:1000E00041C1000000407A10F35A00A0724E180976
:1000F0000010A5D4E80000E87648170000E40B548F
:10010000020000CA9A3B000000E1F505000080965D
:100110009800000040420F000000A086010000008F
:10012000102700000000E803000000006400000049
:1001300000000A00000000000100000000002C7612
:10014000D888DC674F0823DFC1DFAE59E1B1B7962D
:10015000E5E3E453C63AE651997696E8E6C284268A
:10016000EB898C9B62ED407C6FFCEFBC9C9F40F266
:10017000BAA56FA5F490055A2AF75C936B6CF967E2
:100180006DC11BFCE0E40D47FEF520E6B500D0EDA7
:10019000902E0300943577050080841E080000200F
:1001A0004E0A000000C80C333333330F986E1283AD
:1001B0001141EF8D2114893BE65516CFFEE6DB1881
:1001C000D1844B381BF77C1D901DA4BBE424203246
:1001D00084725E228100C9F124ECA1E53D27000074
:1001E0002100240027002A002D00300033000101E7
:1001F0000000040107010A0100002000230026007E
:1002000029002C002F00320000010000030106012C
:10021000090100000A0B02090C0D0E080703040176
:1002200000000000000000000000000000000000CE
:10023000000000000000000000000000000012119B
:10024000100000000000000000000000000000009E
:10025000000000000000000001021020200808102B
:100260002040102040800201020108040201010226
:1002700004081020408080402010080402018004FF
:10028000020180402010080402010804020101025A
:100290000408102040800102040810204080000063
:1002A0002200250028002B002E003100340002011E
:1002B0000000050108010B010505050507050808F3
:1002C0000808020202020A0A0808040404040101E0
:1002D00001010101010103030303030303030407F5
:1002E00007070C0C0C0C0C0C0C0C0202020206068C
:1002F0000606060606060B0B0B0B0B0B0B0B9E1BC9
:10030000CE2811241FBECFEFD1E2DEBFCDBF00E06B
:100310000CBF20E1AEE6B7E001C01D92A037B207E6
:10032000E1F717E0A0E0B2E0ECE5F5E600E00BBF96
:1003300002C007900D92AE36B107D9F711E0C0E8C0
:10034000D1E000E006C021970109802FFE010E9444
:10035000A42DCF37D10780E00807A9F70E94B61F68
:100360000C949D324DCEFC01828193819093F407D1
:100370008093F3070895FC018281082E000C990BED
:100380009093E5078093E4070895FC01228133816F
:100390003093060220930502848195819093040294
:1003A000809303020895CF92DF92EF92FF92CF9352
:1003B000DF93EC016A017B01E889F98982E080839F
:1003C000C11481EED806E104F104A1F060E079E007
:1003D0008DE390E0A70196010E94822D2150310902
:1003E000410951095695479537952795211580E183
:1003F000380798F0E889F989108260E874E88EE19E
:1004000090E0A70196010E94822D215031094109F7
:1004100051095695479537952795EC85FD8530838D
:10042000EE85FF852083188EEC89FD8986E0808328
:10043000EA89FB89808180618083EA89FB898081E8
:1004400088608083EA89FB89808180688083EA896B
:10045000FB8980818F7D8083DF91CF91FF90EF902A
:10046000DF90CF9008958F929F92AF92BF92CF92DC
:10047000DF92EF92FF920F931F93FC014B01AA248E
:10048000BB24C52ED62EE72EFF24BC2DA42F909181
:100490005A10B82C992391F0A92FB0E0A89D900193
:1004A000A99D300DB89D300D1124B32E9C9D600187
:1004B0001124BD2D949F80011124A12F4091601023
:1004C00020915B1030915C1080915D10481324C026
:1004D000CF01880F991F8E0F9F1F820F931FE091EE
:1004E0005D10E80FF92FF11DB082E0915E10E80F6A
:1004F000F92FF11DB08320915F10820F911DFC0137
:10050000A0831F910F91FF90EF90DF90CF90BF904D
:10051000AF909F908F900895CF01880F991F880FFB
:10052000991F820F931FFC01E40FF11D1082D7CF9A
:10053000EFE9FFE030E020E041915191452B91F44B
:10054000F901EE0FFF1FE156F04F9183808323588E
:100550003F4FFC013583248327E83BE03783268324
:1005600081E008952F5F3F4F2931310529F780E061
:100570000895E1EDFFE030E020E041915191452BFD
:1005800071F4F901EE0FFF1FEF52F04F918380835A
:100590002C593F4FFC013383228381E008952F5F64
:1005A0003F4F2931310549F780E00895AF92BF925E
:1005B000CF92DF92EF92FF920F931F93CF93DF932F
:1005C0006C017B018B01040F151FEB015E01AE185E
:1005D000BF08C017D10759F06991D601ED91FC9180
:1005E0000190F081E02DC6011995892B79F7C5019D
:1005F000DF91CF911F910F91FF90EF90DF90CF90FF
:10060000BF90AF900895FC01A089B1898C91A68913
:10061000B78982FD0FC09C91818D8F5F8F73228D72
:10062000821749F0A18DAE0FBF2FB11D5D969C932F
:10063000818F08958C910895FC01538D448D252F51
:1006400030E0842F90E0821B930B541710F0CF966C
:10065000089501970895FC01918D828D981761F09E
:10066000A28DAE0FBF2FB11D5D968C91928D9F5FB5
:100670009F73928F90E008958FEF9FEF0895FC0194
:10068000918D828D981731F0828DE80FF11D858D47
:1006900090E008958FEF9FEF0895FC01918D228DDA
:1006A000892F90E0805C9F4F821B91098F7399275F
:1006B00008958AE198E0F1DF21E0892B09F420E038
:1006C000822F089587EB98E0E8DF21E0892B09F479
:1006D00020E0822F089584E599E0DFDF21E0892B77
:1006E00009F420E0822F08958AEF99E0D6DF21E017
:1006F000892B09F420E0822F0895FC01A48DA80F16
:10070000B92FB11DA35ABF4F2C91848D90E0019653
:100710008F739927848FA689B7892C93A089B18973
:100720008C91837080648C93938D848D981306C014
:100730000288F389E02D80818F7D80830895EF9278
:10074000FF920F931F93CF93DF93EC0181E0888F8B
:100750009B8D8C8D98131AC0E889F989808185FF5B
:1007600015C09FB7F894EE89FF896083E889F989FD
:1007700080818370806480839FBF81E090E0DF91FF
:10078000CF911F910F91FF90EF900895F62E0B8D52
:1007900010E00F5F1F4F0F731127E02E8C8D8E110D
:1007A0000BC00FB607FCFACFE889F989808185FF75
:1007B000F5CFCE01A2DFF2CFEB8DEC0FFD2FF11DB7
:1007C000E35AFF4FF0829FB7F8940B8FEA89FB89B9
:1007D00080818062D0CFCF93DF93EC01888D882316
:1007E000B1F0AA89BB89E889F9898C9185FD03C09C
:1007F000808186FD0CC00FB607FCF7CF8C9185FF7A
:10080000F2CF808185FFEDCFCE0177DFEACFDF9198
:10081000CF91089580E090E0892B21F065DF811170
:100820000E94000080E090E0892B21F054DF8111CC
:100830000E94000080E090E0892B21F043DF8111CD
:100840000E94000080E090E0892B21F032DF8111CE
:100850000C94000008958150823108F05AC0E82FAE
:10086000F0E08827E95CFB4F8F4F0C94A42D5704D0
:100870005B0449044F04530489045E04640468045F
:100880006E04720476047C048004890484048A045F
:100890008E04809180008F778093800008958091EE
:1008A00080008F7DF9CF80918000877FF5CF84B560
:1008B0008F7784BD089584B58F7DFBCF8091B00084
:1008C0008F778093B00008958091B0008F7DF9CF2D
:1008D000809190008F778093900008958091900090
:1008E0008F7DF9CF80919000877FF5CF8091A00018
:1008F0008F778093A00008958091A0008F7DF9CF1D
:100900008091A000877FF5CF809120018F77809321
:1009100020010895809120018F7DF9CF80912001E1
:10092000877FF5CFCF93DF93282F30E0F901EE5E7C
:10093000FD4F8491F901E85AFD4FD491F901E85433
:10094000FD4FC491CC2399F0811185DFEC2FF0E0AD
:10095000EE0FFF1FE850FE4FA591B491EC91ED23EF
:1009600081E090E009F480E0DF91CF91089580E08C
:1009700090E0FACF1F93CF93DF93282F30E0F90157
:10098000EE5EFD4F8491F901E85AFD4FD491F901D3
:10099000E854FD4FC491CC23A1F0162F81115BDFE9
:1009A000EC2FF0E0EE0FFF1FE256FD4FA591B49142
:1009B0008FB7F894EC91111108C0D095DE23DC9329
:1009C0008FBFDF91CF911F910895DE2BF8CFFC01EF
:1009D00082818230A9F08330C1F061E0813009F476
:1009E00060E089E1C7DF61E08AE1C4DF8091F5075B
:1009F000882369F061E089E1BDDF61E08AE1BACF77
:100A000061E089E1B7DF60E0EFCF60E0FACF089501
:100A1000CF93DF9390E0FC01E85AFD4F2491885476
:100A20009D4FFC0184918823C9F090E0880F991FA5
:100A3000FC01E252FE4FA591B491FC01E256FD4F3C
:100A4000C591D49161110DC09FB7F8948C912095F8
:100A500082238C938881282328839FBFDF91CF91A5
:100A60000895623051F49FB7F8943C91822F80959D
:100A700083238C93E8812E2BEFCF8FB7F894EC91E2
:100A80002E2B2C938FBFEACF90917B00977F909372
:100A90007B008653806480937C0080917A00806420
:100AA00080937A0080917A0086FDFCCF8091780057
:100AB0009091790008953FB7F89480917D079091C7
:100AC0007E07A0917F07B091800726B5A89B05C03F
:100AD0002F3F19F00196A11DB11D3FBFBA2FA92FBD
:100AE000982F8827BC01CD01620F711D811D911DBA
:100AF00042E0660F771F881F991F4A95D1F7089526
:100B0000CF92DF92EF92FF920F931F93CF93DF93D9
:100B100000D000D000D0CDB7DEB780915B109091AF
:100B20005C10892B09F47CC0C0906110D0906210D9
:100B3000E0906310F0906410BEDF6C157D058E05AB
:100B40009F0548F4B8DF6093611070936210809342
:100B5000631090936410AFDF0091611010916210E8
:100B60002091631030916410601B710B820B930B0A
:100B70006C32714081059105B8F2F894809156105D
:100B8000909157109A838983E0915B10F0915C10EB
:100B9000DF0111968081898790915210E091651054
:100BA000F091661080916710992309F448C09081F4
:100BB000982B98879081809589238F838F818C8350
:100BC00088E08B8358856F8149853B812C818981A1
:100BD0009A81508347FD252F3A952083262F39F09F
:100BE000441F00C000006083000000C0F2CF38E066
:100BF0004D9160830000019761F7F0936610E093D8
:100C0000651049873B832C839A838983789453DFCB
:100C100060936110709362108093631090936410DE
:100C200029960FB6F894DEBF0FBECDBFDF91CF91EE
:100C30001F910F91FF90EF90DF90CF9008959081DA
:100C4000982B98879081809589238F838F818E83BD
:100C500088E08D8358856F8149853D812E8189810A
:100C60009A81508347FD252F00C000C0208300C01B
:100C700000C000C000C000C060830000262F3A956D
:100C800041F0441F000000C000C000C000C000C010
:100C9000E8CF38E04D9100C0608300C0019709F7AC
:100CA000F0936610E093651049873D832E83ACCFA7
:100CB0002FB7F8946091790770917A0780917B073C
:100CC00090917C072FBF0895CF92DF92EF92FF9211
:100CD0000F931F93CF938C01EBDF6093FA07709310
:100CE000FB078093FC079093FD071092F507F8012E
:100CF000C281C093EA078585809381079091EA07B6
:100D000080910202981729F081E08093DB0780939D
:100D10006F078091EA0780930202F801C580D680B0
:100D2000E780F08420E030E0A901C701B6010E940D
:100D3000482D87FD2AC0C0930308C701B6010E9451
:100D4000172D7093F9076093F807F801C184D284D6
:100D5000E384F48420E030E0A901C701B6010E94D9
:100D6000482D87FD1AC0C0930008C701B6010E9434
:100D7000172D7093F7076093F607CF911F910F918E
:100D8000FF90EF90DF90CF90089581E08C278093C3
:100D90000308C701B6019058D2CF81E0C827C0939D
:100DA0000008C701B6019058E2CFCF92DF92EF92D0
:100DB000FF920F931F93CF93DF9300D000D01F9229
:100DC0001F92CDB7DEB774DF28EE33E040E050E08D
:100DD0000E94822D69017A019B01AC0160E472E4FA
:100DE0008FE090E00E944C2DE7E8FBE0008911893C
:100DF00022893389600F711F821F931F0485158517
:100E000026853785C00ED11EE21EF31E20E03AEC87
:100E10004AE95BE30E94822DC20ED31EE41EF51E3A
:100E2000C982DA82EB82FC822C2D3A814B815C8173
:100E300028960FB6F894DEBF0FBECDBFDF91CF91DD
:100E40001F910F91FF90EF90DF90CF9008958BE569
:100E500093E0089588E492E0089583E090E0089597
:100E60008A579B4FFC01808108958CE793E0089599
:100E70008DE993E00895FC018689978908958BEBAD
:100E800093E008958CED93E00895FC0182859385AD
:100E90000895DC011896ED91FC91069619948BEE5D
:100EA00093E008958CE094E00895FC018485958595
:100EB00008958BE194E008958CE394E00895FC019B
:100EC000838594850895DB012C91FC0120870184A2
:100ED000F285E02D069619948AE494E008958BE655
:100EE00094E00895FC01868597850895EF92FF921E
:100EF0000F931F93CF93DF9300D01F921F92CDB714
:100F0000DEB7643671054CF0FC01EA57FB4F2081D7
:100F1000F12CE12C222309F452C0DA017B018C016F
:100F2000BC01615E7D4FED91FC910190F081E02D5F
:100F3000CA011995B801685E7D4F2FEFDB012C9334
:100F4000F801E75EFD4F2EEF2083319680833196C6
:100F500090833196292F280F209520833196E082A7
:100F60001696FC9245E050E030E020E07C01B6E0CF
:100F7000EB0EF11CE416F50634F0A1912A0F311D99
:100F80004F5F5F4FF7CF7C01E8E0EE0EF11C800F62
:100F9000911FFC01E15EFD4F20952083F1E0EF16EB
:100FA000F2E0FF06CCF4D80112968D919C91DC0101
:100FB000ED91FC910280F381E02DA7011995C70105
:100FC0000F900F900F900F900F90DF91CF911F9186
:100FD0000F91FF90EF9008958FE592E09A838983B7
:100FE00083E08B8382E894E09D838C83D801ED912C
:100FF000FC910190F081E02DAE014F5F5F4F67E003
:1010000070E0C8011995EE24EA94FE2CD8CFCF9356
:10101000DF9300D01F921F92CDB7DEB72FE532E0ED
:101020003A83298321E02B839D838C83AE014F5F1C
:101030005F4F67E070E087E89BE058DF0F900F900C
:101040000F900F900F90DF91CF9108950F931F9302
:10105000CF93DF9300D000D000D01F92CDB7DEB782
:101060008C0180E492E09A8389831B821C821D821A
:101070001E821F82188619861A86D801ED91FC916E
:101080000190F081E02DAE014F5F5F4F6AE070E0AC
:10109000C80119950DDEF8016087718782879387F3
:1010A0002A960FB6F894DEBF0FBECDBFDF91CF9169
:1010B0001F910F910895CF92DF92EF92FF92DC0182
:1010C0001D921D921D921C921397FB0130E020E0AF
:1010D000419150E0022E02C0440F551F0A94E2F7DE
:1010E000052E000C660B770BCD90DD90ED90FC90FB
:1010F00013974C295D296E297F294D935D936D933C
:101100007C931397285F3F4F2032310509F7FF90FA
:10111000EF90DF90CF900895FC01408351831282BD
:1011200013820895CF93DF9360911102D091120240
:10113000C09113028AE198E002DB6D2F8AE198E00A
:10114000FEDA6C2F8AE198E0DF91CF91F8CAEACFFE
:10115000FC018281882319F08130B1F00895EBEB16
:10116000F4E090E080E0DC01A957B84F2C91219386
:1011700001968A309105B9F78BEB94E0FB019383DC
:10118000828386EC94E043CF8BEC94E0FCCFFC01AF
:10119000DB012C9130E03383228311968C911197DF
:1011A000382B3383228312962C91129730E03583AB
:1011B000248313968C91382B3583248384E090E02C
:1011C00008950F931F93CF93DF938C01EC01269624
:1011D000CE01DDDFD8011C96ED91FC91CE01DF91AF
:1011E000CF911F910F911994DC01FB0112968C9104
:1011F0001297808313968C911397818314968C9108
:101200001497828315968C91838384E090E00895EF
:1012100082ED94E0089583EF94E00895FB0120812E
:10122000FC01228381E090E00895FC018281FB01B2
:10123000808381E090E00895FB0120813181FC01F1
:101240003383228382E090E008950F931F93CF931E
:10125000DF938C01EC012696CE01EEDFD8011A96C1
:10126000ED91FC91CE01DF91CF911F910F911994D7
:10127000FC0122818381FB012083818382E090E055
:10128000089590E080E0089586E095E0089587E273
:1012900095E0089587E395E008954F925F926F92ED
:1012A0007F928F929F92AF92BF92EF92FF920F9395
:1012B0001F93CF93DF9300D01F92CDB7DEB77C0191
:1012C0008B01CE010196F7DE89819A81AB81BC81C9
:1012D0004C015D0124E0820E911CA11CB11CA801EF
:1012E0004D5F5F4FFA0124E030E02901712C612C41
:1012F000481459046A047B0428F4618161932F5FC8
:101300003F4FF3CFF801E80FF91F1382F701538322
:10131000428304960F900F900F900F90DF91CF9122
:101320001F910F91FF90EF90BF90AF909F908F9083
:101330007F906F905F904F900895FC01DB018C913E
:10134000828311968D919C91129794838383139637
:101350004D915D916D917C9116974583568367837E
:10136000708717964D915D916D917C911A97418789
:101370005287638774871B968C9185878CE090E0F9
:1013800008950F931F93CF93DF938C01EC01269662
:10139000CE01D3DFD8015496ED91FC91CE01DF91BF
:1013A000CF911F910F911994DC01FB0112968C9142
:1013B0001297808313969C91139714968C9114978F
:1013C0009183828315963C91159716962C911697CA
:1013D00017969C91179718968C91189733832483AE
:1013E0009583868319963C9119971A962C911A9792
:1013F0001B969C911B971C968C911C97378320877A
:10140000918782871D968C9183878CE090E0089568
:1014100088E595E0089589E795E0089583E995E0EA
:10142000089584EB95E008954F925F926F927F92BA
:101430008F929F92AF92BF92EF92FF920F931F9362
:10144000CF93DF9300D01F92CDB7DEB77C018B0125
:10145000FB01808190E0B0E0A0E0F70182839383FC
:10146000A483B583FB012181922BF70182839383AF
:10147000A483B583FB012281A22BF701828393838E
:10148000A483B583FB012381B22BF701828393836D
:10149000A483B583FB01848190E0B0E0A0E0F70174
:1014A00086839783A087B187FB012581922BF70163
:1014B00086839783A087B187FB012681A22BF70142
:1014C00086839783A087B187FB012781B22BF70121
:1014D00086839783A087B187FB01808590E0B0E089
:1014E000A0E0F70182879387A487B587FB01218558
:1014F000922BF70182879387A487B587FB0122850A
:10150000A22BF70182879387A487B587FB012385E8
:10151000B22BF70182879387A487B587645F7F4FDB
:10152000CE010196C8DD89819A81AB81BC814C01D5
:101530005D01F0E18F0E911CA11CB11CA801415F5F
:101540005F4FFA0120E130E02901712C612C481431
:1015500059046A047B0428F4618161932F5F3F4F33
:10156000F3CFF801E80FF91F1786F7015787468771
:1015700040960F900F900F900F90DF91CF911F9199
:101580000F91FF90EF90BF90AF909F908F907F90C2
:101590006F905F904F9008950F931F93CF93DF93B9
:1015A000EC018B01029640DFF801E80FF91F208162
:1015B0002A8B21812B8B22812C8B23812D8B2481C3
:1015C0002E8B25812F8B2681288F2781298F20859F
:1015D0002A8F21852B8F22852C8F23852D8F248583
:1015E0002E8F25852F8F2785408950E070E060E0A1
:1015F000BA0155274427522B2685422B2189722B6D
:1016000048A359A36AA37BA32389448950E070E0CF
:1016100060E0BA0155274427522B2289422B2589A5
:10162000722B4CA35DA36EA37FA32789408D50E04E
:1016300070E060E0BA0155274427522B2689422BDF
:10164000218D722B48A759A76AA77BA7238D448DAC
:1016500050E070E060E0BA0155274427522B228DFC
:10166000422B258D722B4CA75DA76EA77FA7268DD9
:1016700028AB20A141A150E070E060E0BA015527FD
:101680004427522B278D422B22A1722B49AB5AABF8
:101690006BAB7CAB24A145A150E070E060E0BA01E7
:1016A00055274427522B23A1422B26A1722B4DAB49
:1016B0005EAB6FAB78AF27A130E03AAF29AF40A562
:1016C000342B3AAF29AF21A530E03CAF2BAF42A578
:1016D000342B3CAF2BAF23A530E03EAF2DAF44A55C
:1016E000342B3EAF2DAF25A530E0EF96398328830C
:1016F00046A5342B398328838F96DF91CF911F9194
:101700000F9108954F925F926F927F928F929F9266
:10171000AF92BF92EF92FF920F931F93CF93DF93FD
:1017200000D000D01F921F92CDB7DEB77C018B0195
:1017300002967ADE5C01B801680F791FCE0101962E
:10174000BADCB5016C5F7F4F89819A81AB81BC8126
:101750008D839E83AF83B8874B01072E000CAA08A8
:10176000BB08880E991EAA1EBB1EF801E60FF71FC4
:101770002F01401A510A712C612C481459046A0433
:101780007B0438F441919F0122503109D9014C93D7
:10179000EFCF8D819E81860F971FF801E80FF91F0B
:1017A0003197108261507109600F711FF701738BBF
:1017B000628B28960FB6F894DEBF0FBECDBFDF91C7
:1017C000CF911F910F91FF90EF90BF90AF909F909E
:1017D0008F907F906F905F904F900895AB01FC01C8
:1017E000A681B78164817581ED91FC91119701907B
:1017F000F081E02DCD0119940F931F93CF93DF93C8
:10180000EC01FB01808188878E01075F1F4FEF8904
:10181000F88DB801CE0106961995B801CE010D9646
:10182000DF91CF911F910F91D9CF84EC95E008956E
:1018300084E192E0089585EE95E0089586E096E0D3
:1018400008954F925F926F927F928F929F92AF9284
:10185000BF92EF92FF920F931F93CF93DF9300D02D
:101860001F92CDB7DEB77C018B01FB018191BF01D7
:10187000F7018283CE0101961EDC89819A81AB81BA
:10188000BC814C015D01F5E08F0E911CA11CB11CC7
:10189000A8014C5F5F4FFA0125E030E02901712C6F
:1018A000612C481459046A047B0428F46181619313
:1018B0002F5F3F4FF3CFF801E80FF91F1482F701B4
:1018C0005483438305960F900F900F900F90DF91F4
:1018D000CF911F910F91FF90EF90BF90AF909F908D
:1018E0008F907F906F905F904F90089589E196E080
:1018F00008958AE396E008954F925F926F927F92E7
:101900008F929F92AF92BF92CF92DF92EF92FF920F
:101910000F931F93CF93DF93CDB7DEB72C970FB6FE
:10192000F894DEBF0FBECDBF7C018B01DB018C9133
:1019300090E0F7019383828311962C91922B9383ED
:1019400082836E5F7F4FCE010196B5DB89809A80DE
:10195000AB80BC8024013501F6E04F0E511C611CA8
:10196000711C98012B5F3F4FF90186E090E0AC01BC
:1019700070E060E0441555056605770520F4418167
:1019800041930196F4CFB4016A5F7F4FF801E80DEF
:10199000F91D1582D70115963C932E931497600F6D
:1019A000711FCE01059687DBBAE08B0E911C4D802E
:1019B0005E806F807884C401092C000CAA0BBB0BDD
:1019C0005C016D01A40CB51CC61CD71CF801E80D08
:1019D000F91DAF01401B510B70E060E04A155B053B
:1019E0006C057D0538F42191AF0142505109DA01AF
:1019F0002C93EFCF480C591CB801640D751DFB01E9
:101A000031971082C4010197800F911FF7019783CE
:101A10008683CE0109964FDB92012C5F3F4F89846C
:101A20009A84AB84BC84A901032E000C660B770B4F
:101A3000480D591D6A1D7B1DF801E20FF31FCF01F0
:101A4000801B910BB0E0A0E084179507A607B707AD
:101A500028F48191DF0112978C93F1CFC901880D91
:101A6000991DF801E80FF91FDF0111971C92215011
:101A70003109020F131FD70119961C930E93189763
:101A80002181428150E070E060E0BA01552744278F
:101A9000522B2081422B2381722BF70142875387DF
:101AA0006487758704962C960FB6F894DEBF0FBE38
:101AB000CDBFDF91CF911F910F91FF90EF90DF90FD
:101AC000CF90BF90AF909F908F907F906F905F90DE
:101AD0004F90089583E596E0089584E796E0089591
:101AE000FC01DB014C9150E070E060E042835383E5
:101AF0006483758311968C911197582B428353837D
:101B00006483758312968C911297682B428353835A
:101B10006483758313968C911397782B4283538338
:101B20006483758314964C91149750E070E060E0E4
:101B3000468357836087718715968C911597582B2C
:101B4000468357836087718716968C911697682B0A
:101B5000468357836087718717968C91782B4683CD
:101B600057836087718788E090E00895DC01FB016E
:101B700012968C911297808313968C911397818380
:101B800014968C911497828315968C911597838364
:101B900016968C911697848317968C911797858348
:101BA00018968C911897868319968C91878388E074
:101BB00090E008958EBD00000DB407FEFDCF8EB5F8
:101BC0000895CF92DF92EF92FF920F931F93CF93DE
:101BD000DF937C0160E0FC0180810E94BA0480E612
:101BE000E9DF80E0E7DFC82F80E0E4DFC82E80E097
:101BF000E1DF082F80E0DEDFD82F61E0F701808190
:101C00000E94BA046C2F70E090E080E0962F882745
:101C100077276627D12CF12CE12C7601DD24CC240A
:101C20006C0D7D1D8E1D9F1D10E030E020E0322FD9
:101C3000212F102F0027600F711F821F931F6D0F20
:101C4000711D811D911DDF91CF911F910F91FF900B
:101C5000EF90DF90CF900895CF93DF93EC0160E099
:101C600088810E94BA0488E9A5DF80E0A3DF80E0D4
:101C7000A1DF80E09FDF80E09DDF61E088810E943E
:101C8000BA0460E088810E94BA0480EE93DF61E0CC
:101C90008881DF91CF910C94BA048AE690E1DCDF71
:101CA00088E690E1D9CFFC0180819181009711F005
:101CB0000C94482E0895E2E5F0E14481558170E0EE
:101CC00060E0818592850C94BE2FF5DF0C94800531
:101CD000CF92DF92EF92FF920F931F93CF93DF93F8
:101CE000EC018B0169017A01E6DF0C171D0784F016
:101CF0008091541090915510C817D90728F4B70156
:101D0000A601CE010E9433020E9480052196EDCFEC
:101D1000DF91CF911F910F91FF90EF90DF90CF90C7
:101D200008950F931F93E0911808F0911908E1307E
:101D3000F105C9F0E230F105B9F1EF2B89F4C8DF04
:101D40000E94580660931408709315088093160833
:101D50009093170881E090E09093190880931808F9
:101D60001F910F9108950E94580600911408109138
:101D700015082091160830911708601B710B820B13
:101D8000930B643671058105910550F39EDF0E9427
:101D90005806609314087093150880931608909362
:101DA000170882E090E0D8CF0E94580600911408EE
:101DB000109115082091160830911708601B710BBF
:101DC000820B930B643671058105910548F21092E0
:101DD000190810921808C4CF0F931F93CF93DF9365
:101DE0008C01EB01809112089091130881309105CC
:101DF00009F454C03CF4892B01F1DF91CF911F917C
:101E00000F9108958230910509F46AC00397A9F7EC
:101E10000E94580600910E0810910F08209110089A
:101E200030911108601B710B820B930B643F714062
:101E30008105910508F068C0E0CF0E9458066093C4
:101E40000E0870930F0880931008909311088091EA
:101E50000C0890910D089C012F5F3F4F30930D08A7
:101E600020930C08039764F083E090E090931308AC
:101E7000809312082ADF10920D0810920C08BDCF33
:101E800020E03FEF4FEF50E0BE01C80121DF81E0CD
:101E900090E09093130880931208AFCF0E945806E9
:101EA00000910E0810910F08209110083091110830
:101EB000601B710B820B930B6436710581059105D4
:101EC00008F49BCF02DF0E94580660930E087093BF
:101ED0000F08809310089093110882E090E0D9CF0A
:101EE0000E94580600910E0810910F0820911008CA
:101EF00030911108601B710B820B930B64367105D6
:101F00008105910508F479CF1092130810921208F8
:101F100074CFCF93DF9320917607309177072230EB
:101F2000310509F45BC02330310509F489C0232B46
:101F3000F9F4029771F5BFDE8091EA0781111CC0A8
:101F400087E090E090937507809374071092730771
:101F500010927207809174079091750790937107A2
:101F60008093700782E090E09093770780937607E4
:101F700080E0DF91CF91089587E190E0909375071D
:101F80008093740780E190E09093730780937207C9
:101F9000E1CF91DE8091EA07811117C088E090E0DF
:101FA00090937507809374078FE090E09093730788
:101FB00080937207809174079091750790937107D1
:101FC0008093700783E090E0CFCF88E190E090931A
:101FD0007507809374078FE190E0E8CFC091700798
:101FE000D09171078091541090915510C817D9075E
:101FF00038F440E05FE76FEF70E0CE010E943302FB
:102000000E948005CE01019790937107809370071D
:1020100080917207909173078C179D070CF4A8CFDD
:102020008091740790917507909371078093700762
:1020300042DE0E948005109277071092760798CFB3
:10204000C0917007D09171078091541090915510F4
:10205000C817D90738F440E05FE76FEF70E0CE01B2
:102060000E9433020E948005CE0101969093710771
:10207000809370078091720790917307C817D907F2
:102080000CF476CFCDCFFC0101900020E9F7319719
:10209000AF01481B590BBC018AEF99E00C94D602A2
:1020A0008F929F92AF92BF920F931F93CF93DF9324
:1020B000CDB7DEB7A1970FB6F894DEBF0FBECDBF88
:1020C00019A2423008F44AE08E010F5D1F4F842EA2
:1020D000912CB12CA12CA50194010E94822DE62FF8
:1020E000B901CA01EA30ECF4E05DD801EE938D014C
:1020F000232B242B252B79F790E080E0109711F00B
:10210000CD01C1DFA1960FB6F894DEBF0FBECDBFE3
:10211000DF91CF911F910F91BF90AF909F908F90C3
:102120000895E95CE2CF0F931F93CF93DF93EC0107
:1021300088819981009759F02A813B8126173707BA
:1021400030F081E0DF91CF911F910F9108958B01C5
:102150006F5F7F4F0E94D12E009759F0998388833B
:102160001B830A832C813D81232B59F7FC011082AC
:10217000E8CF80E0E7CFEF92FF920F931F93CF93CA
:10218000DF93EC017B018A01BA01CDDF288139811F
:10219000811114C02115310519F0C9010E94482E82
:1021A000198218821D821C821B821A82CE01DF9145
:1021B000CF911F910F91FF90EF9008951D830C8395
:1021C000B701C9010E94CE2FF1CFCF93DF931F92A9
:1021D0001F92CDB7DEB7FC011182108213821282EA
:1021E0001582148269831A82BE016F5F7F4FFB01E3
:1021F00001900020E9F73197AF01461B570BBBDF79
:102200000F900F90DF91CF910895AF92BF92CF9230
:10221000DF92EF92FF920F931F93CF93DF93EC0126
:102220008B01029601D9F801E80FF91F2081318155
:10223000C280D12CF12CE12C7601DD24CC24D32AD0
:10224000C22A2381F22A5C0124E0A20EB11C8A89F1
:102250009B89AC89BD898C159D05AE05BF0538F4F9
:10226000B6018F89988D0E94D12E988F8F8BCA8A44
:10227000DB8AEC8AFD8AF801EA0DFB1D40E050E0A4
:10228000BA01CF01801B910BCA88DB88EC88FD88DE
:102290004C155D056E057F0560F481918E8BAF89CD
:1022A000B88DA40FB51F8C934F5F5F4F6F4F7F4F5B
:1022B000E8CFDF91CF911F910F91FF90EF90DF90CA
:1022C000CF90BF90AF900895EF92FF920F931F931E
:1022D000CF93DF937C018B01DC011296ED91FC9191
:1022E000EF0109900020E9F72197CE1BDF0BAE012B
:1022F00070E060E0C8010E948C08F7016281738180
:10230000AE01C80104960E94B52FCE010496DF915C
:10231000CF911F910F91FF90EF900895EF92FF9250
:102320000F931F93CF93DF938C01EB01FC0182810C
:1023300088838381898384818A8385818B83868155
:102340008C8387818D8380858E8381858F83828531
:1023500088878385898784858A8785858B87A685F5
:10236000B785FD0101900020E9F731977F01EA1A56
:10237000FB0AA70170E060E0CE010C960E948C0879
:10238000F80166857785A701CE0140960E94B52F9A
:10239000C7014096DF91CF911F910F91FF90EF9071
:1023A00008950F931F93CF93DF93EC018B01029657
:1023B000B5DFBC01F801E80FF91F8A8980838B899A
:1023C00081838C8982838D8983838E8984838F899D
:1023D0008583888D8683898D87838A8D80878B8D81
:1023E00081878C8D82878D8D83878E8D84878F8D5D
:1023F000858738A129A19AA18BA136872787908B41
:10240000818B3CA12DA19EA18FA1328B238B948B1C
:10241000858B38A529A59AA58BA5368B278B908F00
:10242000818F3CA52DA59EA58FA5328F238F948FDC
:10243000858F88A9868F89A93AA92BA99CA9878FFE
:1024400030A321A392A38DA93EA92FA998AD83A360
:1024500034A325A396A389AD87A38AAD80A78BADAE
:1024600081A78CAD82A78DAD83A78EAD84A7DE0139
:10247000DF968FAD85A711968C9186A7CB018F969D
:10248000DF91CF911F910F910895CF92DF92EF923C
:10249000FF920F931F93CF93DF936C017B01029602
:1024A0003DDF8C01D6015296ED91FC91EF01099030
:1024B0000020E9F72197CE1BDF0BAE0170E060E052
:1024C000C701800F911F0E948C080C5F1F4FF601FF
:1024D00062897389AE01C701800F911F0E94B52FD9
:1024E000CE01800F911FDF91CF911F910F91FF902F
:1024F000EF90DF90CF900895CF92DF92EF92FF920E
:102500000F931F93CF93DF93EC018B01029606DFAD
:10251000F801E80FF91F2A8920832B8921832C8950
:1025200022832D8923830496F801E80FF91F40E0E8
:1025300050E0BA01CF01801B910BCA88DB88EC8880
:10254000FD884C155D056E057F0558F4AF89B88D83
:10255000A40FB51F8C9181934F5F5F4F6F4F7F4FDB
:10256000E9CFDF91CF911F910F91FF90EF90DF9016
:10257000CF9008952F923F924F925F926F927F92E9
:102580008F929F92AF92BF92CF92DF92EF92FF9283
:102590000F931F93CF93DF93CDB7DEB72E970FB670
:1025A000F894DEBF0FBECDBF8C016B01DB018D90B7
:1025B0009D90AD90BC90FC0182819381A481B581F6
:1025C00088159905AA05BB0570F4B401660F771F3D
:1025D000660F771F828593850E94D12ED8011B96A6
:1025E0009C938E931A97F80182829382A482B5827B
:1025F000C60140E050E0BA01A4E0EA2EF12C9801B7
:102600002A5F3F4FDC011596EC91159716964C907A
:102610001697512C712C612C3201552444245E2ACA
:102620001496EC9114974E2A1796EC917E2AD701B6
:102630001701E4E02E0E311C71010496F80182802E
:102640009380A480B580481559056A057B05A8F4D8
:1026500046825782608671861497A284B384AA0D3D
:10266000BB1DE4E0BE2EF90101900D92BA94E1F792
:102670004F5F5F4F6F4F7F4FC5CF84859585A68590
:10268000B78584159505A605B70570F4B201660FE8
:10269000771F660F771F848995890E94D12ED801F4
:1026A00055969C938E935497F8014486558666867A
:1026B0007786C601820D931D412C512C32011C01DD
:1026C0009801205F3F4FDC0111966C911197129693
:1026D0008C901297912CB12CA12C54019924882410
:1026E000962A6C91862A13966C91B62AB4E0EB0E6A
:1026F000F11CF80144855585668577854416550695
:1027000066067706C0F4808A918AA28AB38ABC01E1
:1027100062197309A489B589A60FB71F64E0F9018E
:1027200001900D926A95E1F7BFEF4B1A5B0A6B0AB5
:102730007B0A0496C8CF86899789A08DB18D8815AC
:102740009905AA05BB0560F4B401660F771F848D57
:10275000958D0E94D12ED8015D969C938E935C97A7
:10276000F801868A978AA08EB18E412C512C3201B5
:102770001801FAE12F0E311CF80186899789A08D86
:10278000B18D481659066A067B0608F05CC0B60192
:102790006E0D7F1DCE0101960E945B0897012C5F94
:1027A0003F4F3E872D8789809A80AB80BC80C901CE
:1027B000032E000CAA0BBB0BAC01BD01480D591D2B
:1027C0006A1D7B1D49875A876B877C87F901EC0D51
:1027D000FD1D9F012C193D09B90190E080E029857C
:1027E0003A854B855C85621773078407950728F443
:1027F0002191DF0112972C93ECCFED84FE84E80C3D
:10280000F91CF601EE0DFF1D319710828D859E8516
:1028100001978C0D9D1DD8015B969C938E935A97C2
:10282000C201880F991F5C96ED91FC91E80FF91F8A
:10283000D1018D919C9191838083BFEF4B1A5B0AEC
:102840006B0A7B0A99CFC7012E960FB6F894DEBFAC
:102850000FBECDBFDF91CF911F910F91FF90EF90F1
:10286000DF90CF90BF90AF909F908F907F906F90B0
:102870005F904F903F902F9008952F923F924F92EC
:102880005F926F927F928F929F92AF92BF92CF9200
:10289000DF92EF92FF920F931F93CF93DF93CDB709
:1028A000DEB7A6970FB6F894DEBF0FBECDBF8C0182
:1028B0000E9458064B015C01980125573B4F3E8B07
:1028C0002D8BF90180819181A281B3817501640111
:1028D000C81AD90AEA0AFB0AD701C601893F9A42F7
:1028E000A105B10510F035971082180134E8231ABC
:1028F0003BEF330AD1018D919C91892B79F0F8013E
:10290000E157FB4F80819181A281B38188159905A0
:10291000AA05BB0518F4F1011182108298012C5709
:102920003B4F3A8B298BA80140585B4F5C8B4B8BFC
:10293000C8014896988F8F8BD801AA57BB4FBC8F80
:10294000AB8FF801EC56FB4FFE8FED8F215F3F4FB1
:1029500038A32F8F42505109588B4F8786599B4F70
:102960009A8F898F1996BAA3A9A3A50194012C5E09
:102970003F4F4F4F5F4F2BA33CA34DA35EA3F801E6
:1029800084899589A689B789892B8A2B8B2BB9F5E0
:10299000D80112968D919C91DC01ED91FC910284FD
:1029A000F385E02D19959C0197FF3DC0F801EA578A
:1029B000FB4F8081882301F17801B9E7EB1ABBEF67
:1029C000FB0AF70180819181A281B381A501940165
:1029D000281B390B4A0B5B0BDA01C901853C994076
:1029E000A105B10548F0C8010E942608D7018D92C3
:1029F0009D92AD92BC92139790E080E0B6C10E9488
:102A00005806681979098A099B09F801C488D5888C
:102A1000E688F788C616D706E806F90608F0B8CFA4
:102A20008EEF9FEFA2C1A989BA898D919C911197D0
:102A3000820F931F8D939C93F10140815181473008
:102A40005105F9F4A98DBA8D8D919C911197AC0126
:102A50004F5F5F4F4D935C93800F911FFC01208F60
:102A6000AF85B8898D919C91119701978D939C9317
:102A7000892B09F084CF88E090E0F1019183808375
:102A80007ECF4115510521F52F3F310581F481E0BD
:102A900090E091838083CBA0DCA0EDA0FEA0A9A153
:102AA000BAA1CD92DD92ED92FC92139768CF0E946D
:102AB0005806681979098A099B09693873418105A3
:102AC000910508F45CCFF801EA57FB4F1082A8CFBC
:102AD0004130510589F42E3F310519F482E090E030
:102AE000CCCF11821082EB8DFC8D8081811147CF7C
:102AF000C8010E94260843CF4230510591F4AF85AA
:102B0000B8892D933C93E98DFA8D1182108283E070
:102B100090E0D1018D939C93E989FA8931832083D8
:102B20002ECF4330510571F4322F2227AF85B8895B
:102B30008D919C911197280F391F2D933C9384E020
:102B400090E09BCF4430510579F460E071E00E9441
:102B50006F2D8F3F910529F485E090E0918380836C
:102B60000ECF118210820BCF4530510569F4AB892D
:102B7000BC892D933C9386E090E091838083A98962
:102B8000BA892D933C93FBCE46305105A1F4322FE8
:102B90002227EB89FC8980819181280F391F31839D
:102BA000208387E090E0D1018D939C93EF85F88995
:102BB000808191815DCF4830510509F0E0CE1182CE
:102BC000108260E071E00E946F2D8F3F910509F047
:102BD000D6CEAB89BC89ED91FC91309709F0DEC06F
:102BE000C8010E94260884E392E09A8389831C82AC
:102BF0001B828AE297E09E838D8398878F839A87D2
:102C000089871B861C861D861E866801B8EECB1A36
:102C1000BBEFDB0A7801E6EBEE1AEBEFFE0A412C84
:102C200022E0522E612C712CD601ED91FC9130974F
:102C3000A9F1848195819C838B83808191819E837E
:102C40008D8382819381DC01ED91FC910480F5817B
:102C5000E02D199598878F83D601ED91FC918281A3
:102C60009381DC01ED91FC910680F781E02D1995AF
:102C70009A8789874B865C866D867E86D601ED9124
:102C8000FC9160857185D801ED91FC910190F081F6
:102C9000E02DAE014F5F5F4FC8011995B2E0CB0E3A
:102CA000D11CEC14FD0409F0BFCF412C92E0592E49
:102CB000612C712CF701A081B1811097E1F112967E
:102CC0008D919C9113979C838B8314968D919C91ED
:102CD00015979E838D83ED91FC9111970480F5816A
:102CE000E02DCD01199598878F83D7018D919C9107
:102CF000DC01ED91FC910680F781E02D19959A8712
:102D000089874B865C866D867E86D801ED91FC9125
:102D1000C080D180F70180819181DC01ED91FC912F
:102D20000280F381E02D1995AE014F5F5F4FBC012A
:102D3000C801F6011995F2E0EF0EF11CE214F3045C
:102D400009F0B8CFF801EA57FB4F81E08083319654
:102D500080829182A282B382AD89BE898D929D923A
:102D6000AD92BC9213978FEF9FEFA6960FB6F89493
:102D7000DEBF0FBECDBFDF91CF911F910F91FF90AE
:102D8000EF90DF90CF90BF90AF909F908F907F900B
:102D90006F905F904F903F902F900895EA30F1052B
:102DA00009F0A1C080E492E09A8389831B821C828F
:102DB0001D821E821F82188619861A860E94580656
:102DC000F801C084D184E284F3849B01AC012C1906
:102DD0003D094E095F0969017A016F89788DCE013D
:102DE00001960E94700DC701B60128EE33E040E065
:102DF00050E00E94822D69017A019B01AC018B8118
:102E00009C81AD81BE818C0D9D1DAE1DBF1D8B8330
:102E10009C83AD83BE8360E472E48FE090E00E9407
:102E20004C2DCF80D884E984FA84DC01CB018C0D51
:102E30009D1DAE1DBF1D8F839887A987BA870E94ED
:102E40005806CF80D884E984FA8436E3D31A35E66D
:102E5000E30A34ECF30A28EE33E040E050E00E944D
:102E6000822D29013A019B01AC0160E472E48FE0FC
:102E700090E00E944C2DA7019601261B370B480BB2
:102E8000590BCA01B9012B813C814D815E812150D2
:102E900031094109510969017A01C418D508E608C8
:102EA000F7082601370120E03AEC4AE95BE30E948B
:102EB000822D420E531E641E751ED8011C964D9223
:102EC0005D926D927C921F97F801608B718B828B63
:102ED000938B0E945806AD89BE896D937D938D9327
:102EE0009C9313974CCDE630F10551F46F89788DA2
:102EF0008D8D9E8D3FDB81E0EF8DF8A180833FCDEE
:102F0000EB30F10521F4AB8DBC8D1C9238CDEF5325
:102F1000FE4FEE0FFF1FE00FF11F808191810097A0
:102F200009F42DCDDC01ED91FC910190F081E02DB3
:102F30006F89788D199523CD4F925F926F927F9212
:102F40008F929F92AF92BF92CF92DF92EF92FF92B9
:102F50000F931F93CF93DF93EC017B018A81FB01D9
:102F600080838B8181838C8182838D81838334965E
:102F7000412C512C320104E010E09F012F5F3F4FA4
:102F8000CF010296DF011396A8010C5F1F4F8A80C4
:102F90009B80AC80BD80481459046A047B04C8F44B
:102FA000AA85BB85A40FB51F14974C9111962C913F
:102FB000119712969C91129713968C9140832183BE
:102FC000928383838FEF481A580A680A780A3496E6
:102FD000D4CF4C8540834D85F90140832E85FC017B
:102FE00020838F858C93F701E00FF11F412C512C2A
:102FF0003201AF019F012F5F3F4FCF010296DF01EA
:1030000013960C5F1F4F8C849D84AE84BF8448143C
:1030100059046A047B04D8F4CF01841B950BAC8956
:10302000BD89A80FB91F3C9111962C91119712964A
:103030009C91129713968C91308321839283838382
:103040008FEF481A580A680A780A3496D3CF4E8907
:1030500040834F89F9014083288DFC012083898DAD
:103060008C93412C512C32018E899F89A88DB98D6A
:10307000481659066A067B0680F55201AA0CBB1C4D
:10308000EC8DFD8DEA0DFB1DA081B181FD0101904C
:103090000020E9F731976F01CA1ADB0AA60170E038
:1030A00060E0C701800F911F0E948C080C5F1F4FCA
:1030B0008C8D9D8DA80EB91EF50160817181A601D0
:1030C000C701800F911F0E94B52F0C0D1D1DFFEF32
:1030D0004F1A5F0A6F0A7F0AC7CFC801DF91CF91ED
:1030E0001F910F91FF90EF90DF90CF90BF90AF9026
:1030F0009F908F907F906F905F904F900895EF9288
:10310000FF920F931F93CF93DF938C017B01DC0120
:1031100012962C911297FB012193CF011396ED91FA
:10312000FC91EF0109900020E9F72197CE1BDF0BFE
:10313000AE0170E060E00E948C08D80113966D919A
:103140007C91AE01C70105960E94B52FCE01059670
:10315000DF91CF911F910F91FF90EF900895CF9243
:10316000DF92EF92FF920F931F93CF93DF936C0147
:10317000EB01DC0112968C911297888313968C9147
:10318000139789831496ED91FC91DF010D90002037
:10319000E9F78D01015011090E1B1F0BA80170E00A
:1031A00060E0CE0102960E948C08F6016481758170
:1031B000A801CE0106960E94B52FC8010696F60119
:1031C000A681B781FD0101900020E9F731977F01C9
:1031D000EA1AFB0AA70170E060E08C0F9D1F0E94B5
:1031E0008C08065F1F4FD60116966D917C91A70142
:1031F000CE01800F911F0E94B52F0E0D1F1DF601ED
:10320000A085B185FD0101900020E9F731977F018C
:10321000EA1AFB0AA70170E060E0CE01800F911F5F
:103220000E948C080C5F1F4FD60118966D917C91FF
:10323000A701CE01800F911F0E94B52FC701800FFB
:10324000911FF6016285438534852585C80FD91FF6
:10325000688349833A832B830496DF91CF911F9132
:103260000F91FF90EF90DF90CF9008951F920F92F3
:103270000FB60F9211240BB60F922F933F934F93DB
:103280005F936F937F938F939F93AF93BF93EF93CE
:10329000FF938AE198E00E947D03FF91EF91BF9137
:1032A000AF919F918F917F916F915F914F913F91DE
:1032B0002F910F900BBE0F900FBE0F901F9018957F
:1032C0001F920F920FB60F9211240BB60F922F93ED
:1032D0003F934F935F936F937F938F939F93AF939E
:1032E000BF93EF93FF938AE198E00E940303FF915D
:1032F000EF91BF91AF919F918F917F916F915F916E
:103300004F913F912F910F900BBE0F900FBE0F90DA
:103310001F9018951F920F920FB60F9211240BB6A3
:103320000F922F933F934F935F936F937F938F935E
:103330009F93AF93BF93EF93FF9387EB98E00E9427
:103340007D03FF91EF91BF91AF919F918F917F91FD
:103350006F915F914F913F912F910F900BBE0F9006
:103360000FBE0F901F9018951F920F920FB60F92DD
:1033700011240BB60F922F933F934F935F936F934C
:103380007F938F939F93AF93BF93EF93FF9387EBBD
:1033900098E00E940303FF91EF91BF91AF919F913D
:1033A0008F917F916F915F914F913F912F910F90EE
:1033B0000BBE0F900FBE0F901F9018951F920F928B
:1033C0000FB60F9211240BB60F922F933F934F938A
:1033D0005F936F937F938F939F93AF93BF93EF937D
:1033E000FF9384E599E00E947D03FF91EF91BF91E7
:1033F000AF919F918F917F916F915F914F913F918D
:103400002F910F900BBE0F900FBE0F901F9018952D
:103410001F920F920FB60F9211240BB60F922F939B
:103420003F934F935F936F937F938F939F93AF934C
:10343000BF93EF93FF9384E599E00E940303FF910C
:10344000EF91BF91AF919F918F917F916F915F911C
:103450004F913F912F910F900BBE0F900FBE0F9089
:103460001F9018951F920F920FB60F9211240BB652
:103470000F922F933F934F935F936F937F938F930D
:103480009F93AF93BF93EF93FF938AEF99E00E94CE
:103490007D03FF91EF91BF91AF919F918F917F91AC
:1034A0006F915F914F913F912F910F900BBE0F90B5
:1034B0000FBE0F901F9018951F920F920FB60F928C
:1034C00011240BB60F922F933F934F935F936F93FB
:1034D0007F938F939F93AF93BF93EF93FF938AEF65
:1034E00099E00E940303FF91EF91BF91AF919F91EB
:1034F0008F917F916F915F914F913F912F910F909D
:103500000BBE0F900FBE0F901F9018951F920F9239
:103510000FB60F9211242F933F938F939F93AF93E6
:10352000BF938091790790917A07A0917B07B09122
:103530007C073091780723E0230F2D3758F501964B
:10354000A11DB11D209378078093790790937A0786
:10355000A0937B07B0937C0780917D0790917E07B5
:10356000A0917F07B09180070196A11DB11D8093A6
:103570007D0790937E07A0937F07B0938007BF914C
:10358000AF919F918F913F912F910F900FBE0F9010
:103590001F90189526E8230F0296A11DB11DD2CFCA
:1035A0001F920F920FB60F9211248F939F9388EE64
:1035B00093E09093A5008093A4009F918F910F902A
:1035C0000FBE0F901F9018951F920F920FB60F927B
:1035D00011248F939F9385E09FEF909395008093A4
:1035E00094009F918F910F900FBE0F901F90189590
:1035F0001F93CF93DF93EC01862F6883798361E07B
:103600000E94080561E088810E94BA041FB7F894FF
:1036100080916E07811127C0EDEEF2E08491EDE814
:10362000F2E09491E82FF0E0EE0FFF1FE252FE4F20
:10363000A591B491EC91E92321F461E085E30E9426
:10364000BA0461E085E30E9408058CB580618CBDF9
:103650008CB580648CBD61E084E30E94080561E064
:1036600083E30E94080580916E078F5F80936E0749
:103670001FBF60E088810E94BA0488E80E94DA0DCA
:1036800083E00E94DA0D61E088810E94BA0460E064
:1036900088810E94BA0488E80E94DA0D80E00E94C6
:1036A000DA0D61E088810E94BA0460E088810E949E
:1036B000BA0488E80E94DA0D80E00E94DA0D61E029
:1036C00088810E94BA0460E088810E94BA0488E878
:1036D0000E94DA0D80E00E94DA0D61E088810E948C
:1036E000BA0460E088810E94BA0488E80E94DA0D7A
:1036F00080E80E94DA0D61E088810E94BA0460E0EF
:1037000088810E94BA0480E90E94DA0D80E00E945C
:10371000DA0D61E088810E94BA0460E088810E942D
:10372000BA0480E90E94DA0D80E00E94DA0D61E0BF
:103730008881DF91CF911F910C94BA0410921D08DB
:1037400010921C0848EE53E060E070E040931E08C1
:1037500050931F0860932008709321088BE692E035
:1037600090931B0880931A0825E331E030932708D3
:103770002093260824E331E0309329082093280879
:1037800020E331E030932B0820932A0821E331E035
:1037900030932D0820932C0822E331E030932F083A
:1037A00020932E0826E331E030933108209330082F
:1037B000109233081092340810923508109236088F
:1037C0001092BA081092B9084093BB085093BC08F5
:1037D0006093BD087093BE089093B8088093B708B3
:1037E00025ED30E03093C4082093C30824ED30E089
:1037F0003093C6082093C50820ED30E03093C80808
:103800002093C70821ED30E03093CA082093C908FF
:1038100022ED30E03093CC082093CB0826ED30E049
:103820003093CE082093CD081092D0081092D10882
:103830001092D2081092D30810925709109256098C
:10384000409358095093590960935A0970935B0942
:1038500090935509809354092DEC30E03093610921
:10386000209360092CEC30E03093630920936209C7
:1038700028EC30E0309365092093640929EC30E0AE
:1038800030936709209366092AEC30E03093690988
:10389000209368092EEC30E030936B0920936A097D
:1038A00010926D0910926E0910926F0910927009B2
:1038B0001092FD091092FC094093FE095093FF09F4
:1038C0006093000A7093010A9093FB098093FA09B0
:1038D00085EC90E09093070A8093060A84EC90E0D0
:1038E0009093090A8093080A80EC90E090930B0A69
:1038F00080930A0A81EC90E090930D0A80930C0A61
:1039000082EC90E090930F0A80930E0A86EC90E090
:103910009093110A8093100A1092130A1092140ABD
:103920001092150A1092160AA1EFB9E090E080E01B
:1039300021E2E1E0F0E08630910510F4F0E0E0E013
:10394000AC01425F5F4FE40FF51F20935700E491F5
:10395000ED9301968930910561F765E370E08AE6A1
:1039600090E146DE61E370E088E690E141DE10928E
:10397000531010925A10109261101092621010920F
:1039800063101092641081E08093601080935D104A
:1039900010925E1092E090935F108093521080E638
:1039A00090E090935710809356100E94AC2D909306
:1039B0005C1080935B10009709F4CFC220E6FC01F5
:1039C00011922A95E9F780E290E090935510809348
:1039D00054108DE190E0909359108093581080918D
:1039E0005310882341F061E08DE10E94080560E0FA
:1039F0008DE10E94BA04E5EDF2E0E491F0E0EE0F13
:103A0000FF1FE256FD4F859194919093661080932D
:103A10006510E5E7F2E0E491E093671087EE92E04D
:103A200090933A10809339108BED92E09093401070
:103A300080933F10109241108FEC92E090934310CE
:103A4000809342108AE297E090934510809344104F
:103A500082E896E0909347108093461022E430E18C
:103A6000309349102093481022E030E030934F10FB
:103A700020934E1090933E1080933D1088EA98E07A
:103A8000909351108093501085EC92E09093880BA6
:103A90008093870B8AEF99E090938A0B8093890B30
:103AA00080E091EEA0E0B0E080938B0B90938C0BC4
:103AB000A0938D0BB0938E0B10920D1089EB92E0BA
:103AC00090931C1080931B101092311010923210A2
:103AD0001092331010923410109238101092371048
:103AE000EFE9FFE081ED9FE0119211928E179F07A1
:103AF000D9F7E1EDFFE01192119280E1E330F80790
:103B0000D1F7EFE9FBE011928DE0EF39F807D9F733
:103B1000EFE9FDE011928FE0EF39F807D9F7109245
:103B20001D1010921E1010921F1010922010109253
:103B30002610109225101092271010922810109223
:103B4000291010922A101092301010922F101092FB
:103B50009B0B10929C0B10929D0B10929E0B83E579
:103B600093E09093700B80936F0B8DEA92E09093AB
:103B7000760B8093750B1092770B1092790B109245
:103B8000780B10927A0B10927B0B10927C0B109298
:103B90007D0B10927E0B10927F0B1092800B109277
:103BA000810B1092820B84E696E09093840B8093B5
:103BB000830B81E090E09093860B8093850B22E944
:103BC00036E03093740B2093730B47E453E050932B
:103BD000640B4093630B2BE333E030936A0B209329
:103BE000690B67EA78E070936C0B60936B0B9093B2
:103BF0006E0B80936D0B6FE976E07093680B6093AA
:103C0000670B5093580B4093570B30935E0B2093E8
:103C10005D0B2DE43EE03093600B20935F0B90939F
:103C2000620B8093610B2DEA36E030935C0B20939E
:103C30005B0B2FE233E030934A0B2093490B23E2D6
:103C400033E03093500B20934F0B1092520B109295
:103C5000510B23EB31E03093540B2093530B909393
:103C6000560B8093550B2CEB36E030934E0B209384
:103C70004D0B47E153E050933D0B40933C0B2BE041
:103C800033E03093430B2093420B1092440B6BEBC9
:103C900071E07093460B6093450B9093480B8093B3
:103CA000470B69EC76E07093410B6093400B5093A7
:103CB000300B40932F0B3093360B2093350B109223
:103CC000370B27EE34E03093390B2093380B909369
:103CD0003B0B80933A0B28ED36E03093340B209366
:103CE000330B2FEF32E03093200B20931F0B23EF89
:103CF00032E03093260B2093250B1092280B109264
:103D0000270B10922A0B1092290B25EC31E03093EF
:103D10002C0B20932B0B90932E0B80932D0B80EF6D
:103D200096E09093240B8093230B81EA92E090938A
:103D30000C0B80930B0B25E932E030930E0B209394
:103D40000D0B10920F0B1092100B1092110B109282
:103D5000120B1092130B1092140B1092150B109261
:103D6000160B1092170B1092180B1092190B109241
:103D70001A0B8AE297E090931C0B80931B0B909395
:103D80001E0B80931D0B48E057E05093020B4093AD
:103D9000010B4BE05BE05093040B4093030B10923C
:103DA0000A0B1092090B49E852E05093E90A40933C
:103DB000E80A3093EB0A2093EA0A1092EC0A109278
:103DC000ED0A1092EE0A1092EF0A1092F00A109289
:103DD000F10A1092F20A1092F30A1092F40A109269
:103DE000F50A1092F60A1092F70A9093F90A809356
:103DF000F80A1092FA0A1092FB0A1092FC0A10922A
:103E0000FD0A1092000B1092FF0A4DE752E050930A
:103E1000A80A4093A70A3093AA0A2093A90A1092ED
:103E2000AB0A1092AC0A1092AD0A1092AE0A109230
:103E3000AF0A1092B00A1092B10A1092B20A109210
:103E4000B30A1092B40A1092B50A1092B60A90936F
:103E5000B80A8093B70A1092B90A1092BA0A10925F
:103E6000BB0A1092BC0A1092BD0A1092BE0A1092B0
:103E7000BF0A1092C00A1092C10A1092C20A109290
:103E8000C30A1092C40A1092C50A1092C60A109270
:103E9000C70A1092C80A1092C90A1092CA0A109250
:103EA000CB0A1092CC0A1092CD0A1092CE0A109230
:103EB000CF0A1092D00A1092D10A1092D20A109210
:103EC000D30A1092D40A1092D50A1092D60A1092F0
:103ED000D70A1092D80A1092D90A1092DA0A1092D0
:103EE000DB0A1092DC0A1092DD0A1092DE0A1092B0
:103EF000DF0A1092E10A1092E00A1092E30A10928F
:103F0000E20A1092E50A1092E40A1092E70A10926F
:103F1000E60A81E197E090939E0A80939D0A87EAE2
:103F20009AE09093A00A80939F0A1092A60A10929A
:103F3000A50A1092980A1092970A10929A0A109263
:103F4000990A10929C0A10929B0A50E040E06AE2A3
:103F500077E087E99AE00C94BB101092571010920A
:103F60005610109255101092541033CDCF93DF930A
:103F7000CDB7DEB7E0970FB6F894DEBF0FBECDBF6A
:103F8000789484B5826084BD84B5816084BD85B534
:103F9000826085BD85B5816085BD80916E00816040
:103FA00080936E00109281008091810082608093E6
:103FB00081008091810081608093810080918000E8
:103FC0008160809380008091B10084608093B10013
:103FD0008091B00081608093B000809191008260F8
:103FE00080939100809191008160809391008091F5
:103FF00090008160809390008091A1008260809306
:10400000A1008091A10081608093A1008091A00017
:1040100081608093A00080912101826080932101C2
:104020008091210181608093210180912001816034
:104030008093200180917A00846080937A0080913F
:104040007A00826080937A0080917A008160809308
:104050007A0080917A00806880937A001092C10083
:1040600040E052EC61E070E08AEF99E00E94D301F9
:104070008DE197E00E94431031EFE32E39E0F32EFB
:104080004AEFC42E49E0D42E8701D8018D918D01CD
:10409000803120F484EC94E00E944310F8013197C1
:1040A000608170E090E080E040E10E94501086E284
:1040B00097E00E944310C016D10639F788E297E0D6
:1040C0000E9443108DE197E00E944310F701819117
:1040D0007F01803120F484EC94E00E944310F701CA
:1040E0003197608170E090E080E040E10E945010E4
:1040F00086E297E00E9443100E151F0539F788E20B
:1041000097E00E94431061E08BE00E94080561E0A7
:104110008CE00E94080561E089E00E94080561E0EA
:104120008AE00E94080561E086E00E94080561E0DF
:1041300087E00E94080562E084E00E94080562E0D2
:1041400085E00E94080562E08EE10E94080562E0B9
:104150008FE10E94080562E080E40E94080562E0A9
:1041600081E40E94080561E086E10E94080561E0A3
:1041700087E10E94080561E089E10E94080561E08D
:104180008AE10E94080562E080E20E94080562E080
:1041900081E20E94080562E082E20E94080562E076
:1041A00088E30E94080561E082E00E94080561E062
:1041B00083E00E94080540E051EE60E070E084E595
:1041C00099E00E94D30140E855E260E070E087EB9F
:1041D00098E00E94D30140E855E260E070E08AE197
:1041E00098E00E94D3018AE690E10E942C0E88E6B6
:1041F00090E10E942C0E809158109091591097FDDB
:1042000008C061E00E94080560E0809158100E949B
:10421000BA0481E0809353100E94800560915A1087
:10422000633329F120915B1030915C106150C9F02B
:1042300070E08FEF92E30E945B2DF90140915610E0
:1042400050915710CF01821B930B8417950760F490
:104250004081469FC001479F900D11249083319665
:10426000EDCF70E060E0E9CF83E380935A101092C5
:1042700080001092810080E092ECA1E0B0E0809399
:104280008B0B90938C0BA0938D0BB0938E0B40E017
:1042900052EC61E070E08091890B90918A0B0E9452
:1042A000D301109204101092031010920610109275
:1042B000051010920A101092091010920810109216
:1042C00007108DE99AE00E94980281E09BE00E942D
:1042D000980286E490E10E94980289E390E10E94AE
:1042E000B9028FE69BE00E94B90283E69BE00E9440
:1042F000B90287E59BE00E94B90289E49BE00E9435
:10430000B9028CE39BE00E94B9028FE19BE00E941E
:10431000B9028FE29BE00E94B9029E012F5F3F4FDE
:1043200059013E0133E1630E711C22E0422E512CF3
:104330001E0146E0240E311C0E9458066B017C01D0
:104340000E945B05609308087093090880930A082F
:1043500090930B0887E89BE00E943D14809104082D
:1043600090910508A0910608B0910708A701960151
:10437000281B390B4A0B5B0BDA01C9018436910506
:10438000A105B10508F4F8C08091EA0781114BC17D
:104390008091E00A9091E10A209105023091060295
:1043A0008217930748F4892B39F080910502909188
:1043B000060211E0892B09F410E08091E20A909145
:1043C000E30A20910302309104028217930748F414
:1043D000892B39F08091030290910402892B09F016
:1043E0004FC10E9458062091830730918407409165
:1043F000850750918607621B730B840B950B603DFC
:1044000077408105910510F0111106C08091820757
:10441000181791F0112321F08BE297E00E94070812
:104420000E945806609383077093840780938507E2
:1044300090938607109382078EE10E949204019761
:1044400009F420C18FE10E949204019709F41AC176
:1044500080E20E949204892B09F022C11092020886
:10446000109201081092FF071092FE0760E086E0AC
:104470000E94BA0460E087E00E94BA042091030819
:10448000409101085091020884B1806684B98091FE
:104490008000826080938000809181008861809399
:1044A0008100809180008068809380008DE790E09B
:1044B00090938700809386003DE7349FC001359F2D
:1044C000900D11246FEF70E00E946F2D70938900A2
:1044D0006093880080918100836080938100211126
:1044E00007C161E089E00E94BA0460E082E00E94B6
:1044F000BA04209100084091FE075091FF0784B153
:10450000806684B980918000826080938000809171
:104510008100886180938100809180008062809317
:1045200080008DE790E090938700809386003DE7C0
:10453000349FC001359F900D11246FEF70E00E94F1
:104540006F2D70938B0060938A008091810083604F
:10455000809381002111D2C060E08AE00E94BA04F9
:1045600061E083E00E94BA04C0920408D09205087A
:10457000E0920608F09207088AE198E00E944D0355
:1045800021E0892B09F020E08091C007281721F055
:104590008AE198E00E944D038AE198E00E944D0371
:1045A00021E0892B09F020E02093C0078AE198E000
:1045B0000E944D03892B81F48091BE079091BF0723
:1045C000029754F082E397E00E9407080E94920845
:1045D0001092BD071092BC078AE198E00E944D033B
:1045E000181619060CF06CC18AE198E00E942B03A2
:1045F0002091BC073091BD072130310509F484C0FA
:104600002230310509F497C0232B31F7849721F725
:104610001092BB071092BA0741E050E05093BD07DB
:104620004093BC07D9CF2091E40A3091E50A40912C
:104630000502509106022417350748F4232B39F060
:10464000209105023091060211E0232B09F410E0BD
:104650002091E60A3091E70A40910302509104024A
:104660002417350708F0BDCE232B09F4BACE2091CC
:10467000030230910402232B09F4B3CE182FB1CEDC
:1046800011E0AFCE10920208109201081092FF07BD
:104690001092FE0761E086E00E94BA0461E0EBCE72
:1046A00081E20E949204892B09F4D8CE1111D6CE52
:1046B0008091F8079091F907909302088093010880
:1046C0000091F6071091F7071093FF070093FE077C
:1046D000209181072111DECF60E0181619060CF435
:1046E00061E086E00E94BA0410161106BCF2C2CE48
:1046F00060E089E00E94BA0461E0F8CE61E08AE0FF
:104700000E94BA0460E02DCF2091BA073091BB0718
:10471000F901EE56F84F80832F5F3F4F3093BB0770
:104720002093BA07223131050CF456CF5092BD07C1
:104730004092BC0751CF6091A207CE0187960E949C
:10474000E5106091A307CE0181960E94E5101A82C0
:1047500019821C821B821E821D826FA178A56115A1
:10476000710529F04BA55CA5C5010E94BB1089A06D
:104770009AA08114910409F466C00DA11EA101152F
:104780001105B1F08D819E81080F191FB801C50177
:104790000E949310882309F456C029813A818D81A3
:1047A0009E81B401820F931F0E94CE2F1E830D8322
:1047B0001C8E1B8E1E8E1D8E18A21F8E69817A8103
:1047C0006115710531F04D815E81CE014B960E94DD
:1047D000BB10C5010E94530EE2E9F7E090E080E0D3
:1047E0002191022E000C330B82279327A2EAB7E017
:1047F000AE17BF07A9F71C8A1B8A1E8A1D8A188E4E
:104800001F8A40E1B501FAD4F50101900020E9F7D3
:104810003197AF014A195B09B501C3010E94BB1072
:104820000B891C8901151105D9F0F80181918F01BF
:104830008823B1F0082E000C990B0E94AD2FF801CF
:1048400031978083F2CF89819A81009711F00E947D
:10485000482E1A8219821E821D821C821B82A8CFBA
:104860002F89388D8F8D98A128173907A1F48B894E
:104870009C896B8D7C8D009709F431C4611571059D
:1048800039F4232B09F439C4FC01808190E032C44F
:104890000E94C52F2FC41092BD071092BC078091B3
:1048A000BE079091BF0701969093BF078093BE0704
:1048B000082E000C990B885C984F0E9407085EC474
:1048C0008091FA079091FB07A091FC07B091FD073A
:1048D0008C159D05AE05BF05E0F4A7019601281BC8
:1048E000390B4A0B5B0BDA01C901883C9105A10524
:1048F000B10578F01092F9071092F8071092F707B7
:104900001092F60781E08093F5071092F407109259
:10491000F3078091EF079091F007A091F107B09114
:10492000F207A7019601281B390B4A0B5B0BDA0132
:10493000C90184369105A105B10508F4C0C08EE116
:104940000E94920421E0892B09F420E02093B90A07
:104950008FE10E94920421E0892B09F420E020934A
:10496000BA0A84E00E94920421E0892B09F020E039
:104970002093BB0A85E00E94920421E0892B09F074
:1049800020E02093BC0A80E40E94920421E0892B5D
:1049900009F020E02093BD0A81E40E94920421E006
:1049A000892B09F020E02093BE0A80E20E94920445
:1049B00021E0892B09F020E02093C50A81E20E94C2
:1049C000920421E0892B09F020E02093C60A86E0BA
:1049D0000E94920421E0892B09F020E02093C00A74
:1049E00089E00E94920421E0892B09F020E02093C5
:1049F000C10A87E00E94920421E0892B09F020E09F
:104A00002093C30A8AE00E94920421E0892B09F0D6
:104A100020E02093C40A88E30E94440582E20E94B9
:104A2000920421E0892B09F020E02093D70A8AE63E
:104A300090E10E94E10D6DA77EA78FA798AB6093D0
:104A4000C1077093C2078093C3079093C40788E699
:104A500090E10E94E10D2DA53EA54FA558A92093F8
:104A6000D80A3093D90A4093DA0A5093DB0A60934C
:104A7000DC0A7093DD0A8093DE0A9093DF0A0E94BD
:104A8000D5062093AF0A3093B00A4093B10A5093F1
:104A9000B20A6093B30A7093B40A8093B50A9093F4
:104AA000B60A67EA7AE08DE99AE00E94EE0BC092BE
:104AB000EF07D092F007E092F107F092F207009131
:104AC000090210910A028091EB079091EC07A091E6
:104AD000ED07B091EE07A7019601281B390B4A0B91
:104AE0005B0BDA01C90184369105A105B105A8F176
:104AF0001E821D8285E589838AEA8A8381E08B8311
:104B00008C830130110521F480E18D838C830FC0EB
:104B10000230110511F481E1F8CF0330110511F4D1
:104B200082E1F3CF0430110509F4A3C08D83AE01F7
:104B30004F5F5F4F4A01D4016D914D0187EB98E0C3
:104B40000E949F0382149304B1F7C092EB07D092A6
:104B5000EC07E092ED07F092EE079CE0892E912C95
:104B60000115110519F086E0882E912C87EB98E04D
:104B70000E944D031816190614F587EB98E00E9461
:104B80002B032091D5073091D6072130310509F448
:104B900072C02230310509F486C0232B81F485359B
:104BA000910569F485E58093C70781E090E09093D3
:104BB000C6078093C5079093D6078093D507809149
:104BC000F50760E08111EEC08091EA078111E9C02C
:104BD00060E086E10E94BA0461E087E10E94BA04C5
:104BE0006091F3077091F407809107029091080299
:104BF0006817790709F42DC18091E4079091E507C2
:104C0000019709F590E080E07CD5850120E040E047
:104C1000D8D28AE297E09F938F93BF92AF9284E4B9
:104C200097E09F938F9381E597E09F938F937F9277
:104C30006F920E94D52FC3010E9407080FB6F89407
:104C4000DEBF0FBECDBF0091F3071091F407063011
:104C5000110509F4C4C008F0AAC00115110509F432
:104C6000B9C080E091E00130110509F4BAC080E0DC
:104C7000B7C083E14ACF2091C5073091C607A9018B
:104C80004F5F5F4F5093C6074093C5072953384F76
:104C9000F9018083841695060CF091CF5092D607C7
:104CA0004092D5078CCFE7ECF7E030E020E081912F
:104CB000280F311DCF01875C974088159905BCF3FB
:104CC000F401E953F84F808190E028171906B9F5EF
:104CD0008091CB079091CC079827892798270115B9
:104CE000110531F59093E10A8093E00A8091CD0798
:104CF0009091CE079827892798279093E30A80936D
:104D0000E20A8091CF079091D007982789279827AA
:104D10009093E50A8093E40A8091D1079091D2079D
:104D20009827892798279093E70A8093E60A07C077
:104D300001301105B1F49093E10A8093E00A1092DA
:104D4000D6071092D5078091EA0781111EC081E035
:104D500090E00130110501F550920A0240920902DB
:104D60002ECF0230110529F49093E30A8093E20AD2
:104D7000E6CF0330110529F49093E50A8093E40A05
:104D8000DECF04301105D9F6CECF84E090E00330B9
:104D9000110511F083E090E090930A0280930902DC
:104DA0000ECF61E086E10E94BA0460E016CF0A30BF
:104DB000110509F449C020E030E04FEF50E00D301C
:104DC000110509F054CF6FE170E090E080E00E949F
:104DD000680E4DCF2FE73FE74FE750E0F4CF81E07B
:104DE00090E010930802009307022091DB07211145
:104DF00004C0911102C0882361F01092DB078091FA
:104E0000F3079091F4078130910531F1069709F489
:104E100032C0E091F307F091F4073297ED30F105DD
:104E200008F05AC08827E95EF84D8F4F8DC63328A9
:104E30005628572747276C27522762276C276C274D
:104E40006C276C276C27272828EA32E340EA50E0D9
:104E5000BACF80E090E0C9CF8091EA0720E03FEF31
:104E600040E050E081110EC06FE070E090E080E023
:104E70000E94680ECECF8091EA072FEF30E040E02D
:104E800050E0F0CF6FE170E080E190E0F1CF20E002
:104E900030E04FEF50E06FE170E090E080E00E9482
:104EA000910E1AC028EA32E340EA50E0F4CF809134
:104EB000EA0720E030E04FEF50E08111CFC06FE013
:104EC00070E0EBCF8091EA078111BCC06FE070E029
:104ED00090E080E00E94EC0E8091E6079091E70759
:104EE000A091E807B091E907A7019601281B390BAB
:104EF0004A0B5B0BDA01C90188389341A105B10562
:104F000038F187E30E944405BC01990F880B990B87
:104F1000FAD320E030EC4FE754E421D520E030E034
:104F200040EA50E44FD42AE939E949EF50E44AD441
:104F30006093CB0A7093CC0A8093CD0A9093CE0AEB
:104F4000C092E607D092E707E092E807F092E907FF
:104F50008091E4079091E507019709F070C00E94E5
:104F60005B05009108081091090820910A0830910A
:104F70000B08DC01CB01801B910BA20BB30B009142
:104F8000E0071091E1072091E2073091E30708174D
:104F900019072A073B0740F48093E0079093E10745
:104FA000A093E207B093E3078091DC079091DD07BF
:104FB000A091DE07B091DF07A7019601281B390BEE
:104FC0004A0B5B0BDA01C90189389341A105B10590
:104FD000B0F16091E0077091E1078091E207909154
:104FE000E3078FD3850120E040E0EBD088E597E030
:104FF0009F938F93BF92AF9280E697E09F938F939A
:1050000081E597E09F938F937F926F92CED7C301F4
:105010000E9407081092E0071092E1071092E20741
:105020001092E307C092DC07D092DD07E092DE0722
:10503000F092DF070FB6F894DEBF0FBECDBF0E941F
:105040000A047AC96FE170E080E190E043CF80917B
:10505000EA072FEF30E040E050E02FCF6FE170E043
:1050600080E190E01CCF8091D7079091D807A09164
:10507000D907B091DA07A7019601281B390B4A0B13
:105080005B0BDA01C90184369105A105B10508F46D
:1050900023CF82E090E00E94890FC092D707D09280
:1050A000D807E092D907F092DA0716CF8091D70798
:1050B0009091D807A091D907B091DA07A70196017E
:1050C000281B390B4A0B5B0BDA01C90184369105A9
:1050D000A105B10508F400CF83E090E0DCCF6115B5
:1050E000710559F0232B49F0DB018C9190E09195EB
:1050F00081959109892B09F0CECB28E937E0EBEBBC
:10510000F4E090E080E0D9014D919D01DC01A957C8
:10511000B84F4C934C91419301968A30910599F781
:105120000E94D5062093130B3093140B4093150B5C
:105130005093160B6093170B7093180B8093190BF9
:1051400090931A0BE7E8F7E0F0931E0BE0931D0B2A
:105150006BE07BE081E09BE00E94EE0B1092BD07CC
:105160001092BC071092BF071092BE078BEB94E021
:105170000E9407088AE198E00E944D03C3010E9443
:10518000530ECE014B960E94530ECE0181960E9483
:10519000530ECE0187960E94530E1ECA87E99AE0ED
:1051A0000E94530E80915B1090915C1071D580919C
:1051B00058109091591097FD03C060E00C940805B9
:1051C0000895EF920F931F93CF93DF93E80134E09C
:1051D00047FD34E1042E000C550B57FF03C05195D9
:1051E00041955109E32E022F242FAE012AD0CE0182
:1051F000DF91CF911F910F91EF900895BB274A3017
:1052000031F4992322F4BDE2909581959F4F01C01E
:10521000BB27FB015527AA27880F991FAA1FA41790
:1052200010F0A41B83955051B9F7A05DAA3308F084
:10523000A95DA193009779F7B111B1931192CB01B8
:1052400050C28F929F92AF92BF92CF92DF92EF9215
:10525000FF920F931F93CF93DF9300D000D000D025
:10526000CDB7DEB76A01F22EB02E102FFBE3AF2EC2
:10527000A01608F41BE31F5F012F27E0AE014F5F6C
:105280005F4F57D1BC018981982F9970913009F4F3
:105290004EC09BE2E1FC04C09E2D9170E0FC49C031
:1052A0005E2D5071E82FE87083FF55C084E09111A6
:1052B00001C083E0EF2DE81B8F1508F0E0E0D60178
:1052C0008E2F20E25523C9F1992329F0D6019C9312
:1052D000C60101966C0196012D5F3F4FE2FE33C07F
:1052E0008EE4D6018C9391E411969C9311971296BB
:1052F0008C93D9018E2F90E281112AC0E20FF32FF7
:10530000F11D10828EEF9FEF29960FB6F894DEBF45
:105310000FBECDBFDF91CF911F910F91FF90EF9006
:10532000DF90CF90BF90AF909F908F9008959DE2B7
:10533000B7CF90E2B5CF2D9381508111FCCFCE0E27
:10534000D11CE0E0C1CF8EE6D6018C9391E6CCCFA4
:105350009D938150D1CF482F447082FF3DC084E09F
:10536000911101C083E08F1510F4EF2DE81BD601D9
:105370008E2F20E2552309F1992329F0D6019C9321
:10538000C60101966C0196012D5F3F4FE2FE1BC0E6
:1053900089E4D6018C938EE411968C93119786E460
:1053A00012968C93D9018E2F90E2882309F4A6CF10
:1053B0009D938150FACF2D9381508111FCCFCE0E59
:1053C000D11CE0E0D9CF89E6D6018C938EE6119608
:1053D0008C93119786E6E4CF9B0177FF02C030E003
:1053E00020E0A1E0B0E0911102C0B0E0A0E0F9013E
:1053F0003196AE0FBF1F8B2C912CBB2009F461C0DE
:105400005401EFEFAE1ABE0AAA0DBB1DFA161B0619
:1054100019F014F04F2D4A1B511188C0E3FC59C0FC
:105420007601A42FB0E2A1114FC0C40ED11C992364
:1054300009F45BC040E0D6011196F60190836D013E
:10544000552309F448C0012F060F9A81582F507137
:1054500084FF03C0913309F4015010160CF047C0CB
:10546000093008F008E0EEE2FE2E5B01A01AB10858
:1054700085019194819491082F3F320729F4D60138
:10548000FC92F60131966F016217730794F10217CF
:1054900013077CF5DB01A21BB30BAA24A394B12C48
:1054A000AC0EBD1EAA0DBB1D11968C912150310969
:1054B000D601119628153905F4F0F60180836D01A7
:1054C000DBCFB12CA12CA0CFF701B1937F01A1506C
:1054D000AACF9111B0CFD601942F50E302C05D93B3
:1054E00091509111FCCFC40ED11C40E0ACCF01E033
:1054F000BACF80E3DBCF6217730731F4963388F4B9
:10550000953311F4552369F0F6018083FD01842F52
:1055100090E2811108C0A40FB11D1C9290E080E0C0
:10552000F3CE81E3F1CF91938150F3CF911183CFEB
:105530008ACF283008F027E03327DA01990F311D90
:1055400087FD916000966105710539F432602E5F28
:105550003D9330E32A95E1F708959F3F30F080387E
:105560007105610509F03C5F3C5F3D93913008F0A7
:105570008068911DDF93CF931F930F93FF92EF925B
:10558000192F987F9695E92F96959695E90FFF2705
:10559000E25CFE4F99273327EE24FF24A701E701A1
:1055A00005900894079428F4360FE71EF81E491F4B
:1055B000511D660F771F881F991F0694A1F705904C
:1055C000079428F4E70EF81E491F561FC11D770FD8
:1055D000881F991F661F0694A1F70590079428F469
:1055E000F80E491F561FC71FD11D880F991F661F30
:1055F000771F0694A1F70590079420F4490F561FD2
:10560000C71FD81F990F661F771F881F0694A9F719
:1056100084911095177041F0D695C7955795479589
:10562000F794E7941A95C1F7E4EEF0E068941590CA
:10563000159135916591959105907FE27395E118EB
:10564000F10A430B560BC90BD009C0F7E10CF11E50
:10565000431F561FC91FD01D7EF4703311F48A9565
:10566000E6CFE894015030F0080F0AF40027021743
:1056700008F4202F2395022F7A3328F079E37D93C5
:105680002A95E9F710C07D932A9589F60694979597
:105690006795379517951794E118F10A430B560B48
:1056A000C90BD00998F023957E9173957A3308F051
:1056B00070E37C932013B8F77E9170617D9330F096
:1056C000839571E37D9370E32A95E1F71124EF90C0
:1056D000FF900F911F91CF91DF91992787FD9095B2
:1056E0000895DC01FC01672F71917723E1F7329770
:1056F00004C07C916D9370836291AE17BF07C8F3AD
:105700000895E89409C097FB3EF4909580957095B4
:1057100061957F4F8F4F9F4F9923A9F0F92F96E9FD
:10572000BB279395F695879577956795B795F11172
:10573000F8CFFAF4BB0F11F460FF1BC06F5F7F4F0F
:105740008F4F9F4F16C0882311F096E911C0772321
:1057500021F09EE8872F762F05C0662371F096E82A
:10576000862F70E060E02AF09A95660F771F881FF9
:10577000DAF7880F9695879597F90895990F00089D
:10578000550FAA0BE0E8FEEF16161706E807F90713
:10579000C0F012161306E407F50798F0621B730BAE
:1057A000840B950B39F40A2661F0232B242B252B2F
:1057B00021F408950A2609F4A140A6958FEF811DD2
:1057C000811D08950BD078C069D028F06ED018F0F4
:1057D000952309F05AC05FC01124A2C07ED0A0F367
:1057E000959FD1F3950F50E0551F629FF001729F76
:1057F000BB27F00DB11D639FAA27F00DB11DAA1F95
:10580000649F6627B00DA11D661F829F2227B00DE1
:10581000A11D621F739FB00DA11D621F839FA00D6C
:10582000611D221F749F3327A00D611D231F849FBC
:10583000600D211D822F762F6A2F11249F57504013
:105840008AF0E1F088234AF0EE0FFF1FBB1F661FAE
:10585000771F881F91505040A9F79E3F510570F067
:1058600014C05EC05F3FECF3983EDCF386957795FD
:105870006795B795F795E7959F5FC1F7FE2B880F62
:10588000911D9695879597F9089597F99F6780E8F8
:1058900070E060E008959FEF80EC089500240A9482
:1058A0001616170618060906089500240A941216FB
:1058B0001306140605060895092E0394000C11F42E
:1058C000882352F0BB0F40F4BF2B11F460FF04C0DB
:1058D0006F5F7F4F8F4F9F4F089557FD9058440F34
:1058E000551F59F05F3F71F04795880F97FB991F3F
:1058F00061F09F3F79F087950895121613061406FC
:10590000551FF2CF4695F1DF08C016161706180688
:10591000991FF1CF86957105610508940895E89463
:10592000BB2766277727CB0197F9089509D0A59F54
:10593000900DB49F900DA49F800D911D112408958A
:10594000A29FB001B39FC001A39F700D811D1124C0
:10595000911DB29F700D811D1124911D08950CD0D1
:10596000ABCFA3DF40F09ADF30F021F45F3F19F0B6
:105970008CCF5111D5CF8FCFB0DF98F39923C9F3D6
:105980005523B1F3951B550BBB27AA276217730745
:10599000840738F09F5F5F4F220F331F441FAA1FF9
:1059A000A9F333D00E2E3AF0E0E830D091505040B9
:1059B000E695001CCAF729D0FE2F27D0660F771F67
:1059C000881FBB1F261737074807AB07B0E809F049
:1059D000BB0B802DBF01FF2793585F4F2AF09E3FDE
:1059E000510568F052CF9CCF5F3FECF3983EDCF35B
:1059F000869577956795B795F7959F5FC9F7880F57
:105A0000911D9695879597F90895E1E0660F771FA8
:105A1000881FBB1F621773078407BA0720F0621B39
:105A2000730B840BBA0BEE1F88F7E095089504D032
:105A30006894B11175CF089558DF88F09F5790F0A2
:105A4000B92F9927B751A0F0D1F0660F771F881FA3
:105A5000991F1AF0BA95C9F712C0B13081F05FDF13
:105A6000B1E008955CCF672F782F8827B85F39F0B1
:105A7000B93FCCF3869577956795B395D9F73EF402
:105A800090958095709561957F4F8F4F9F4F0895AA
:105A900075DE08F48FEF0895DB018F939F9346DF47
:105AA000BF91AF91A29F800D911DA39F900DB29FBA
:105AB000900D11240895AA1BBB1B51E107C0AA1F1A
:105AC000BB1FA617B70710F0A61BB70B881F991F9F
:105AD0005A95A9F780959095BC01CD01089597FB43
