:100000000C9451020C9482020C9482020C94820291
:100010000C9482020C9482020C9482020C94820250
:100020000C9482020C9482020C9482020C94820240
:100030000C9482020C9482020C9482020C94820230
:100040000C9482020C9482020C9482020C94820220
:100050000C9482020C9482020C9482020C94421B37
:100060000C9482020C94181B0C94EE1A0C948202CD
:100070000C9482020C9482020C9482020C948202F0
:100080000C9482020C9482020C9482020C94A01BA9
:100090000C94C41A0C949A1A0C9482020C94820246
:1000A0000C9482020C9482020C9482020C948202C0
:1000B0000C9482020C948C1B0C9482020C9482028D
:1000C0000C9482020C9482020C9482020C94701A9A
:1000D0000C94461A0C9482020C941C1A0C94F2197B
:1000E0000C9482020C944A090C94F3030C94170D9F
:1000F0000C94AF090C94BB0C0C9475130C949809D8
:100100000C94C0070C946B190C9442050C94E407F2
:100110000C94D0030C940D050C94140E0C94DF0376
:100120000C94E0070C94B40A0C945A0E0C94B50786
:100130000C94640A0C94B50C0C94430A0C94F209C8
:100140000C94EF090C9407050C9448050C941905C0
:100150000C94F8140C9411050C949B0C0C9434051D
:100160000C94B9090C94F0060C94B10A0C94AB0AE7
:100170000C9496020C944C050C94FC0E0C94CD0738
:100180000C940D2A0C9448090C94780A0C94EC09F0
:100190000C9447050C94EE070C94FE120C941C056D
:1001A0000C945A1C0C9436130C94FD070C94E7071E
:1001B0000C9458180C941F0C0C9426050C943B19A5
:1001C0000C94B2090C94C3070C94B8070C94E90979
:1001D0000C94C9090C94EA070C94D4070C94DD071D
:1001E0000C943E050C9415050C942C050C94C3112D
:1001F0000C940E0E0C9430050C9484020C94AE0AF0
:100200000C946A090C9401040C94E6090C945704AC
:100210000C941D0D0C94A4040C94F7070C94A80ADC
:100220000C9484090C9401080C948C020C942312F5
:100230000C9422050C94DA070C948A030C94B207F0
:100240000C94D0070C94CA070C94110E0C94FA0766
:100250000C9490120C94C6070C941A0D0C94C10CBB
:100260000C946D0B0C94AC090C94BE0C0C94DD0931
:100270000C94B80C0C944D120C943A050C94C009D3
:100280000C94BB0700407A10F35A00A0724E180974
:100290000010A5D4E80000E87648170000E40B54ED
:1002A000020000CA9A3B000000E1F50500008096BC
:1002B0009800000040420F000000A08601000000EE
:1002C000102700000000E8030000000064000000A8
:1002D00000000A00000000000100000000002C7671
:1002E000D888DC674F0823DFC1DFAE59E1B1B7968C
:1002F000E5E3E453C63AE651997696E8E6C28426E9
:10030000EB898C9B62ED407C6FFCEFBC9C9F40F2C4
:10031000BAA56FA5F490055A2AF75C936B6CF96740
:100320006DC11BFCE0E40D47FEF520E6B500D0ED05
:10033000902E0300943577050080841E080000206D
:100340004E0A000000C80C333333330F986E12830B
:100350001141EF8D2114893BE65516CFFEE6DB18DF
:10036000D1844B381BF77C1D901DA4BBE4242032A4
:1003700084725E228100C9F124ECA1E53D270000D2
:100380002100240027002A002D0030003300010145
:100390000000040107010A010000200023002600DC
:1003A00029002C002F00320000010000030106018B
:1003B000090100000A0B02090C0D0E0807030401D5
:1003C000000000000000000000000000000000002D
:1003D00000000000000000000000000000001211FA
:1003E00010000000000000000000000000000000FD
:1003F000000000000000000001021020200808108A
:100400002040102040800201020108040201010284
:10041000040810204080804020100804020180045D
:1004200002018040201008040201080402010102B8
:1004300004081020408001020408102040800000C1
:100440002200250028002B002E003100340002017C
:100450000000050108010B01050505050705080851
:100460000808020202020A0A08080404040401013E
:100470000101010101010303030303030303040753
:1004800007070C0C0C0C0C0C0C0C020202020606EA
:100490000606060606060B0B0B0B0B0B0B0B5A1C6A
:1004A0000D2A11241FBECFEFD1E2DEBFCDBF00E089
:1004B0000CBF20E1A6E5B7E001C01D92A734B2074A
:1004C000E1F717E0A0E0B2E0E6E4F8E600E00BBFF9
:1004D00002C007900D92A635B107D9F712E0C0E52A
:1004E000D2E000E006C021970109802FFE010E94A2
:1004F000052FCF34D10780E00807A9F70E945420C8
:100500000C9411340C940000FC018281938190932F
:10051000DB078093DA070895FC018281082E000C26
:10052000990B9093CC078093CB070895FC0122810F
:100530003381309306022093050284819581909344
:100540000402809303020895CF92DF92EF92FF920C
:10055000CF93DF93EC016A017B01E889F98982E09E
:100560008083C11481EED806E104F104A1F060E0BB
:1005700079E08DE390E0A70196010E94E32E2150DF
:100580003109410951095695479537952795211508
:1005900080E1380798F0E889F989108260E874E80A
:1005A0008EE190E0A70196010E94E32E21503109CF
:1005B000410951095695479537952795EC85FD8555
:1005C0003083EE85FF852083188EEC89FD8986E0D7
:1005D0008083EA89FB89808180618083EA89FB8945
:1005E000808188608083EA89FB898081806880833C
:1005F000EA89FB8980818F7D8083DF91CF91FF9095
:10060000EF90DF90CF9008958F929F92AF92BF921C
:10061000CF92DF92EF92FF920F931F93FC014B0159
:10062000AA24BB24C52ED62EE72EFF24BC2DA42F32
:1006300090913110B82C992391F0A92FB0E0A89D8A
:100640009001A99D300DB89D300D1124B32E9C9DB5
:1006500060011124BD2D949F80011124A12F409190
:10066000371020913210309133108091341048139C
:1006700024C0CF01880F991F8E0F9F1F820F931FD9
:10068000E0913410E80FF92FF11DB082E0913510A0
:10069000E80FF92FF11DB08320913610820F911DC4
:1006A000FC01A0831F910F91FF90EF90DF90CF90FE
:1006B000BF90AF909F908F900895CF01880F991FA2
:1006C000880F991F820F931FFC01E40FF11D108208
:1006D000D7CFE6E7FFE030E020E041915191452B94
:1006E00091F4F901EE0FFF1FEA58F04F91838083D8
:1006F00023583F4FFC01358324832EE53BE03783AD
:10070000268381E008952F5F3F4F2931310529F776
:1007100080E00895AF92BF92CF92DF92EF92FF9266
:100720000F931F93CF93DF936C017B018B01040F19
:10073000151FEB015E01AE18BF08C017D10759F0B5
:100740006991D601ED91FC910190F081E02DC601F7
:100750001995892B79F7C501DF91CF911F910F91E1
:10076000FF90EF90DF90CF90BF90AF900895FC0185
:10077000A089B1898C91A689B78982FD0FC09C910F
:10078000818D8F5F8F73228D821749F0A18DAE0FFF
:10079000BF2FB11D5D969C93818F08958C91089514
:1007A000FC01538D448D252F30E0842F90E0821B77
:1007B000930B541710F0CF96089501970895FC01FC
:1007C000918D828D981761F0A28DAE0FBF2FB11D54
:1007D0005D968C91928D9F5F9F73928F90E00895AC
:1007E0008FEF9FEF0895FC01918D828D981731F066
:1007F000828DE80FF11D858D90E008958FEF9FEFBA
:100800000895FC01918D228D892F90E0805C9F4F8F
:10081000821B91098F739927089581E098E00E94C7
:10082000010421E0892B09F420E0822F08958EE94C
:1008300098E00E94010421E0892B09F420E0822F36
:1008400008958BE399E00E94010421E0892B09F4CB
:1008500020E0822F089581EE99E00E94010421E0BA
:10086000892B09F420E0822F0895FC01A48DA80FA4
:10087000B92FB11DA35ABF4F2C91848D90E00196E2
:100880008F739927848FA689B7892C93A089B18902
:100890008C91837080648C93938D848D981306C0A3
:1008A0000288F389E02D80818F7D80830895EF9207
:1008B000FF920F931F93CF93DF93EC0181E0888F1A
:1008C0009B8D8C8D98131AC0E889F989808185FFEA
:1008D00015C09FB7F894EE89FF896083E889F9898C
:1008E00080818370806480839FBF81E090E0DF918E
:1008F000CF911F910F91FF90EF900895F62E0B8DE1
:1009000010E00F5F1F4F0F731127E02E8C8D8E119B
:100910000CC00FB607FCFACFE889F989808185FF02
:10092000F5CFCE010E943504F1CFEB8DEC0FFD2FFA
:10093000F11DE35AFF4FF0829FB7F8940B8FEA89BD
:10094000FB8980818062CFCFCF93DF93EC01888DCC
:100950008823B9F0AA89BB89E889F9898C9185FD3A
:1009600003C0808186FD0DC00FB607FCF7CF8C91C8
:1009700085FFF2CF808185FFEDCFCE010E94350447
:10098000E9CFDF91CF91089580E090E0892B29F0A5
:100990000E942B0481110E94000080E090E0892BCE
:1009A00029F00E94210481110E94000080E090E063
:1009B000892B29F00E94170481110E94000080E019
:1009C00090E0892B29F00E940D0481110C94000005
:1009D00008958150823108F05AC0E82FF0E088274E
:1009E000EB50FB4F8F4F0C94052F1505190507058C
:1009F0000D05110547051C05220526052C053005AA
:100A000034053A053E054705420548054C058091E9
:100A100080008F77809380000895809180008F7D83
:100A2000F9CF80918000877FF5CF84B58F7784BD23
:100A3000089584B58F7DFBCF8091B0008F77809330
:100A4000B00008958091B0008F7DF9CF8091900023
:100A50008F77809390000895809190008F7DF9CFDB
:100A600080919000877FF5CF8091A0008F77809351
:100A7000A00008958091A0008F7DF9CF8091A00003
:100A8000877FF5CF809120018F7780932001089593
:100A9000809120018F7DF9CF80912001877FF5CF54
:100AA000CF93DF93282F30E0F901EE54FC4F84916F
:100AB000F901E850FC4FD491F901E85AFB4FC49179
:100AC000CC23A1F081110E94E904EC2FF0E0EE0F9D
:100AD000FF1FE856FC4FA591B491EC91ED2381E006
:100AE00090E009F480E0DF91CF91089580E090E0FC
:100AF000FACF1F93CF93DF93282F30E0F901EE5404
:100B0000FC4F8491F901E850FC4FD491F901E85A67
:100B1000FB4FC491CC23A9F0162F81110E94E90448
:100B2000EC2FF0E0EE0FFF1FE25CFB4FA591B491BC
:100B30008FB7F894EC91111108C0D095DE23DC93A7
:100B40008FBFDF91CF911F910895DE2BF8CFCF9308
:100B5000DF9390E0FC01E850FC4F2491885A9B4FB2
:100B6000FC0184918823C9F090E0880F991FFC0153
:100B7000E258FC4FA591B491FC01E25CFB4FC5919A
:100B8000D49161110DC09FB7F8948C912095822368
:100B90008C938881282328839FBFDF91CF9108956C
:100BA000623051F49FB7F8943C91822F8095832353
:100BB0008C93E8812E2BEFCF8FB7F894EC912E2BEE
:100BC0002C938FBFEACF3FB7F8948091650790913F
:100BD0006607A0916707B091680726B5A89B05C076
:100BE0002F3F19F00196A11DB11D3FBFBA2FA92FAC
:100BF000982F8827BC01CD01620F711D811D911DA9
:100C000042E0660F771F881F991F4A95D1F7089514
:100C1000CF92DF92EF92FF920F931F93CF93DF93C8
:100C200000D000D000D0CDB7DEB7809132109091C7
:100C30003310892B09F480C0C0903810D09039103F
:100C4000E0903A10F0903B100E94E3056C157D0592
:100C50008E059F0550F40E94E30560933810709351
:100C6000391080933A1090933B100E94E305009155
:100C700038101091391020913A1030913B10601BC0
:100C8000710B820B930B6C32714081059105A0F2C0
:100C9000F89480912D1090912E109A838983E09181
:100CA0003210F0913310DF01119680818987909185
:100CB0002910E0913C10F0913D1080913E10992355
:100CC00009F449C09081982B988790818095892359
:100CD0008F838F818C8388E08B8358856F814985D2
:100CE0003B812C8189819A81508347FD252F3A953C
:100CF0002083262F39F0441F00C0000060830000CD
:100D000000C0F2CF38E04D9160830000019761F799
:100D1000F0933D10E0933C1049873B832C839A83EA
:100D2000898378940E94E30560933810709339109A
:100D300080933A1090933B1029960FB6F894DEBF3B
:100D40000FBECDBFDF91CF911F910F91FF90EF901C
:100D5000DF90CF9008959081982B9887908180950F
:100D600089238F838F818E8388E08D8358856F815F
:100D700049853D812E8189819A81508347FD252FA8
:100D800000C000C0208300C000C000C000C000C080
:100D900060830000262F3A9541F0441F000000C0F8
:100DA00000C000C000C000C0E8CF38E04D9100C0D6
:100DB000608300C0019709F7F0933D10E0933C1069
:100DC00049873D832E83ABCF2FB7F894609161079D
:100DD0007091620780916307909164072FBF089517
:100DE000CF92DF92EF92FF920F931F93CF938C01DC
:100DF0000E94E4066093E1077093E2078093E307A3
:100E00009093E4071092DC07F801C281C093D107E8
:100E10009091D10780910202981729F081E0809388
:100E2000C207809357078091D10780930202F8018F
:100E3000C580D680E780F08420E030E0A901C701BA
:100E4000B6010E94A62E87FD2AC0C093EA07C701FB
:100E5000B6010E94702E7093E0076093DF07F801DF
:100E6000C184D284E384F48420E030E0A901C70186
:100E7000B6010E94A62E87FD1AC0C093E707C701DE
:100E8000B6010E94702E7093DE076093DD07CF914C
:100E90001F910F91FF90EF90DF90CF90089581E028
:100EA0008C278093EA07C701B6019058D2CF81E022
:100EB000C827C093E707C701B6019058E2CFCF9289
:100EC000DF92EF92FF920F931F93CF93DF9300D0A7
:100ED00000D01F921F92CDB7DEB70E94E40628EE25
:100EE00033E040E050E00E94E32E69017A019B016B
:100EF000AC0160E472E48FE090E00E94AB2EEEE57E
:100F0000FBE00089118922893389600F711F821FDC
:100F1000931F0485158526853785C00ED11EE21ED8
:100F2000F31E20E03AEC4AE95BE30E94E32EC20E96
:100F3000D31EE41EF51EC982DA82EB82FC822C2DC0
:100F40003A814B815C8128960FB6F894DEBF0FBEC4
:100F5000CDBFDF91CF911F910F91FF90EF90DF9068
:100F6000CF9008958BE593E0089588E492E008958A
:100F700083E090E008958A579B4FFC01808108959B
:100F80008CE793E008958DE993E00895FC0185894D
:100F9000968908958BEB93E008958CED93E0089586
:100FA000FC01828593850895DC011896ED91FC91F2
:100FB000069619948BEE93E008958CE094E00895E2
:100FC000FC018485958508958BE194E008958CE378
:100FD00094E00895FC01838594850895DB012C91AC
:100FE000FC0120870184F285E02D069619948AE49D
:100FF00094E008958BE694E00895FC01868597853A
:101000000895AF92BF92CF92DF92EF92FF920F932B
:101010001F93CF93DF9300D01F921F92CDB7DEB7FF
:10102000643671054CF0FC01EA57FB4F2081F12C2E
:10103000E12C222309F476C0DA017B018C01BC018A
:10104000615E7D4FED91FC910190F081E02DCA0130
:101050001995680128EEC21A2DEFD20A2FEFD6019A
:101060002C93F801E75EFD4F2EEF208331968083AD
:10107000319690833196292F280F20952083319621
:10108000E0821696FC9245E050E030E020E0DC0182
:101090001696A417B50734F06191260F311D4F5FE6
:1010A0005F4FF7CF7C01B8E0EB0EF11C800F911F72
:1010B000FC01E15EFD4F20952083E1E0EE16E2E0C9
:1010C000FE06B4F45601C5018C199D098E159F05C5
:1010D0004CF5D80112968D919C91F50161915F01BB
:1010E000DC01ED91FC910190F081E02D1995EBCFA1
:1010F0008FE592E09A83898383E08B8382E894E092
:101100009D838C83D801ED91FC910190F081E02DBD
:10111000AE014F5F5F4F67E070E0C8011995EE24A4
:10112000EA94FE2CC7010F900F900F900F900F9034
:10113000DF91CF911F910F91FF90EF90DF90CF90B3
:10114000BF90AF900895CF93DF9300D01F921F926E
:10115000CDB7DEB72FE532E03A83298321E02B8338
:101160009D838C83AE014F5F5F4F67E070E08EE53B
:101170009BE00E9401080F900F900F900F900F902E
:10118000DF91CF9108950F931F93CF93DF9300D0FA
:1011900000D000D01F92CDB7DEB78C0180E492E082
:1011A0009A8389831B821C821D821E821F8218865D
:1011B00019861A86D801ED91FC910190F081E02DFD
:1011C000AE014F5F5F4F6AE070E0C80119950E9461
:1011D000E406F80160877187828793872A960FB6A5
:1011E000F894DEBF0FBECDBFDF91CF911F910F915D
:1011F0000895CF92DF92EF92FF92DC011D921D9233
:101200001D921C921397FB0130E020E0419150E0C9
:10121000022E02C0440F551F0A94E2F7052E000C5F
:10122000660B770BCD90DD90ED90FC9013974C29D9
:101230005D296E297F294D935D936D937C93139760
:10124000285F3F4F2032310509F7FF90EF90DF9084
:10125000CF900895FC014083518312821382089538
:10126000CF93DF9360911102D0911202C0911302CB
:1012700081E098E00E9457046D2F81E098E00E9481
:1012800057046C2F81E098E0DF91CF910C945704C4
:101290000C943009FC018281882319F08130B9F067
:1012A0000895EBEBF4E090E080E0DC01A259B84F48
:1012B0002C91219301968A309105B9F78BEB94E03C
:1012C000FB019383828386EC94E00C94A3088BEC5F
:1012D00094E0FBCFFC01DB012C9130E033832283CF
:1012E00011968C911197382B3383228312962C916F
:1012F000129730E03583248313968C91382B3583F5
:10130000248384E090E008950F931F93CF93DF939D
:101310008C01EC012696CE010E946A09D8011C9628
:10132000ED91FC91CE01DF91CF911F910F91199416
:10133000DC01FB0112968C911297808313968C919D
:101340001397818314968C911497828315968C91B0
:10135000838384E090E0089582ED94E0089583EF24
:1013600094E00895FB012081FC01228381E090E05C
:101370000895FC018281FB01808381E090E0089563
:10138000FB0120813181FC013383228382E090E0E4
:1013900008950F931F93CF93DF938C01EC01269652
:1013A000CE010E94C009D8011A96ED91FC91CE01A0
:1013B000DF91CF911F910F911994FC0122818381BC
:1013C000FB012083818382E090E0089590E080E03B
:1013D000089586E095E0089587E295E0089587E313
:1013E00095E008954F925F926F927F928F929F92B5
:1013F000AF92BF92EF92FF920F931F93CF93DF9321
:1014000000D01F92CDB7DEB77C018B01CE010196D3
:101410000E94F90889819A81AB81BC814C015D01F0
:1014200024E0820E911CA11CB11CA8014D5F5F4FEE
:10143000FA0124E030E02901712C612C4814590490
:101440006A047B0428F4618161932F5F3F4FF3CFDF
:10145000F801E80FF91F1382F701538342830496C2
:101460000F900F900F900F90DF91CF911F910F91E0
:10147000FF90EF90BF90AF909F908F907F906F9074
:101480005F904F900895FC01DB018C91828311964F
:101490008D919C9112979483838313964D915D91C6
:1014A0006D917C9116974583568367837087179655
:1014B0008D919D910D90BC91A02D81879287A387DE
:1014C000B4878BE090E008950F931F93CF93DF9341
:1014D0008C01EC012696CE010E94430AD801539656
:1014E000ED91FC91CE01DF91CF911F910F91199455
:1014F000DC01FB0112968C911297808313969C91CC
:10150000139714968C9114979183828315963C912E
:10151000159716962C91169717969C9117971896D3
:101520008C911897338324839583868319963C91F5
:1015300019971A962C911A971B969C911B971C969B
:101540008C9137832087918782878BE090E0089584
:1015500088E595E0089589E795E0089583E995E0A9
:10156000089584EB95E008954F925F926F927F9279
:101570008F929F92AF92BF92EF92FF920F931F9321
:10158000CF93DF9300D01F92CDB7DEB77C018B01E4
:10159000FB01808190E0B0E0A0E0F70182839383BB
:1015A000A483B583FB012181922BF701828393836E
:1015B000A483B583FB012281A22BF701828393834D
:1015C000A483B583FB012381B22BF701828393832C
:1015D000A483B583FB01848190E0B0E0A0E0F70133
:1015E00086839783A087B187FB012581922BF70122
:1015F00086839783A087B187FB012681A22BF70101
:1016000086839783A087B187FB012781B22BF701DF
:1016100086839783A087B187FB01808590E0B0E047
:10162000A0E0F70182879387A487B587FB01218516
:10163000922BF70182879387A487B587FB012285C8
:10164000A22BF70182879387A487B587FB012385A7
:10165000B22BF70182879387A487B587645F7F4F9A
:10166000CE0101960E94F90889819A81AB81BC81E3
:101670004C015D01F0E18F0E911CA11CB11CA80171
:10168000415F5F4FFA0120E130E02901712C612CAC
:10169000481459046A047B0428F4618161932F5F24
:1016A0003F4FF3CFF801E80FF91F1786F70157876F
:1016B000468740960F900F900F900F90DF91CF913B
:1016C0001F910F91FF90EF90BF90AF909F908F90E0
:1016D0007F906F905F904F9008950F931F93CF93DB
:1016E000DF93EC018B0102960E94B40AF801E80F27
:1016F000F91F20812A8B21812B8B22812C8B238126
:101700002D8B24812E8B25812F8B2681288F27815D
:10171000298F20852A8F21852B8F22852C8F238549
:101720002D8F2585468550E070E060E0BA01552791
:101730004427522B2485422B2785722B4E8F5F8F97
:1017400068A379A32189428950E070E060E0BA0182
:1017500055274427522B2089422B2389722B4AA3D9
:101760005BA36CA37DA32589468950E070E060E00F
:10177000BA0155274427522B2489422B2789722BE3
:101780004EA35FA368A779A7218D428D50E070E03A
:1017900060E0BA0155274427522B208D422B238D20
:1017A000722B4AA75BA76CA77DA7248D2EA7268D39
:1017B000478D50E070E060E0BA0155274427522B76
:1017C000258D422B20A1722B4FA758AB69AB7AAB6A
:1017D00022A143A150E070E060E0BA015527442700
:1017E000522B21A1422B24A1722B4BAB5CAB6DABD6
:1017F0007EAB25A130E038AF2FAB46A1342B38AFFC
:101800002FAB27A130E03AAF29AF40A5342B3AAF38
:1018100029AF21A530E03CAF2BAF42A5342B3CAF24
:101820002BAF23A530E03EAF2DAF44A5342B3EAF08
:101830002DAF8D96DF91CF911F910F9108954F920B
:101840005F926F927F928F929F92AF92BF92EF9230
:10185000FF920F931F93CF93DF9300D000D01F927E
:101860001F92CDB7DEB77C018B0102960E94B40AAD
:101870005C01B801680F791FCE0101960E94F9083A
:10188000B5016C5F7F4F89819A81AB81BC818D836B
:101890009E83AF83B8874B01072E000CAA08BB08B4
:1018A000880E991EAA1EBB1EF801E60FF71F2F0116
:1018B000401A510A712C612C481459046A047B04A3
:1018C00038F441919F0122503109D9014C93EFCF57
:1018D0008D819E81860F971FF801E80FF91F3197C0
:1018E000108261507109600F711FF701738B628B59
:1018F00028960FB6F894DEBF0FBECDBFDF91CF9113
:101900001F910F91FF90EF90BF90AF909F908F909D
:101910007F906F905F904F900895AB01FC01A6817E
:10192000B78164817581ED91FC9111970190F081EF
:10193000E02DCD0119940F931F93CF93DF93EC010A
:10194000FB01808188878E01075F1F4FEF89F88D2B
:10195000B801CE0106961995B801CE010D96DF911A
:10196000CF911F910F910C948D0C84EC95E008950C
:1019700084E192E0089585EE95E0089586E096E092
:1019800008954F925F926F927F928F929F92AF9243
:10199000BF92EF92FF920F931F93CF93DF9300D0EC
:1019A0001F92CDB7DEB77C018B01FB018191BF0196
:1019B000F7018283CE0101960E94F90889819A81FC
:1019C000AB81BC814C015D01F5E08F0E911CA11C27
:1019D000B11CA8014C5F5F4FFA0125E030E02901FE
:1019E000712C612C481459046A047B0428F4618129
:1019F00061932F5F3F4FF3CFF801E80FF91F148277
:101A0000F7015483438305960F900F900F900F902A
:101A1000DF91CF911F910F91FF90EF90BF90AF900A
:101A20009F908F907F906F905F904F90089589E185
:101A300096E008958AE396E008954F925F926F9240
:101A40007F928F929F92AF92BF92CF92DF92EF924E
:101A5000FF920F931F93CF93DF93CDB7DEB72C97F1
:101A60000FB6F894DEBF0FBECDBF7C018B01DB014A
:101A70008C9190E0F7019383828311962C91922BA5
:101A8000938382836E5F7F4FCE0101960E94F90897
:101A900089809A80AB80BC8024013501F6E04F0E2E
:101AA000511C611C711C98012B5F3F4FF90186E0AE
:101AB00090E0AC0170E060E04415550566057705DF
:101AC00020F4418141930196F4CFB4016A5F7F4FC6
:101AD000F801E80DF91D1582D70115963C932E9358
:101AE0001497600F711FCE0105960E94F908BAE0A5
:101AF0008B0E911C4D805E806F807884C401092C10
:101B0000000CAA0BBB0B5C016D01A40CB51CC61C20
:101B1000D71CF801E80DF91DAF01401B510B70E017
:101B200060E04A155B056C057D0538F42191AF0135
:101B300042505109DA012C93EFCF480C591CB801DF
:101B4000640D751DFB0131971082C4010197800F50
:101B5000911FF70197838683CE0109960E94F908A9
:101B600092012C5F3F4F89849A84AB84BC84A90185
:101B7000032E000C660B770B480D591D6A1D7B1D4B
:101B8000F801E20FF31FCF01801B910BB0E0A0E042
:101B900084179507A607B70728F48191DF011297EC
:101BA0008C93F1CFC901880D991DF801E80FF91F39
:101BB000DF0111971C9221503109020F131FD70129
:101BC00019961C930E9318972181428150E070E082
:101BD00060E0BA0155274427522B2081422B2381F4
:101BE000722BF701428753876487758704962C967A
:101BF0000FB6F894DEBF0FBECDBFDF91CF911F911E
:101C00000F91FF90EF90DF90CF90BF90AF909F909B
:101C10008F907F906F905F904F90089583E596E04E
:101C2000089584E796E00895FC01DB014C9150E0B3
:101C300070E060E0428353836483758311968C91D6
:101C40001197582B428353836483758312968C912A
:101C50001297682B428353836483758313968C9108
:101C60001397782B428353836483758314964C9126
:101C7000149750E070E060E0468357836087718777
:101C800015968C911597582B4683578360877187DB
:101C900016968C911697682B4683578360877187B9
:101CA00017968C91782B468357836087718788E0DD
:101CB00090E00895DC01FB0112968C9112978083CD
:101CC00013968C911397818314968C911497828329
:101CD00015968C911597838316968C91169784830D
:101CE00017968C911797858318968C9118978683F1
:101CF00019968C91878388E090E008958EBD00004E
:101D00000DB407FEFDCF8EB50895CF92DF92EF920E
:101D1000FF920F931F93CF93DF937C0160E0FC0150
:101D200080810E94790580E60E947E0E80E00E94FC
:101D30007E0EC82F80E00E947E0EC82E80E00E949A
:101D40007E0E082F80E00E947E0ED82F61E0F70102
:101D500080810E9479056C2F70E090E080E0962FE2
:101D6000882777276627D12CF12CE12C7601DD24FA
:101D7000CC246C0D7D1D8E1D9F1D10E030E020E0F9
:101D8000322F212F102F0027600F711F821F931FEA
:101D90006D0F711D811D911DDF91CF911F910F91CD
:101DA000FF90EF90DF90CF900895CF93DF93EC01F9
:101DB00060E088810E94790588E90E947E0E80E0BB
:101DC0000E947E0E80E00E947E0E80E00E947E0EC9
:101DD00080E00E947E0E61E088810E94790560E0CB
:101DE00088810E94790580EE0E947E0E61E08881E4
:101DF000DF91CF910C94790581E490E10E94D50E9A
:101E00008FE390E10C94D50EFC01808191810097C5
:101E100011F00C94A92F0895E9E2F0E14481558175
:101E200070E060E0818592850C9424310E940C0F53
:101E30000C940806CF92DF92EF92FF920F931F93BC
:101E4000CF93DF93EC018B0169017A010E940C0FA3
:101E50000C171D0784F080912B1090912C10C8173F
:101E6000D90728F4B701A601CE010E9404030E94FD
:101E700008062196EDCFDF91CF911F910F91FF9032
:101E8000EF90DF90CF9008950F931F93E091FF079D
:101E9000F0910008E130F105D1F0E230F105C9F12F
:101EA000EF2B91F40E941A0F0E94E4066093FB0747
:101EB0007093FC078093FD079093FE0781E090E00C
:101EC000909300088093FF071F910F9108950E943F
:101ED000E4060091FB071091FC072091FD0730916B
:101EE000FE07601B710B820B930B64367105810535
:101EF000910550F30E94160F0E94E4066093FB07C1
:101F00007093FC078093FD079093FE0782E090E0BA
:101F1000D7CF0E94E4060091FB071091FC072091A7
:101F2000FD073091FE07601B710B820B930B64362B
:101F300071058105910540F2109200081092FF078B
:101F4000C3CF0F931F93CF93DF938C01EB0180914D
:101F5000F9079091FA078130910509F456C03CF4D5
:101F6000892B01F1DF91CF911F910F91089582305C
:101F7000910509F46DC00397A9F70E94E40600914A
:101F8000F5071091F6072091F7073091F807601BCD
:101F9000710B820B930B643F71408105910508F032
:101FA0006BC0E0CF0E94E4066093F5077093F607DC
:101FB0008093F7079093F8078091F3079091F407C7
:101FC0009C012F5F3F4F3093F4072093F307039753
:101FD0006CF083E090E09093FA078093F9070E94F9
:101FE000160F1092F4071092F307BCCF20E03FEFDA
:101FF0004FEF50E0BE01C8010E941A0F81E090E04F
:102000009093FA078093F907ADCF0E94E406009100
:10201000F5071091F6072091F7073091F807601B3C
:10202000710B820B930B643671058105910508F4E1
:1020300099CF0E94160F0E94E4066093F5077093F3
:10204000F6078093F7079093F80782E090E0D8CFE7
:102050000E94E4060091F5071091F6072091F7071A
:102060003091F807601B710B820B930B643671057E
:102070008105910508F476CF1092FA071092F907BE
:1020800071CFCF93DF9320915E0730915F072230AD
:10209000310509F45DC02330310509F48CC0232BD0
:1020A00001F5029779F50E940C0F8091D1078111FB
:1020B0001CC087E090E090935D0780935C071092CE
:1020C0005B0710925A0780915C0790915D0790938F
:1020D00059078093580782E090E090935F078093C0
:1020E0005E0780E0DF91CF91089587E190E09093C3
:1020F0005D0780935C0780E190E090935B0780939D
:102100005A07E1CF0E940C0F8091D107811117C0AF
:1021100088E090E090935D0780935C078FE090E00B
:1021200090935B0780935A0780915C0790915D07BD
:10213000909359078093580783E090E0CECF88E1D1
:1021400090E090935D0780935C078FE190E0E8CF8B
:10215000C0915807D091590780912B1090912C1065
:10216000C817D90738F440E05FE76FEF70E0CE01A1
:102170000E9404030E940806CE010197909359071C
:102180008093580780915A0790915B078C179D07A1
:102190000CF4A7CF80915C0790915D07909359074D
:1021A000809358070E940C0F0E94080610925F0748
:1021B00010925E0796CFC0915807D0915907809131
:1021C0002B1090912C10C817D90738F440E05FE726
:1021D0006FEF70E0CE010E9404030E940806CE015A
:1021E0000196909359078093580780915A079091D0
:1021F0005B07C817D9070CF474CFCCCFFC01019052
:102200000020E9F73197AF01481B590BBC0181EE63
:1022100099E00C948A038F929F92AF92BF920F9392
:102220001F93CF93DF93CDB7DEB7A1970FB6F89486
:10223000DEBF0FBECDBF19A2423008F44AE08E01C6
:102240000F5D1F4F842E912CB12CA12CA501940160
:102250000E94E32EE62FB901CA01EA30F4F4E05DF2
:10226000D801EE938D01232B242B252B79F790E0B9
:1022700080E0109719F0CD010E94FE10A1960FB6D4
:10228000F894DEBF0FBECDBFDF91CF911F910F91AC
:10229000BF90AF909F908F900895E95CE1CF0F932E
:1022A0001F93CF93DF93EC0188819981009759F0B8
:1022B0002A813B812617370730F081E0DF91CF91EB
:1022C0001F910F9108958B016F5F7F4F0E943230F5
:1022D000009759F0998388831B830A832C813D8161
:1022E000232B59F7FC011082E8CF80E0E7CFEF9273
:1022F000FF920F931F93CF93DF93EC017B018A0131
:10230000BA010E944F1128813981811114C0211511
:10231000310519F0C9010E94A92F198218821D8266
:102320001C821B821A82CE01DF91CF911F910F91E7
:10233000FF90EF9008951D830C83B701C9010E949F
:102340003431F1CFCF93DF931F921F92CDB7DEB719
:10235000FC01118210821382128215821482698319
:102360001A82BE016F5F7F4FFB0101900020E9F7E9
:102370003197AF01461B570B0E9477110F900F90BA
:10238000DF91CF910895AF92BF92CF92DF92EF92FB
:10239000FF920F931F93CF93DF93EC018B01029673
:1023A0000E94B40AF801E80FF91F20813181C28030
:1023B000D12CF12CE12C7601DD24CC24D32AC22AA5
:1023C0002381F22A5C0124E0A20EB11C8A899B8938
:1023D000AC89BD898C159D05AE05BF0538F4B601E5
:1023E0008F89988D0E943230988F8F8BCA8ADB8AB2
:1023F000EC8AFD8AF801EA0DFB1D40E050E0BA01CD
:10240000CF01801B910BCA88DB88EC88FD884C15B6
:102410005D056E057F0560F481918E8BAF89B88D67
:10242000A40FB51F8C934F5F5F4F6F4F7F4FE8CF67
:10243000DF91CF911F910F91FF90EF90DF90CF90A0
:10244000BF90AF900895EF92FF920F931F93CF9399
:10245000DF937C018B01DC011296ED91FC91EF0181
:1024600009900020E9F72197CE1BDF0BAE0170E049
:1024700060E0C8010E942A09F70162817381AE0100
:10248000C80104960E941B31CE010496DF91CF91C2
:102490001F910F91FF90EF900895EF92FF920F938D
:1024A0001F93CF93DF938C01EB01FC018281888322
:1024B0008381898384818A8385818B8386818C83D0
:1024C00087818D8380858E8381858F8382858887B0
:1024D0008385898784858A8785858B87A685B78547
:1024E000FD0101900020E9F731977F01EA1AFB0A0C
:1024F000A70170E060E0CE010C960E942A09F80165
:1025000066857785A701CE0140960E941B31C701E1
:102510004096DF91CF911F910F91FF90EF9008951A
:102520000F931F93CF93DF93EC018B0102960E94D0
:102530004D12BC01F801E80FF91F8A8980838B894D
:1025400081838C8982838D8983838E8984838F891B
:102550008583888D8683898D87838A8D80878B8DFF
:1025600081878C8D82878D8D83873E8D2F8D98A15D
:1025700089A134872587968787873AA12BA19CA1BB
:102580008DA1308B218B928B838B3EA12FA198A59F
:1025900089A5348B258B968B878B3AA52BA59CA57B
:1025A0008DA5308F218F928F838F8EA5848F8FA5DD
:1025B00038A929A99AA9858F368F278F90A38BA92F
:1025C0003CA92DA99EA981A332A323A394A38FA9DB
:1025D00085A388AD86A389AD87A38AAD80A78BAD7F
:1025E00081A78CAD82A78DAD83A78EAD84A7CB01CB
:1025F0008D96DF91CF911F910F910895CF92DF9229
:10260000EF92FF920F931F93CF93DF936C017B01A7
:1026100002960E944D128C01D6015296ED91FC91CA
:10262000EF0109900020E9F72197CE1BDF0BAE01E7
:1026300070E060E0C701800F911F0E942A090C5FC3
:102640001F4FF60162897389AE01C701800F911F88
:102650000E941B31CE01800F911FDF91CF911F91FE
:102660000F91FF90EF90DF90CF900895CF92DF927F
:10267000EF92FF920F931F93CF93DF93EC018B01A7
:1026800002960E944D12F801E80FF91F2A89208353
:102690002B8921832C8922832D8923830496F80199
:1026A000E80FF91F40E050E0BA01CF01801B910B09
:1026B000CA88DB88EC88FD884C155D056E057F05B2
:1026C00058F4AF89B88DA40FB51F8C9181934F5FDB
:1026D0005F4F6F4F7F4FE9CFDF91CF911F910F91E8
:1026E000FF90EF90DF90CF9008952F923F924F92FE
:1026F0005F926F927F928F929F92AF92BF92CF9292
:10270000DF92EF92FF920F931F93CF93DF93CDB79A
:10271000DEB72E970FB6F894DEBF0FBECDBF8C018B
:102720006B01DB018D909D90AD90BC90FC0182818E
:102730009381A481B58188159905AA05BB0570F41C
:10274000B401660F771F660F771F828593850E94FD
:102750003230D8011B969C938E931A97F80182828F
:102760009382A482B582C60140E050E0BA01A4E0A1
:10277000EA2EF12C98012A5F3F4FDC011596EC916F
:10278000159716964C901697512C712C612C32018E
:10279000552444245E2A1496EC9114974E2A1796D9
:1027A000EC917E2AD7011701E4E02E0E311C710155
:1027B0000496F80182809380A480B580481559055D
:1027C0006A057B05A8F44682578260867186149755
:1027D000A284B384AA0DBB1DE4E0BE2EF9010190D2
:1027E0000D92BA94E1F74F5F5F4F6F4F7F4FC5CFA8
:1027F00084859585A685B78584159505A605B705B5
:1028000070F4B201660F771F660F771F8489958970
:102810000E943230D80155969C938E935497F801BC
:102820004486558666867786C601820D931D412CA7
:10283000512C32011C019801205F3F4FDC011196A1
:102840006C91119712968C901297912CB12CA12C0F
:10285000540199248824962A6C91862A13966C91A7
:10286000B62AB4E0EB0EF11CF80144855585668567
:1028700077854416550666067706C0F4808A918AE5
:10288000A28AB38ABC0162197309A489B589A60F0B
:10289000B71F64E0F90101900D926A95E1F7BFEF6F
:1028A0004B1A5B0A6B0A7B0A0496C8CF8689978904
:1028B000A08DB18D88159905AA05BB0560F4B401FA
:1028C000660F771F848D958D0E943230D8015D96FA
:1028D0009C938E935C97F801868A978AA08EB18E1E
:1028E000412C512C32011801FAE12F0E311CF80154
:1028F00086899789A08DB18D481659066A067B0690
:1029000008F05CC0B6016E0D7F1DCE0101960E94DD
:10291000F90897012C5F3F4F3E872D8789809A8069
:10292000AB80BC80C901032E000CAA0BBB0BAC0111
:10293000BD01480D591D6A1D7B1D49875A876B874C
:102940007C87F901EC0DFD1D9F012C193D09B90192
:1029500090E080E029853A854B855C856217730796
:102960008407950728F42191DF0112972C93ECCF6F
:10297000ED84FE84E80CF91CF601EE0DFF1D319785
:1029800010828D859E8501978C0D9D1DD8015B96CB
:102990009C938E935A97C201880F991F5C96ED9174
:1029A000FC91E80FF91FD1018D919C919183808357
:1029B000BFEF4B1A5B0A6B0A7B0A99CFC7012E96B1
:1029C0000FB6F894DEBF0FBECDBFDF91CF911F9140
:1029D0000F91FF90EF90DF90CF90BF90AF909F90BE
:1029E0008F907F906F905F904F903F902F900895C1
:1029F0002F923F924F925F926F927F928F929F920F
:102A0000AF92BF92CF92DF92EF92FF920F931F93FC
:102A1000CF93DF93CDB7DEB7A6970FB6F894DEBF9E
:102A20000FBECDBF8C010E94E4064B015C019801F2
:102A300025573B4F3E8B2D8BF90180819181A281DF
:102A4000B38175016401C81AD90AEA0AFB0AD701E1
:102A5000C601893F9A42A105B10510F03597108251
:102A6000180134E8231A3BEF330AD1018D919C9170
:102A7000892B79F0F801E157FB4F80819181A28188
:102A8000B38188159905AA05BB0518F4F1011182D7
:102A9000108298012C573B4F3A8B298BA801405844
:102AA0005B4F5C8B4B8BC8014896988F8F8BD801FE
:102AB000AA57BB4FBC8FAB8FF801EC56FB4FFE8F74
:102AC000ED8F215F3F4F38A32F8F42505109588B14
:102AD0004F8786599B4F9A8F898F1996BAA3A9A3BE
:102AE000A50194012C5E3F4F4F4F5F4F2BA33CA39A
:102AF0004DA35EA3F80184899589A689B789892B9E
:102B00008A2B8B2BB9F5D80112968D919C91DC0103
:102B1000ED91FC910284F385E02D19959C0197FFBE
:102B20003DC0F801EA57FB4F8081882301F178010D
:102B3000B9E7EB1ABBEFFB0AF70180819181A28113
:102B4000B381A5019401281B390B4A0B5B0BDA01F9
:102B5000C901853C9940A105B10548F0C8010E9412
:102B6000C308D7018D929D92AD92BC92139790E0CD
:102B700080E0B6C10E94E406681979098A099B09B8
:102B8000F801C488D588E688F788C616D706E8060F
:102B9000F90608F0B8CF8EEF9FEFA2C1A989BA89D4
:102BA0008D919C911197820F931F8D939C93F101AE
:102BB0004081518147305105F9F4A98DBA8D8D912D
:102BC0009C911197AC014F5F5F4F4D935C93800FC9
:102BD000911FFC01208FAF85B8898D919C91119731
:102BE00001978D939C93892B09F084CF88E090E026
:102BF000F101918380837ECF4115510521F52F3F4F
:102C0000310581F481E090E091838083CBA0DCA04A
:102C1000EDA0FEA0A9A1BAA1CD92DD92ED92FC9209
:102C2000139768CF0E94E406681979098A099B09FD
:102C3000693873418105910508F45CCFF801EA57C2
:102C4000FB4F1082A8CF4130510589F42E3F31054A
:102C500019F482E090E0CCCF11821082EB8DFC8DD4
:102C60008081811147CFC8010E94C30843CF423001
:102C7000510591F4AF85B8892D933C93E98DFA8D78
:102C80001182108283E090E0D1018D939C93E989B9
:102C9000FA89318320832ECF4330510571F4322FCE
:102CA0002227AF85B8898D919C911197280F391FE4
:102CB0002D933C9384E090E09BCF4430510579F410
:102CC00060E071E00E94CF2E8F3F910529F485E0EE
:102CD00090E0918380830ECF118210820BCF45301C
:102CE000510569F4AB89BC892D933C9386E090E053
:102CF00091838083A989BA892D933C93FBCE46307A
:102D00005105A1F4322F2227EB89FC898081918122
:102D1000280F391F3183208387E090E0D1018D9304
:102D20009C93EF85F889808191815DCF4830510572
:102D300009F0E0CE1182108260E071E00E94CF2E97
:102D40008F3F910509F0D6CEAB89BC89ED91FC91FE
:102D5000309709F0DEC0C8010E94C30884E392E006
:102D60009A8389831C821B8282E197E09E838D83F4
:102D700098878F839A8789871B861C861D861E8667
:102D80006801B8EECB1ABBEFDB0A7801E6EBEE1A6E
:102D9000EBEFFE0A412C22E0522E612C712CD60161
:102DA000ED91FC913097A9F1848195819C838B836F
:102DB000808191819E838D8382819381DC01ED915D
:102DC000FC910480F581E02D199598878F83D601B9
:102DD000ED91FC9182819381DC01ED91FC91068063
:102DE000F781E02D19959A8789874B865C866D86D9
:102DF0007E86D601ED91FC9160857185D801ED91BB
:102E0000FC910190F081E02DAE014F5F5F4FC80152
:102E10001995B2E0CB0ED11CEC14FD0409F0BFCF24
:102E2000412C92E0592E612C712CF701A081B181C7
:102E30001097E1F112968D919C9113979C838B834F
:102E400014968D919C9115979E838D83ED91FC91A5
:102E500011970480F581E02DCD01199598878F8316
:102E6000D7018D919C91DC01ED91FC910680F78159
:102E7000E02D19959A8789874B865C866D867E86BC
:102E8000D801ED91FC91C080D180F70180819181C2
:102E9000DC01ED91FC910280F381E02D1995AE01EA
:102EA0004F5F5F4FBC01C801F6011995F2E0EF0ECC
:102EB000F11CE214F30409F0B8CFF801EA57FB4F14
:102EC00081E08083319680829182A282B382AD8933
:102ED000BE898D929D92AD92BC9213978FEF9FEF1A
:102EE000A6960FB6F894DEBF0FBECDBFDF91CF918F
:102EF0001F910F91FF90EF90DF90CF90BF90AF9018
:102F00009F908F907F906F905F904F903F902F9009
:102F10000895EA30F10509F0A1C080E492E09A83B7
:102F200089831B821C821D821E821F82188619863D
:102F30001A860E94E406F801C084D184E284F384F6
:102F40009B01AC012C193D094E095F0969017A0109
:102F50006F89788DCE0101960E94140EC701B601CB
:102F600028EE33E040E050E00E94E32E69017A0150
:102F70009B01AC018B819C81AD81BE818C0D9D1D1F
:102F8000AE1DBF1D8B839C83AD83BE8360E472E462
:102F90008FE090E00E94AB2ECF80D884E984FA8441
:102FA000DC01CB018C0D9D1DAE1DBF1D8F8398874D
:102FB000A987BA870E94E406CF80D884E984FA847E
:102FC00036E3D31A35E6E30A34ECF30A28EE33E0AD
:102FD00040E050E00E94E32E29013A019B01AC0140
:102FE00060E472E48FE090E00E94AB2EA7019601AE
:102FF000261B370B480B590BCA01B9012B813C81A9
:103000004D815E81215031094109510969017A01DF
:10301000C418D508E608F7082601370120E03AEC85
:103020004AE95BE30E94E32E420E531E641E751EA6
:10303000D8011C964D925D926D927C921F97F8017B
:10304000608B718B828B938B0E94E406AD89BE8965
:103050006D937D938D939C9313974CCDE630F10542
:1030600059F46F89788D8D8D9E8D0E94751381E046
:10307000EF8DF8A180833ECDEB30F10521F4AB8DCF
:10308000BC8D1C9237CDEF53FE4FEE0FFF1FE00FAC
:10309000F11F80819181009709F42CCDDC01ED9125
:1030A000FC910190F081E02D6F89788D199522CDEA
:1030B0004F925F926F927F928F929F92AF92BF9248
:1030C000CF92DF92EF92FF920F931F93CF93DF93F4
:1030D000EC017B018A81FB0180838B8181838C8160
:1030E00082838D8183833496412C512C320104E0FC
:1030F00010E09F012F5F3F4FCF010296DF01139633
:10310000A8010C5F1F4F8A809B80AC80BD80481453
:1031100059046A047B04C8F4AA85BB85A40FB51FB3
:1031200014974C9111962C91119712969C9112978D
:1031300013968C9140832183928383838FEF481A67
:10314000580A680A780A3496D4CF4C8540834D8556
:10315000F90140832E85FC0120838F858C93F70134
:10316000E00FF11F412C512C3201AF019F012F5F65
:103170003F4FCF010296DF0113960C5F1F4F8C84E7
:103180009D84AE84BF84481459046A047B04D8F437
:10319000CF01841B950BAC89BD89A80FB91F3C9149
:1031A00011962C91119712969C91129713968C91CF
:1031B00030832183928383838FEF481A580A680AE9
:1031C000780A3496D3CF4E8940834F89F9014083E2
:1031D000288DFC012083898D8C93412C512C320148
:1031E0008E899F89A88DB98D481659066A067B0677
:1031F00080F55201AA0CBB1CEC8DFD8DEA0DFB1D68
:10320000A081B181FD0101900020E9F731976F01A4
:10321000CA1ADB0AA60170E060E0C701800F911FA7
:103220000E942A090C5F1F4F8C8D9D8DA80EB91E20
:10323000F50160817181A601C701800F911F0E9475
:103240001B310C0D1D1DFFEF4F1A5F0A6F0A7F0A1D
:10325000C7CFC801DF91CF911F910F91FF90EF90E1
:10326000DF90CF90BF90AF909F908F907F906F90A6
:103270005F904F900895EF92FF920F931F93CF931B
:10328000DF938C017B01DC0112962C911297FB01DC
:103290002193CF011396ED91FC91EF01099000204D
:1032A000E9F72197CE1BDF0BAE0170E060E00E94D2
:1032B0002A09D80113966D917C91AE01C70105963C
:1032C0000E941B31CE010596DF91CF911F910F9186
:1032D000FF90EF900895CF92DF92EF92FF920F93BD
:1032E0001F93CF93DF936C01EB01DC0112968C915D
:1032F0001297888313968C91139789831496ED9176
:10330000FC91DF010D900020E9F78D0101501109BA
:103310000E1B1F0BA80170E060E0CE0102960E9418
:103320002A09F60164817581A801CE0106960E94E2
:103330001B31C8010696F601A681B781FD010190F7
:103340000020E9F731977F01EA1AFB0AA70170E034
:1033500060E08C0F9D1F0E942A09065F1F4FD60157
:1033600016966D917C91A701CE01800F911F0E944E
:103370001B310E0D1F1DF601A085B185FD010190C9
:103380000020E9F731977F01EA1AFB0AA70170E0F4
:1033900060E0CE01800F911F0E942A090C5F1F4F31
:1033A000D60118966D917C91A701CE01800F911FD7
:1033B0000E941B31C701800F911FF6016285438572
:1033C00034852585C80FD91F688349833A832B83A9
:1033D0000496DF91CF911F910F91FF90EF90DF90B6
:1033E000CF9008951F920F920FB60F9211240BB633
:1033F0000F922F933F934F935F936F937F938F938E
:103400009F93AF93BF93EF93FF9381E098E00E9467
:103410003504FF91EF91BF91AF919F918F917F9173
:103420006F915F914F913F912F910F900BBE0F9035
:103430000FBE0F901F9018951F920F920FB60F920C
:1034400011240BB60F922F933F934F935F936F937B
:103450007F938F939F93AF93BF93EF93FF9381E0FD
:1034600098E00E94B703FF91EF91BF91AF919F91B8
:103470008F917F916F915F914F913F912F910F901D
:103480000BBE0F900FBE0F901F9018951F920F92BA
:103490000FB60F9211240BB60F922F933F934F93B9
:1034A0005F936F937F938F939F93AF93BF93EF93AC
:1034B000FF938EE998E00E943504FF91EF91BF9150
:1034C000AF919F918F917F916F915F914F913F91BC
:1034D0002F910F900BBE0F900FBE0F901F9018955D
:1034E0001F920F920FB60F9211240BB60F922F93CB
:1034F0003F934F935F936F937F938F939F93AF937C
:10350000BF93EF93FF938EE998E00E94B703FF917A
:10351000EF91BF91AF919F918F917F916F915F914B
:103520004F913F912F910F900BBE0F900FBE0F90B8
:103530001F9018951F920F920FB60F9211240BB681
:103540000F922F933F934F935F936F937F938F933C
:103550009F93AF93BF93EF93FF938BE399E00E9408
:103560003504FF91EF91BF91AF919F918F917F9122
:103570006F915F914F913F912F910F900BBE0F90E4
:103580000FBE0F901F9018951F920F920FB60F92BB
:1035900011240BB60F922F933F934F935F936F932A
:1035A0007F938F939F93AF93BF93EF93FF938BE39F
:1035B00099E00E94B703FF91EF91BF91AF919F9166
:1035C0008F917F916F915F914F913F912F910F90CC
:1035D0000BBE0F900FBE0F901F9018951F920F9269
:1035E0000FB60F9211240BB60F922F933F934F9368
:1035F0005F936F937F938F939F93AF93BF93EF935B
:10360000FF9381EE99E00E943504FF91EF91BF9105
:10361000AF919F918F917F916F915F914F913F916A
:103620002F910F900BBE0F900FBE0F901F9018950B
:103630001F920F920FB60F9211240BB60F922F9379
:103640003F934F935F936F937F938F939F93AF932A
:10365000BF93EF93FF9381EE99E00E94B703FF9130
:10366000EF91BF91AF919F918F917F916F915F91FA
:103670004F913F912F910F900BBE0F900FBE0F9067
:103680001F9018951F920F920FB60F9211242F932F
:103690003F938F939F93AF93BF93809161079091D6
:1036A0006207A0916307B09164073091600723E03F
:1036B000230F2D3758F50196A11DB11D20936007EA
:1036C0008093610790936207A0936307B0936407A8
:1036D0008091650790916607A0916707B091680790
:1036E0000196A11DB11D8093650790936607A09375
:1036F0006707B0936807BF91AF919F918F913F91FA
:103700002F910F900FBE0F901F90189526E8230F52
:103710000296A11DB11DD2CF1F920F920FB60F922C
:1037200011248F939F9388EE93E09093A50080934C
:10373000A4009F918F910F900FBE0F901F9018952E
:103740001F920F920FB60F9211248F939F9385E0D3
:103750009FEF90939500809394009F918F910F908D
:103760000FBE0F901F9018951F93CF93DF93EC011E
:10377000862F6883798361E00E94A70561E08881D4
:103780000E9479051FB7F89480915607811127C0D0
:10379000EDE8F4E08491EDE2F4E09491E82FF0E0BC
:1037A000EE0FFF1FE258FC4FA591B491EC91E92375
:1037B00021F461E085E30E94790561E085E30E94E0
:1037C000A7058CB580618CBD8CB580648CBD61E033
:1037D00084E30E94A70561E083E30E94A70580912E
:1037E00056078F5F809356071FBF60E088810E9455
:1037F000790588E80E947E0E83E00E947E0E61E0DB
:1038000088810E94790560E088810E94790588E8B6
:103810000E947E0E80E00E947E0E61E088810E9400
:10382000790560E088810E94790588E80E947E0E13
:1038300080E00E947E0E61E088810E94790560E050
:1038400088810E94790588E80E947E0E80E00E94AF
:103850007E0E61E088810E94790560E088810E9487
:10386000790588E80E947E0E80E80E947E0E61E065
:1038700088810E94790560E088810E94790580E94D
:103880000E947E0E80E00E947E0E61E088810E9490
:10389000790560E088810E94790580E90E947E0EAA
:1038A00080E00E947E0E61E08881DF91CF911F91C0
:1038B0000C947905109204081092030848EE53E026
:1038C00060E070E040930508509306086093070895
:1038D000709308088BE692E09093020880930108A9
:1038E00025E331E030930E0820930D0824E331E006
:1038F0003093100820930F0820E331E03093120832
:103900002093110821E331E0309314082093130829
:1039100022E331E0309316082093150826E331E0C6
:10392000309318082093170810921A0810921B0859
:1039300010921C0810921D081092A1081092A00865
:103940004093A2085093A3086093A4087093A5081D
:1039500090939F0880939E0825ED30E03093AB084C
:103960002093AA0824ED30E03093AD082093AC08F2
:1039700020ED30E03093AF082093AE0821ED30E029
:103980003093B1082093B00822ED30E03093B308B3
:103990002093B20826ED30E03093B5082093B408A8
:1039A0001092B7081092B8081092B9081092BA088D
:1039B00010923E0910923D0940933F0950934009EF
:1039C000609341097093420990933C0980933B09AD
:1039D0002DEC30E030934809209347092CEC30E07F
:1039E00030934A092093490928EC30E030934C0980
:1039F00020934B0929EC30E030934E0920934D0978
:103A00002AEC30E03093500920934F092EEC30E03F
:103A1000309352092093510910925409109255097C
:103A200010925609109257091092E4091092E30976
:103A30004093E5095093E6096093E7097093E8091C
:103A40009093E2098093E10985EC90E09093EE0970
:103A50008093ED0984EC90E09093F0098093EF0956
:103A600080EC90E09093F2098093F10981EC90E072
:103A70009093F4098093F30982EC90E09093F60917
:103A80008093F50986EC90E09093F8098093F7090C
:103A90001092FA091092FB091092FC091092FD098C
:103AA000A8EDB9E090E080E021E2E1E0F0E08630CE
:103AB000910510F4F0E0E0E0AC01425F5F4FE40FED
:103AC000F51F20935700E491ED93019689309105FD
:103AD00061F765E370E081E490E10E94B41B61E36B
:103AE00070E08FE390E10E94B41B10922A101092B4
:103AF0003110109238101092391010923A10109222
:103B00003B1081E080933710809334101092351071
:103B100092E0909336108093291080E690E0909385
:103B20002E1080932D100E940D2F909333108093B0
:103B30003210009709F4AFC220E6FC0111922A95D9
:103B4000E9F780E290E090932C1080932B108DE1A8
:103B500090E09093301080932F1080912A1088234A
:103B600041F061E08DE10E94A70560E08DE10E94D7
:103B70007905E5E7F4E0E491F0E0EE0FFF1FE25C89
:103B8000FB4F8591949190933D1080933C10E5E11B
:103B9000F4E0E491E0933E1087EE92E090931110F0
:103BA000809310108BED92E0909317108093161075
:103BB000109218108FEC92E090931A1080931910C5
:103BC00082E197E090931C1080931B1082E896E0AE
:103BD00090931E1080931D1029E130E13093201046
:103BE00020931F1022E030E0309326102093251000
:103BF00090931510809314108AE499E09093281004
:103C00008093271085EC92E090935F0B80935E0B7E
:103C100081EE99E09093610B8093600B80E091EED0
:103C2000A0E0B0E08093620B9093630BA093640BD1
:103C3000B093650B1092E40F89EB92E09093F30F31
:103C40008093F20F109208101092091010920A102F
:103C500010920B1010920F1010920E10E6E7FFE07A
:103C600088EA9FE0119211928E179F07D9F7E8EA30
:103C7000FFE0119211928FE0EA3DF807D1F7E6E7F5
:103C8000FBE011928DE0E637F807D9F7E6E7FDE0B3
:103C900011928FE0E637F807D9F71092F40F1092DF
:103CA000F50F1092F60F1092F70F1092FD0F109271
:103CB000FC0F1092FE0F1092FF0F10920010109246
:103CC000011010920710109206101092720B1092B1
:103CD000730B1092740B1092750B83E593E0909325
:103CE000480B8093470B8DEA92E090934E0B8093A4
:103CF0004D0B10924F0B1092510B1092500B1092D3
:103D0000520B1092530B1092540B1092550B1092B1
:103D1000560B1092570B1092580B1092590B80EFC4
:103D200096E090935B0B80935A0B81E090E0909328
:103D30005D0B80935C0B22E936E030934C0B2093B3
:103D40004B0B47E453E050933C0B40933B0B2BE36E
:103D500033E03093420B2093410B68E479E0709399
:103D6000440B6093430B9093460B8093450B6FE994
:103D700076E07093400B60933F0B5093300B409371
:103D80002F0B3093360B2093350B2CEF3EE0309306
:103D9000380B2093370B90933A0B8093390B2DEA15
:103DA00036E03093340B2093330B2FE233E0309323
:103DB000220B2093210B23E233E03093280B209336
:103DC000270B10922A0B1092290B24E832E0309333
:103DD0002C0B20932B0B90932E0B80932D0B2CEB05
:103DE00036E03093260B2093250B27E133E0309308
:103DF000150B2093140B2BE033E030931B0B209317
:103E00001A0B10921C0B2CE832E030931E0B2093FF
:103E10001D0B9093200B80931F0B29EC36E0309301
:103E2000190B2093180B2FEF32E03093050B2093E2
:103E3000040B23EF32E030930B0B20930A0B10920C
:103E40000D0B10920C0B10920F0B10920E0B26E91B
:103E500032E03093110B2093100B9093130B80934F
:103E6000120B88ED96E09093090B8093080B81EA82
:103E700092E09093F10A8093F00A25E932E03093C2
:103E8000F30A2093F20A1092F40A1092F50A1092A3
:103E9000F60A1092F70A1092F80A1092F90A109294
:103EA000FA0A1092FB0A1092FC0A1092FD0A109274
:103EB000FE0A1092FF0A82E197E09093010B809333
:103EC000000B9093030B8093020B40EF56E050934E
:103ED000E70A4093E60A40EF5AE05093E90A40931C
:103EE000E80A1092EF0A1092EE0A49E852E0509365
:103EF000CE0A4093CD0A3093D00A2093CF0A109275
:103F0000D10A1092D20A1092D30A1092D40A1092B7
:103F1000D50A1092D60A1092D70A1092D80A109297
:103F2000D90A1092DA0A1092DB0A1092DC0A9093F6
:103F3000DE0A8093DD0A1092DF0A1092E00A1092E6
:103F4000E10A1092E20A1092E50A1092E40A4DE7A3
:103F500052E050938F0A40938E0A3093910A209337
:103F6000900A1092920A1092930A1092940A109258
:103F7000950A1092960A1092970A1092980A109237
:103F8000990A10929A0A10929B0A10929C0A109217
:103F90009D0A90939F0A80939E0A1092A00A109205
:103FA000A10A1092A20A1092A30A1092A40A1092D7
:103FB000A50A1092A60A1092A70A1092A80A1092B7
:103FC000A90A1092AA0A1092AB0A1092AC0A109297
:103FD000AD0A1092AE0A1092AF0A1092B00A109277
:103FE000B10A1092B20A1092B30A1092B40A109257
:103FF000B50A1092B60A1092B70A1092B80A109237
:10400000B90A1092BA0A1092BB0A1092BC0A109216
:10401000BD0A1092BE0A1092BF0A1092C00A1092F6
:10402000C10A1092C20A1092C30A1092C40A1092D6
:10403000C60A1092C50A1092C80A1092C70A1092B6
:10404000CA0A1092C90A1092CC0A1092CB0A89EFC0
:1040500096E09093850A8093840A8EE89AE0909384
:10406000870A8093860A10928D0A10928C0A109209
:104070007F0A10927E0A1092810A1092800A109292
:10408000830A1092820A50E040E062E177E08EE716
:104090009AE00C94771110922E1010922D1010921D
:1040A0002C1010922B1053CDCF93DF93CDB7DEB7EA
:1040B000E0970FB6F894DEBF0FBECDBF789484B5FD
:1040C000826084BD84B5816084BD85B5826085BD14
:1040D00085B5816085BD80916E00816080936E00A2
:1040E0001092810080918100826080938100809194
:1040F0008100816080938100809180008160809345
:1041000080008091B10084608093B1008091B00004
:1041100081608093B00080919100826080939100D3
:1041200080919100816080939100809190008160E6
:10413000809390008091A10082608093A100809183
:10414000A10081608093A1008091A0008160809394
:10415000A000809121018260809321018091210142
:1041600081608093210180912001816080932001F2
:1041700080917A00846080937A0080917A008260D6
:1041800080937A0080917A00816080937A00809198
:104190007A00806880937A001092C10040E052EC6F
:1041A00061E070E081EE99E00E94A40285E097E072
:1041B0000E94FE1088EDE82E89E0F82E91EEC92EBF
:1041C00099E0D92E8701D8018D918D01803120F49D
:1041D00084EC94E00E94FE10F8013197608170E059
:1041E00090E080E040E10E940B118EE097E00E9499
:1041F000FE10C016D10639F780E197E00E94FE104C
:1042000085E097E00E94FE10F70181917F018031E7
:1042100020F484EC94E00E94FE10F7013197608155
:1042200070E090E080E040E10E940B118EE097E0AA
:104230000E94FE100E151F0539F780E197E00E94DD
:10424000FE1061E08BE00E94A70561E08CE00E9417
:10425000A70561E089E00E94A70561E08AE00E946D
:10426000A70561E086E00E94A70561E087E00E9463
:10427000A70562E084E00E94A70562E085E00E9455
:10428000A70562E08EE10E94A70562E08FE10E942F
:10429000A70561E086E10E94A70561E087E10E9431
:1042A000A70562E080E20E94A70562E081E20E9429
:1042B000A70562E082E20E94A70561E082E00E9419
:1042C000A70561E083E00E94A70540E051EE60E0B1
:1042D00070E08BE399E00E94A40240E855E260E0C0
:1042E00070E08EE998E00E94A40240E855E260E0A8
:1042F00070E081E098E00E94A40281E490E10E94D5
:10430000D50E8FE390E10E94D50E80912F109091F1
:10431000301097FD08C061E00E94A70560E0809121
:104320002F100E94790581E080932A100E940806D0
:1043300060913110633329F12091321030913310A4
:104340006150C9F070E08FEF92E30E94BB2EF9013B
:1043500040912D1050912E10CF01821B930B84178A
:10436000950760F44081469FC001479F900D11243E
:1043700090833196EDCF70E060E0E9CF83E38093E6
:104380003110109280001092810080E092ECA1E048
:10439000B0E08093620B9093630BA093640BB09397
:1043A000650B40E052EC61E070E08091600B909111
:1043B000610B0E94A4021092DB0F1092DA0F109290
:1043C000DD0F1092DC0F1092E10F1092E00F1092AF
:1043D000DF0F1092DE0F84E89AE00E94690386EEF8
:1043E0009AE00E9469038DE190E10E946903E8EA86
:1043F000FFE0DF0190E080E02D913D91232B09F05B
:1044000029C2DC01AA0FBB1FA855B04F20E130E143
:104410002D933C938C599F4F9093131080931210BF
:10442000A8EABFE090E080E02D913D91232B09F0B8
:1044300017C2DC01AA0FBB1FA855B04F27E43BE011
:104440002D933C938C599F4F90934A0B8093490B2B
:10445000A8EABFE090E080E02D913D91232B09F088
:1044600005C2DC01AA0FBB1FA855B04F2BE33BE0F0
:104470002D933C938C599F4F90933E0B80933D0B13
:10448000A8EABFE090E080E02D913D91232B09F058
:10449000F3C1DC01AA0FBB1FA855B04F2FE23BE0D0
:1044A0002D933C938C599F4F9093320B8093310BFB
:1044B000A8EABFE090E080E02D913D91232B09F028
:1044C000E1C1DC01AA0FBB1FA855B04F21E23BE0C0
:1044D0002D933C938C599F4F9093240B8093230BE7
:1044E000A8EABFE090E080E02D913D91232B09F0F8
:1044F000CFC1DC01AA0FBB1FA855B04F24E13BE0A0
:104500002D933C938C599F4F9093170B8093160BD0
:1045100090E080E021913191232B09F0BFC1FC0193
:10452000EE0FFF1FE855F04F24E03BE0318320837E
:104530008C599F4F9093070B8093060B9E012F5F22
:104540003F4F59013E0133E1630E711C22E0422EC0
:10455000512C1E0146E0240E311C0E94E4066B0122
:104560007C010E94E3056093EF077093F00780934E
:10457000F1079093F2078EE59BE00E94F81480917A
:10458000EB079091EC07A091ED07B091EE07A70122
:104590009601281B390B4A0B5B0BDA01C9018436E3
:1045A0009105A105B10508F4FEC08091D1078111E4
:1045B0007BC18091C50A9091C60A20910502309175
:1045C00006028217930748F4892B39F0809105027F
:1045D0009091060211E0892B09F410E08091C70A3E
:1045E0009091C80A20910302309104028217930728
:1045F00048F4892B39F08091030290910402892BB1
:1046000009F07FC10E94E40620916A0730916B0790
:1046100040916C0750916D07621B730B840B950BD7
:10462000603D77408105910510F0111106C0809121
:104630006907181791F0112321F083E197E00E9498
:10464000A3080E94E40660936A0770936B07809347
:104650006C0790936D07109369078EE10E945005D7
:10466000019709F450C18FE10E945005019709F4A8
:104670004AC182E20E945005892B09F444C180E2BC
:104680000E945005892B09F04CC11092E907109245
:10469000E8071092E6071092E50760E086E00E94C6
:1046A000790560E087E00E9479052091EA07409152
:1046B000E8075091E90784B1806684B98091800051
:1046C0008260809380008091810088618093810066
:1046D000809180008068809380008DE790E09093C7
:1046E0008700809386003DE7349FC001359F900D81
:1046F00011246FEF70E00E94CF2E709389006093B9
:1047000088008091810083608093810021112DC1F8
:1047100061E089E00E94790560E082E00E9479050D
:104720002091E7074091E5075091E60784B1806644
:1047300084B98091800082608093800080918100A4
:1047400088618093810080918000806280938000E6
:104750008DE790E090938700809386003DE7349F3B
:10476000C001359F900D11246FEF70E00E94CF2E95
:1047700070938B0060938A008091810083608093A6
:1047800081002111F8C060E08AE00E94790561E0B3
:1047900083E00E947905C092EB07D092EC07E0928B
:1047A000ED07F092EE0781E098E00E94010421E01D
:1047B000892B09F020E08091A707281721F081E0DC
:1047C00098E00E94010481E098E00E94010421E049
:1047D000892B09F020E02093A70781E098E00E9450
:1047E0000104892B81F48091A5079091A607029777
:1047F00054F08AE197E00E94A3080E9430091092C9
:10480000A4071092A30781E098E00E940104181603
:1048100019060CF092C181E098E00E94DF0320911C
:10482000A3073091A4072130310509F4AAC0223032
:10483000310509F4BDC0232B31F7849721F710927D
:10484000A2071092A10741E050E05093A4074093C3
:10485000A307D9CF01968931910509F0CDCDE0CDDF
:1048600001968931910509F0DFCDF2CD01968931AC
:10487000910509F0F1CD04CE01968931910509F039
:1048800003CE16CE01968931910509F015CE28CEBA
:1048900001968931910509F027CE3ACE01968931EA
:1048A000910509F037CE4ACE2091C90A3091CA0A43
:1048B00040910502509106022417350748F4232B36
:1048C00039F0209105023091060211E0232B09F402
:1048D00010E02091CB0A3091CC0A40910302509114
:1048E00004022417350708F08DCE232B09F48ACE55
:1048F0002091030230910402232B09F483CE182F58
:1049000081CE11E07FCE1092E9071092E807109255
:10491000E6071092E50761E086E00E94790561E014
:10492000C1CE81E20E945005892B09F4AECE11114F
:10493000ACCE8091DF079091E0079093E9078093D8
:10494000E8070091DD071091DE071093E60700935A
:10495000E50761E0181619060CF060E086E00E9499
:10496000790510161106DCF29CCE60E089E00E9409
:10497000790561E0D2CE61E08AE00E94790560E0CD
:1049800007CF2091A1073091A207F901E758F84F0E
:1049900080832F5F3F4F3093A2072093A1072231DE
:1049A00031050CF430CF5092A4074092A3072BCFCF
:1049B00060918907CE0187960E94A21160918A07B3
:1049C000CE0181960E94A2111A8219821C821B823A
:1049D0001E821D826FA178A56115710529F04BA576
:1049E0005CA5C5010E94771189A09AA08114910449
:1049F00009F466C00DA11EA101151105B1F08D814C
:104A00009E81080F191FB801C5010E944F1188230C
:104A100009F456C029813A818D819E81B401820FAB
:104A2000931F0E9434311E830D831C8E1B8E1E8E9D
:104A30001D8E18A21F8E69817A816115710531F072
:104A40004D815E81CE014B960E947711C5010E9477
:104A5000040FE9E7F7E090E080E02191022E000CDE
:104A6000330B8227932757E0E938F507B1F71C8A03
:104A70001B8A1E8A1D8A188E1F8A40E1B5010E947A
:104A80003F2AF50101900020E9F73197AF014A195B
:104A90005B09B501C3010E9477110B891C890115BF
:104AA0001105D9F0D8018D918D018823B1F0082E20
:104AB000000C990B0E941331F80131978083F2CFDB
:104AC00089819A81009711F00E94A92F1A82198278
:104AD0001E821D821C821B82A8CF2F89388D8F8D4C
:104AE00098A128173907A1F48B899C896B8D7C8D3F
:104AF000009709F433C46115710539F4232B09F4C7
:104B00003BC4DC018C9190E034C40E942B3131C451
:104B10001092A4071092A3078091A5079091A60771
:104B200001969093A6078093A507082E000C990B79
:104B3000805E984F0E94A30860C48091E107909125
:104B4000E207A091E307B091E4078C159D05AE053F
:104B5000BF05E0F4A7019601281B390B4A0B5B0B3C
:104B6000DA01C901883C9105A105B10578F01092E0
:104B7000E0071092DF071092DE071092DD0781E058
:104B80008093DC071092DB071092DA078091D6073A
:104B90009091D707A091D807B091D907A7019601A6
:104BA000281B390B4A0B5B0BDA01C90184369105CE
:104BB000A105B10508F4ABC08EE10E94500521E0CB
:104BC000892B09F420E02093A00A8FE10E94500570
:104BD00021E0892B09F420E02093A10A84E00E94BF
:104BE000500521E0892B09F020E02093A20A85E0FE
:104BF0000E94500521E0892B09F020E02093A30AB0
:104C000080E20E94500521E0892B09F020E02093EA
:104C1000AA0A81E20E94500521E0892B09F020E0D8
:104C20002093AB0A82E20E94500521E0892B09F013
:104C300020E02093BC0A86E00E94500521E0892BE9
:104C400009F020E02093A50A89E00E94500521E0A8
:104C5000892B09F020E02093A60A87E00E945005E6
:104C600021E0892B09F020E02093A80A8AE00E9425
:104C7000500521E0892B09F020E02093A90A81E466
:104C800090E10E94850E6DA77EA78FA798AB6093D9
:104C9000A8077093A9078093AA079093AB078FE3A7
:104CA00090E10E94850E2DA53EA54FA558A9209301
:104CB000BD0A3093BE0A4093BF0A5093C00A609366
:104CC000C10A7093C20A8093C30A9093C40A0E94D7
:104CD0005F072093960A3093970A4093980A50935F
:104CE000990A60939A0A70939B0A80939C0A909306
:104CF0009D0A6EE87AE084E89AE00E948D0CC092EA
:104D0000D607D092D707E092D807F092D907009142
:104D1000090210910A028091D2079091D307A091C5
:104D2000D407B091D507A7019601281B390B4A0B70
:104D30005B0BDA01C90184369105A105B105A8F123
:104D40001E821D8285E589838AEA8A8381E08B83BE
:104D50008C830130110521F480E18D838C830FC099
:104D60000230110511F481E1F8CF0330110511F47F
:104D700082E1F3CF0430110509F4A5C08D83AE01A3
:104D80004F5F5F4F4A01D4016D914D018EE998E06C
:104D90000E94570428143904B1F7C092D207D09268
:104DA000D307E092D407F092D5079CE0892E912C8E
:104DB0000115110519F086E0882E912C8EE998E0F6
:104DC0000E9401041816190614F58EE998E00E9455
:104DD000DF032091BC073091BD072130310509F474
:104DE00074C02230310509F488C0232B81F4853545
:104DF000910569F485E58093AE0781E090E090939A
:104E0000AD078093AC079093BD078093BC0780915A
:104E1000DC0760E08111F0C08091D1078111EBC007
:104E200060E086E10E94790561E087E10E947905F2
:104E30006091DA077091DB07809107029091080278
:104E40006817790709F4F8C18091CB079091CC07D6
:104E5000019719F590E080E00E94C52C850120E0C3
:104E600040E00E94212A82E197E09F938F93BF92B6
:104E7000AF928CE297E09F938F9389E397E09F93A3
:104E80008F937F926F920E943B31C3010E94A308CF
:104E90000FB6F894DEBF0FBECDBF0091DA071091B8
:104EA000DB070630110509F4C4C008F0AAC00115DB
:104EB000110509F4B9C080E091E00130110509F451
:104EC000BAC080E0B7C083E148CF2091AC073091F1
:104ED000AD07A9014F5F5F4F5093AD074093AC07FB
:104EE0002255384FF9018083841695060CF08FCF38
:104EF0005092BD074092BC078ACFEEEAF7E030E05F
:104F000020E08191280F311DCF018E5A97408815DE
:104F10009905BCF3F401E255F84F808190E0281721
:104F20001906B9F58091B2079091B30798278927A0
:104F300098270115110531F59093C60A8093C50A8B
:104F40008091B4079091B507982789279827909367
:104F5000C80A8093C70A8091B6079091B70798272F
:104F6000892798279093CA0A8093C90A8091B80725
:104F70009091B9079827892798279093CC0A809316
:104F8000CB0A07C001301105B1F49093C60A809393
:104F9000C50A1092BD071092BC078091D1078111FC
:104FA0001EC081E090E00130110501F550920A0227
:104FB000409209022CCF0230110529F49093C80ABF
:104FC0008093C70AE6CF0330110529F49093CA0AEB
:104FD0008093C90ADECF04301105D9F6CECF84E024
:104FE00090E00330110511F083E090E090930A0205
:104FF000809309020CCF61E086E10E94790560E0B0
:1050000014CF0A30110509F412C120E030E04FEF4F
:1050100050E00D30110509F054CF6FE170E090E0E1
:1050200080E00E941A0F4DCF2FE73FE74FE750E097
:10503000F4CF81E090E010930802009307022091E2
:10504000C207211104C0911102C0882369F0109297
:10505000C2078091DA079091DB078130910509F44E
:10506000EEC0069709F4FAC08091DA079091DB0749
:105070008430910509F417C108F0FCC08230910515
:1050800009F430C1039709F450C18091CD07909184
:10509000CE07A091CF07B091D007A7019601281B9A
:1050A000390B4A0B5B0BDA01C90188389341A10522
:1050B000B10508F43FC080917B00877F80937B001F
:1050C00081E480937C0080917A00806480937A00F0
:1050D00080917A0086FDFCCF809178006091790004
:1050E000762F682F072E000C880B990B0E94C72C77
:1050F00020E030EC4FE754E40E94FE2D20E030E049
:1051000040EA50E40E94262D2AE939E949EF50E4AB
:105110000E94262D6093B00A7093B10A8093B20A60
:105120009093B30AC092CD07D092CE07E092CF07FA
:10513000F092D0078091CB079091CC07019709F0AE
:1051400073C00E94E3050091EF071091F0072091D2
:10515000F1073091F207DC01CB01801B910BA20B10
:10516000B30B0091C7071091C8072091C907309170
:10517000CA07081719072A073B0740F48093C70797
:105180009093C807A093C907B093CA078091C3073B
:105190009091C407A091C507B091C607A7019601D9
:1051A000281B390B4A0B5B0BDA01C9018938934183
:1051B000A105B105C8F16091C7077091C80780913A
:1051C000C9079091CA070E94C52C850120E040E0E4
:1051D0000E94212A80E497E09F938F93BF92AF9221
:1051E00088E497E09F938F9389E397E09F938F9351
:1051F0007F926F920E943B31C3010E94A3081092DC
:10520000C7071092C8071092C9071092CA07C09228
:10521000C307D092C407E092C507F092C6070FB645
:10522000F894DEBF0FBECDBF0E94C40496C928EA21
:1052300032E340EA50E0F1CE80E090E000CF809190
:10524000D10720E03FEF40E050E081110EC06FE059
:1052500070E090E080E00E941A0F06CF8091D107A5
:105260002FEF30E040E050E0F0CF6FE170E080E100
:1052700090E0F1CF8730910589F08830910511F1E8
:1052800020E030E04FEF50E0059709F0FECE6FE1EF
:1052900070E090E080E00E94440FF7CE28EA32E30D
:1052A00040EA50E0F4CF8091D10720E030E04FEFAA
:1052B00050E06FE070E0882361F36FE170E080E11F
:1052C00090E0E9CF8091D107811107C06FE070E0D5
:1052D00090E080E00E94A10FD8CE6FE170E080E105
:1052E00090E0F8CF8091BE079091BF07A091C007D2
:1052F000B091C107A7019601281B390B4A0B5B0B24
:10530000DA01C90184369105A105B10508F4BDCEC5
:1053100082E090E00E944110C092BE07D092BF0789
:10532000E092C007F092C107B0CE8091BE07909185
:10533000BF07A091C007B091C107A7019601281B24
:10534000390B4A0B5B0BDA01C90184369105A105C3
:10535000B10508F49ACE83E090E0DCCF61157105C9
:1053600059F0232B49F0FB01808190E091958195C4
:105370009109892B09F0CCCB2FE737E0EBEBF4E078
:1053800090E080E0D9014D919D01DC01A259B84F18
:105390004C934C91419301968A30910599F70E9464
:1053A0005F072093F80A3093F90A4093FA0A509362
:1053B000FB0A6093FC0A7093FD0A8093FE0A9093A7
:1053C000FF0AEEE6F7E0F093030BE093020B60EFC9
:1053D0007AE086EE9AE00E948D0C1092A40710925B
:1053E000A3071092A6071092A5078BEB94E00E94EA
:1053F000A30881E098E00E940104C3010E94040F09
:10540000CE014B960E94040FCE0181960E94040F9C
:10541000CE0187960E94040FF6C98EE79AE00E949B
:10542000040F80913210909133100E94A92F809127
:105430002F109091301097FD03C060E00C94A705E9
:105440000895EF920F931F93CF93DF93E80134E019
:1054500047FD34E1042E000C550B57FF03C0519556
:1054600041955109E32E022F242FAE010E94642A98
:10547000CE01DF91CF911F910F91EF900895BB273F
:105480004A3031F4992322F4BDE2909581959F4FE3
:105490000C944B2ABB27FB015527AA27880F991F7D
:1054A000AA1FA41710F0A41B83955051B9F7A05D53
:1054B000AA3308F0A95DA193009779F7B111B193D0
:1054C0001192CB010C94B52C8F929F92AF92BF9208
:1054D000CF92DF92EF92FF920F931F93CF93DF93C0
:1054E00000D000D000D0CDB7DEB76A01F22EB02ECA
:1054F000102FFBE3AF2EA01608F41BE31F5F012F54
:1055000027E0AE014F5F5F4F0E94DD2BBC01898118
:10551000982F9970913009F44EC09BE2E1FC04C0D1
:105520009E2D9170E0FC49C05E2D5071E82FE8700F
:1055300083FF55C084E0911101C083E0EF2DE81B8B
:105540008F1508F0E0E0D6018E2F20E25523C9F137
:10555000992329F0D6019C93C60101966C0196010E
:105560002D5F3F4FE2FE33C08EE4D6018C9391E471
:1055700011969C93119712968C93D9018E2F90E2DD
:1055800081112AC0E20FF32FF11D10828EEF9FEFE1
:1055900029960FB6F894DEBF0FBECDBFDF91CF9135
:1055A0001F910F91FF90EF90DF90CF90BF90AF9041
:1055B0009F908F9008959DE2B7CF90E2B5CF2D9345
:1055C00081508111FCCFCE0ED11CE0E0C1CF8EE620
:1055D000D6018C9391E6CCCF9D938150D1CF482FAB
:1055E000447082FF3DC084E0911101C083E08F15BB
:1055F00010F4EF2DE81BD6018E2F20E2552309F180
:10560000992329F0D6019C93C60101966C0196015D
:105610002D5F3F4FE2FE1BC089E4D6018C938EE4E0
:1056200011968C93119786E412968C93D9018E2F44
:1056300090E2882309F4A6CF9D938150FACF2D9351
:1056400081508111FCCFCE0ED11CE0E0D9CF89E68C
:10565000D6018C938EE611968C93119786E6E4CF53
:105660009B0177FF02C030E020E0A1E0B0E09111A3
:1056700002C0B0E0A0E0F9013196AE0FBF1F8B2C45
:10568000912CBB2009F461C05401EFEFAE1ABE0AA1
:10569000AA0DBB1DFA161B0619F014F04F2D4A1B5C
:1056A000511188C0E3FC59C07601A42FB0E2A111CA
:1056B0004FC0C40ED11C992309F45BC040E0D60151
:1056C0001196F60190836D01552309F448C0012F0E
:1056D000060F9A81582F507184FF03C0913309F44B
:1056E000015010160CF047C0093008F008E0EEE257
:1056F000FE2E5B01A01AB108850191948194910856
:105700002F3F320729F4D601FC92F60131966F0142
:105710006217730794F1021713077CF5DB01A21BD4
:10572000B30BAA24A394B12CAC0EBD1EAA0DBB1DB5
:1057300011968C9121503109D60111962815390501
:10574000F4F0F60180836D01DBCFB12CA12CA0CF4A
:10575000F701B1937F01A150AACF9111B0CFD6012B
:10576000942F50E302C05D9391509111FCCFC40E71
:10577000D11C40E0ACCF01E0BACF80E3DBCF6217B1
:10578000730731F4963388F4953311F4552369F097
:10579000F6018083FD01842F90E2811108C0A40FDF
:1057A000B11D1C9290E080E0F3CE81E3F1CF9193A4
:1057B0008150F3CF911183CF8ACF283008F027E0B2
:1057C0003327DA01990F311D87FD9160009661053D
:1057D000710539F432602E5F3D9330E32A95E1F78D
:1057E00008959F3F30F080387105610509F03C5FF6
:1057F0003C5F3D93913008F08068911DDF93CF931B
:105800001F930F93FF92EF92192F987F9695E92F90
:1058100096959695E90FFF27E252FD4F992733277A
:10582000EE24FF24A701E70105900894079428F4CB
:10583000360FE71EF81E491F511D660F771F881F80
:10584000991F0694A1F70590079428F4E70EF81E17
:10585000491F561FC11D770F881F991F661F069489
:10586000A1F70590079428F4F80E491F561FC71F8B
:10587000D11D880F991F661F771F0694A1F7059009
:10588000079420F4490F561FC71FD81F990F661F92
:10589000771F881F0694A9F784911095177041F01F
:1058A000D695C79557954795F794E7941A95C1F7FC
:1058B000E4E8F2E068941590159135916591959121
:1058C00005907FE27395E118F10A430B560BC90B63
:1058D000D009C0F7E10CF11E431F561FC91FD01D90
:1058E0007EF4703311F48A95E6CFE894015030F0DD
:1058F000080F0AF40027021708F4202F2395022F1F
:105900007A3328F079E37D932A95E9F710C07D93E7
:105910002A9589F606949795679537951795179464
:10592000E118F10A430B560BC90BD00998F02395E7
:105930007E9173957A3308F070E37C932013B8F767
:105940007E9170617D9330F0839571E37D9370E378
:105950002A95E1F71124EF90FF900F911F91CF91BD
:10596000DF91992787FD90950895DC01FC01672F51
:1059700071917723E1F7329704C07C916D93708326
:105980006291AE17BF07C8F30895E89409C097FB6A
:105990003EF490958095709561957F4F8F4F9F4F06
:1059A0009923A9F0F92F96E9BB279395F69587954A
:1059B00077956795B795F111F8CFFAF4BB0F11F40D
:1059C00060FF1BC06F5F7F4F8F4F9F4F16C08823B4
:1059D00011F096E911C0772321F09EE8872F762FEA
:1059E00005C0662371F096E8862F70E060E02AF02B
:1059F0009A95660F771F881FDAF7880F9695879517
:105A000097F90895990F0008550FAA0BE0E8FEEFEB
:105A100016161706E807F907C0F012161306E40772
:105A2000F50798F0621B730B840B950B39F40A266B
:105A300061F0232B242B252B21F408950A2609F449
:105A4000A140A6958FEF811D811D08950E94392DDB
:105A50000C94AA2D0E949C2D38F00E94A32D20F0BA
:105A6000952311F00C94932D0C94992D11240C94E2
:105A7000DE2D0E94BB2D70F3959FC1F3950F50E072
:105A8000551F629FF001729FBB27F00DB11D639FF0
:105A9000AA27F00DB11DAA1F649F6627B00DA11D96
:105AA000661F829F2227B00DA11D621F739FB00D3C
:105AB000A11D621F839FA00D611D221F749F3327AC
:105AC000A00D611D231F849F600D211D822F762F45
:105AD0006A2F11249F5750409AF0F1F088234AF022
